:020000040001F9
:10B0000038330020D5B00100EFB00100F1B00100ED
:10B010000000000000000000000000000000000030
:10B02000000000000000000000000000F3B001007C
:10B030000000000000000000F5B00100F7B00100C2
:10B040000DB60100F9B0010029B70100F9B0010007
:10B05000F9B001000000000041B20100F9B00100A8
:10B06000F9B00100F9B00100F9B00100F9B0010038
:10B07000F9B00100F9B00100F9B00100F9B0010028
:10B08000F9B0010061B60100F9B00100F9B00100AA
:10B0900089B60100F9B0010091B60100F9B00100D4
:10B0A000F9B00100F9B0010000000000000000004C
:10B0B0000000000000000000000000000000000090
:10B0C0000348854600F07EF800480047170002005C
:10B0D000383300200321094802680A430260084807
:10B0E00002680A4302600748804707480047FEE7B6
:10B0F000FEE7FEE7FEE7FEE7FEE70000240500406E
:10B1000054050040C5B60100C1B0010030B50B4682
:10B11000014600202022012409E00D46D5409D4231
:10B1200005D31D469540491B2546954040191546B7
:10B13000521E002DF1DC30BD70B5002425460028DC
:10B1400001DA01244042002901DA01254942FFF7D2
:10B15000DDFFAC4200D04042002C00D0494270BD1F
:10B1600003460B439B0703D009E008C9121F08C020
:10B17000042AFAD203E00B780370401C491C521ECB
:10B18000F9D27047D2B201E00270401C491EFBD2D6
:10B1900070470022F6E710B513460A4604461946E2
:10B1A000FFF7F0FF204610BD30B5044600200346EF
:10B1B00000E05B1C934203D2E05CCD5C401BF8D006
:10B1C00030BD0000064C0125064E05E0E36807CCC3
:10B1D0002B430C3C98471034B442F7D3FFF774FF6D
:10B1E000B44C0200D44C020070B58C180578401C99
:10B1F0006B075B0F01D10378401C2A1106D102783E
:10B20000401C03E006780E70401C491C5B1EF9D1FF
:10B210002B0705D40023521E0DD40B70491CFAE7EE
:10B220000378401CCB1A921C03E01D780D70491C5A
:10B230005B1C521EF9D5A142D8D3002070BD00007E
:10B24000F0B58FB000200E900D90FF2001300C90D3
:10B250000126002416E00C9805F096FA00280BD081
:10B2600000BF924840683040002805D00C9805F097
:10B2700083FA0E9830430E9076000C98001D80B231
:10B280000C90641C042CE6D3FF207D3005F07CFA82
:10B2900000280DD0FF207D3005F06EFA0121C9078E
:10B2A0000E9808430E900DAA0121002005F046FAE1
:10B2B0000E980007000F00282CD00126002427E05C
:10B2C0000E983040002821D000BF79485121090153
:10B2D0004018A10040581F2109020840000A0746F3
:10B2E00000BF7348512109014018A10040580321B3
:10B2F00009040840000C0B90204601F0B7FF0546FA
:10B30000002D02D038460B99A84700BF7600641C78
:10B31000042CD5D30E98C00FC007002876D000208B
:10B320000B900A90002505E00020C043A90009AA5F
:10B3300050506D1C002DF7D000BF00200B90002452
:10B340007AE05C48005D0890C02108988843074671
:10B3500058480057401C00286DD009A9384604F011
:10B360007FFF002867D0C02108980840801107900F
:10B37000384601F0BFFF059001F078FF069006986F
:10B38000002802D10798032854D10798032815D123
:10B390000AA803970290039FF9080191039F790778
:10B3A000490F039101990298415C0123039A93404C
:10B3B0001943CAB20199425400BF00BF00BF00BF89
:10B3C000052109070846B9000722120282185158C0
:10B3D000032212041140090C05910DA9384604F00E
:10B3E0003FFF04900498002802D00598022805D059
:10B3F000049800281DD1059803281AD1079803281E
:10B4000010D10598022802D1032001E04BE0022070
:10B4100003903846039905F043F90B98401CC0B2DD
:10B420000B9000BF0698002803D03846069A07996B
:10B43000904700BF00BF641C042C82D30B980028E7
:10B440002CD0012708AA0121002005F077F900255A
:10B450000AE0A80008A90858A9000DAA5158884276
:10B4600001D0002702E06D1C002DF2D000BF002F9C
:10B4700002D000200B9010E000250CE0A80008A9E5
:10B480000858A9000DAA5050A8000AA90858A900F8
:10B4900009AA50506D1C002DF0D000BF0B98002859
:10B4A00000D04AE700BF0FB0F0BD000000630040CD
:10B4B000006000406C290020C206D20E012191409C
:10B4C000014A11607047000080E200E0C206D20E1F
:10B4D00001219140014A11607047000080E100E0C5
:10B4E000C206D20E01219140014A1160704700004E
:10B4F00000E100E0C206D20E01219140014A116034
:10B500007047000000E100E0C206D20E0121914028
:10B51000014A11607047000000E200E010B5002809
:10B5200019DA1A4A03071B0F083B9B089B00D258E5
:10B530008307DC0EFF23A3409A438B071B0E84076F
:10B54000E40EA3401A43114B0407240F083CA4083F
:10B55000A4001A5118E00E4A03231B02D2188308D4
:10B560009B00D2588307DC0EFF23A3409A438B072E
:10B570001B0E8407E40EA3401A43054B0324240248
:10B580001B198408A4001A5110BD00001CED00E036
:10B5900000E100E010B5002819DA1A4A03071B0F72
:10B5A000083B9B089B00D2588307DC0EFF23A34077
:10B5B0009A438B071B0E8407E40EA3401A43114BDA
:10B5C0000407240F083CA408A4001A5118E00E4AEE
:10B5D00003231B02D21883089B00D2588307DC0E7A
:10B5E000FF23A3409A438B071B0E8407E40EA3405E
:10B5F0001A43054B032424021B198408A4001A5182
:10B6000010BD00001CED00E000E100E010B5FF20DF
:10B61000013004F030FE00280CD0FF20013004F08F
:10B6200035FE012004F038FE01200C49487000204E
:10B6300001F0EEFEFF20053004F01DFE00280BD0C7
:10B64000FF20053004F022FE022004F025FE012038
:10B650000249887001F0DCFE10BD000018290020AE
:10B6600010B500200749086000210648416081604C
:10B67000C1600020034940390860486008F026FC9A
:10B6800010BD00004011014010B508F02FFB10BDA7
:10B6900070B50B48006800280ED009480068804744
:10B6A000044600BF2546002D04D000BF284600F008
:10B6B000EFFA00BF00BF01E003F0CCFF70BD000057
:10B6C0003021002010B504F0ADF8002805D0104856
:10B6D00010494860C8131049886104F087F80028B1
:10B6E00002D001200D49886004F0D2F800280ED065
:10B6F0000B480068012807D00A480949086000BFC4
:10B70000074800680128FBD1C0200549486110BDE9
:10B71000DFFF07C000050040006C0040000600404D
:10B7200000EC06407593000010B50249024808F08D
:10B7300076FC10BD742900200020004030B474460F
:10B74000641E2578641CAB4204D3635D5B00E31880
:10B7500030BC18471D46F8E702E008C8121F08C1B0
:10B76000002AFAD170477047002001E001C1121F82
:10B77000002AFBD1704700000146202909DA012088
:10B780008840054A1040002801D001207047002061
:10B79000FCE70120FAE70000FC06FFBC00BFEFF366
:10B7A0001081084672B6704770B505460C46002DEC
:10B7B00001D0002C01D1002070BD2878217888426A
:10B7C00001D00020F8E70622611C681CFFF7ECFCA2
:10B7D000002801D10120EFE70020EDE7024600211B
:10B7E00005E0505C002801D001207047491C062963
:10B7F000F7D30020F9E7000010B50446002C0ED066
:10B8000008480068A0420AD806484068A04206D30B
:10B81000204604F074F8002801D0012010BD00205B
:10B82000FCE7000054210020F7B582B0044616461C
:10B8300000253788002030802D20005D00280CD0A6
:10B840003A463146039800F07FFF054600BF002DC1
:10B8500002D0284605B0F0BD00BFA07800280BD06C
:10B860003A463146039800F01BFB054600BF002D09
:10B8700001D02846EEE700BFE07800280DD0E1783F
:10B8800048B23B463246039902F084FE054600BFAB
:10B89000002D01D02846DDE700BF606800280ED0EB
:10B8A0000020616808563B463246039908F09CFB2D
:10B8B000054600BF002D01D02846CBE700BF2089F8
:10B8C00000280FDD0197009606220221204608304D
:10B8D000039B08F015FD054600BF002D01D028464A
:10B8E000B8E700BF208A00280FDD019700960722E5
:10B8F000032120461030039B08F002FD054600BFDF
:10B90000002D01D02846A5E700BF208B00280FDDC1
:10B91000019700961522142120461830039B08F049
:10B92000EFFC054600BF002D01D0284692E700BF7E
:10B93000206A00280CD03B463246206A039901F069
:10B94000F5FD054600BF002D01D0284682E700BF67
:10B95000606A00280CD03B463246606A039904F0C6
:10B960008DFB054600BF002D01D0284672E700BFC1
:10B970002C20005D00280CDD3B4632462046039912
:10B9800007F02CFD054600BF002D01D0284661E7D9
:10B9900000BF207800280CD03B4632462046039951
:10B9A00004F0A8FB054600BF002D01D0284651E752
:10B9B00000BF28464EE7000070B504461748FFF761
:10B9C0000DFF0546012C06D0022C0DD0032C14D0FF
:10B9D000042C20D118E012484078002803D0002D14
:10B9E00001D0012070BD00BF0D488078002803D031
:10B9F000002D01D00220F5E700BF0948C0780028DB
:10BA000001D00320EEE700BF05480079002801D0EF
:10BA10000420E7E700BF0020E4E700002920002021
:10BA2000D022002010B504460521601CFFF784FBDE
:10BA3000C8B210BD0146C87804221040002801D1C8
:10BA4000072070470020FCE710B5012202210020EA
:10BA500001F072F9044600BF002C03D0072C01D07E
:10BA6000204610BD00BF07220221012001F064F929
:10BA7000044600BF002C03D0072C01D02046F0E77D
:10BA800000BF0A220021084601F056F9044600BF13
:10BA9000002C03D0072C01D02046E2E700BF002095
:10BAA000DFE7000030B599B03C210AA8FFF771FB31
:10BAB000022108A80172012181720621C1720121AF
:10BAC0006846018711490F91202102A8FFF761FB09
:10BAD00001216846C172FF202D300690B4200790E6
:10BAE00000200B4B02AA014600900AA800F0F4FACD
:10BAF000044600BF2546002D04D000BF284600F0B4
:10BB0000C7F800BF00BF19B030BD00000220002000
:10BB1000FF07020070B5032000F026FC044600BFBA
:10BB20002546002D04D000BF284600F0B1F800BF24
:10BB300000BF70BD70B58CB004460D46164600209F
:10BB400005E00F21091A615C6A461154401C102857
:10BB5000F7D30D2104A8FFF71CFB002005E02A5CA9
:10BB60000F210B1A04A9CA54401C0328F7D36846B6
:10BB70004DDF002005E00F210A1A08A9895C315425
:10BB8000401C0328F7D30CB070BD10B5044602204A
:10BB900000F02AFF10BD000010B5002407E0E1000E
:10BBA000064A1268505C012104F012FC641C04482F
:10BBB00000788442F3D3002010BD0000D020002084
:10BBC000D4200020FEB506460C461746052F01D2AC
:10BBD0000720FEBD04F010FD002808D104F0DEFCB3
:10BBE000054600BF002D01D02846F2E700BF1748E8
:10BBF000066017480470174807600020164908605F
:10BC00001649086017E0E0008019019014480068A8
:10BC10000090019880786946487001990878114A27
:10BC2000694604F033FC054600BF002D01D02846CC
:10BC3000CFE700BF00BF2046611ECCB20028E2D192
:10BC4000094A0021094800F033F8C2E7D02000205B
:10BC5000D4200020D8200020DC200020E02000207C
:10BC60009C4C0200F1EE01009DD70100984C0200AF
:10BC700000BFBFF34F8F04480449C860BFF34F8F24
:10BC800000BF00BFFEE700000400FA0500ED00E081
:10BC90003EB50446002000900190029002946A464E
:10BCA00000210248FFF7E4FF3EBD00000140000014
:10BCB00010B503460C4600BF0D484068002801D16E
:10BCC000082010BD00BF002A01D10720F9E7002B92
:10BCD00001D10720F5E71868007C002801D0082072
:10BCE000EFE71968002008744C744A6100BFE8E768
:10BCF000E4200020F8B507460D4614461E462046AF
:10BD00008107890F002901D1012100E000210029CC
:10BD100001D10720F8BD002C01D10720FAE706F079
:10BD2000B3FF1148066000201049087048700846AB
:10BD30008570446000200E4908600E4908700E4965
:10BD400008701420FFF7B8FB03211420FFF722FC32
:10BD50001420FFF7C5FB384606F06CFF06F064FFC1
:10BD6000064908600020D5E700210020E4200020DB
:10BD7000EC200020FC200020FD200020F0200020EE
:10BD8000F8B504460E461746254600BF10484068E1
:10BD9000002801D10820F8BD00BF002C01D10820E7
:10BDA000F9E7052E01D20720F5E76869002801D1DF
:10BDB0000820F0E7687C012801D1304600E000202F
:10BDC00000903B4631462846009A08F02FF8E2E7FB
:10BDD000E420002070B50446254600BF0A484068AC
:10BDE000002801D1082070BD00BF002C02D0686976
:10BDF000002801D10820F6E70020287402212846F7
:10BE000008F042F8EFE70000E420002070B5044697
:10BE100000BFFFF7C3FC05460E48406800280ED15E
:10BE200001200C4948600C4800680C490840094949
:10BE300008600A48084908600020207001E00120DD
:10BE40002070002D03D100BF62B600BF00BF00BF4D
:10BE500070BD00000821002080E100E0FC06FFBC6E
:10BE600070B5044625460C484068002812D0002DC5
:10BE700010D1FFF793FC06460748006807490860A1
:10BE8000002005494860002E03D100BF62B600BF04
:10BE900000BF00BF00BF70BD0821002000E100E02E
:10BEA000F8B505460C4617462088001DB84201D952
:10BEB0000C20F8BD684679DF064600BF002E01D091
:10BEC0003046F6E700BF0320218868542088401CD4
:10BED00020801920218868542088401C20802088D8
:10BEE00041196846008808F04CF9218840182080E4
:10BEF0000020DEE77047000030B58BB014480078B2
:10BF000000F0ECFB0546284606F072FF00281CD026
:10BF100001A800F03FFB142201A906A8FFF720F9B1
:10BF200000240EE0620007A9885A0949097800F048
:10BF3000E3FB002804D0620007A9885A03F0A6FF9B
:10BF4000641C0698A042EDD800BF0BB030BD0000C5
:10BF50007220002010B5044663799A07920F217968
:10BF6000208803F061FE10BD10B50446207900283A
:10BF700003D1204600F008F803E02046FFF7EAFF6F
:10BF800000BF00BF10BD0000F0B589B00446002519
:10BF9000208800F071FB0746208803F09DFA0646D2
:10BFA000A0680890607A07902088002222490978CA
:10BFB00000F0B6FB002F01D109B0F0BD6079400759
:10BFC000C00F002811D00721304605F02DFA054694
:10BFD000002D16D00821684601712188C180068194
:10BFE000039501A801F088FE0BE020881349097829
:10BFF00000F082FB002804D0304603F055FA03908D
:10C0000000BF03216846017421884182607940079E
:10C01000C10F68460175A0794007C10F04A841719E
:10C02000811D08A80078087004A86946097FC171BD
:10C0300001F062FE00BFBFE7B6200020B82000205C
:10C04000F3B593B00D461F2112911191139800285A
:10C0500018D01398FFF7EEFC044600BF002C02D066
:10C06000204615B0F0BD00BF12AA09A91398FFF72A
:10C07000DBFB044600BF002C01D02046F1E700BFE7
:10C0800009AE02E0002600201290002D17D02846AD
:10C0900007F0CAFD044600BF002C01D02046E0E7AF
:10C0A00000BF11AA01A92846FFF7BEFB044600BF46
:10C0B000002C01D02046D4E700BF01AF02E00027EA
:10C0C0000020119010A88088C3B210A80089C1B2C6
:10C0D0003A46304672DFC4E7F8B504460F461546C7
:10C0E0001E46002C01D0002D01D10E20F8BD0120EC
:10C0F00057490870002057490870202229465648A1
:10C10000FFF72EF85548066055490698086000204C
:10C11000C0435449088007215348FFF73AF83C21AF
:10C120005248FFF736F8207850490870A078887098
:10C13000E078C87060784870084662692169426199
:10C1400001610146E268A068CA6088600846E26949
:10C15000A169C2618161606A00281BD044484349DB
:10C16000486244498160606A00884049496A0880A1
:10C17000606A80883D49496A8880002005E0616ADC
:10C180008968095C3B4A1154401C3849496A8988CE
:10C190008142F4D8A06A002824D03749374881600A
:10C1A0003249886234493148806A8160A06A808857
:10C1B0002E49896A8880A06A00882C49896A08808B
:10C1C000002005E0A16A8968095C2B4A1154401CD3
:10C1D0002649896A89888142F4D82C20015D234848
:10C1E00020300173206A00280BD025481F490862BF
:10C1F000206A4088096A4880206A00881B49096AC9
:10C2000008806068002802D01849606848600020F3
:10C2100008E0C100091A1B4A89181B4A12688300EA
:10C22000D150401C0828F4DB002007E00101174A28
:10C230008A18154989688300CA50401C0828F5DB14
:10C2400039460A48FFF7FCFE009000984EE70000D0
:10C250002420002027200020D02200203820002089
:10C260003C2000203420002028200020F022002044
:10C270002C23002038230020642300205823002092
:10C2800030200020C423002044200020FC23002074
:10C2900010B504462088102804D0112806D01B2889
:10C2A0000CD107E0204604F0A5FB08E0204604F08E
:10C2B000D1FB04E0204604F03FFC00E000BF00BFDB
:10C2C00010BD000070B50546022D02D0032D18D117
:10C2D00000E000BF0C480078002811D000200A4977
:10C2E00008700A48007800F03FF80446002C07D098
:10C2F00007480068002803D0204605490968884798
:10C3000000E000BF00BF70BD2520002027200020D6
:10C310003C20002010B574DF01200F490870062072
:10C320000E49C87000210D48FFF78AFE0446002C14
:10C3300001D0204610BD0A48007800F015F80446E8
:10C34000002C07D007480068002803D02046054984
:10C35000096888470020EDE740200020F0220020F7
:10C36000272000203C20002030B587B005465148EA
:10C370000078002802D1082007B030BD4E48057073
:10C3800002F072F9002804D001204C490870002006
:10C39000F2E707214A48FEF7FCFE4A4840780028A9
:10C3A00003D04548007801280FD0464880780028FF
:10C3B00003D041480078012807D0424880780028FF
:10C3C00012D03D48007802280ED13F48006800286E
:10C3D00007D001203D49087008203B49096888477B
:10C3E00002E00020394908702846FFF7E5FA324993
:10C3F000087035480068002817D0084600780328E0
:10C4000003D00846007804280FD12E480078002871
:10C410000BD02F480078002807D101202D49087043
:10C42000072029490968884702E000202949087047
:10C43000182101A8FEF7ADFE0021684601710173C5
:10C440001D4800780300FFF779F9051804090E1359
:10C450001C0001A807F022F8044613E001A807F029
:10C460002DF804460EE001A807F03EF8044609E066
:10C4700001A807F071F8044604E00020164908708E
:10C4800000E000BF00BF0C480078002806D001A8DB
:10C4900073DF0446002C01D020466DE70A4800688F
:10C4A000002804D00C480078074909688847002014
:10C4B00062E7000024200020272000202520002003
:10C4C00028200020D0220020382000202F2000200B
:10C4D00040200020412000202620002070B5054685
:10C4E0001C2229461448FEF73BFE00201349087021
:10C4F000286800280BD0082211482968FEF730FE72
:10C500000F487ADF0446002C08D0204670BD0C4846
:10C510007BDF0446002C01D02046F7E70020C04313
:10C5200008490880002008490870084A0021084886
:10C53000FFF7BEFBEAE700007C2400206820002013
:10C54000542000205E2000205C200020F1410200E9
:10C55000CC4B020010B504462088102806D01128C4
:10C5600008D012280ED0502810D107E0204604F041
:10C570001FFA0CE0204604F047FA08E0204604F0D9
:10C58000F9FA04E0204604F007FA00E000BF00BF1B
:10C5900010BD000010B504460348027D011D204671
:10C5A00006F09AFC10BD0000B824002010B5044627
:10C5B0000348C17D2246001D06F078FC10BD000036
:10C5C000B824002010B504460348017E2246001D11
:10C5D00006F06CFC10BD0000B824002070B50446C5
:10C5E0002088102804D011281ED01A283FD11FE01F
:10C5F00006F0B2FAA08806F017F9002804D100BFAF
:10C600000420FFF745FB0EE0A07D022801D10120A8
:10C6100000E000200546A2882B461649084612383D
:10C6200006F07DFC00BF22E0A08806F0B7FA1EE00D
:10C63000207A0009012801DD012000E000200346E6
:10C64000A2880C49491C0846133806F068FC207A79
:10C650000009022801DD012000E000200346A28835
:10C660000449891C0846143806F059FC00BF00BF75
:10C6700070BD0000CE24002070B5044600250C4893
:10C68000017D2246001D06F011FC00280DD008484F
:10C69000817D2246001D06F009FC0646002E01D0D1
:10C6A000022000E00120054600BF284670BD0000C2
:10C6B000B824002010B500240BE0204607F0F0FD60
:10C6C000002804D1204607F0E1FD204610BD601C83
:10C6D000C4B2182CF1DB1820F8E7000010B50446AE
:10C6E000204607F0DDFD002802D00248005D10BDA5
:10C6F0000020FCE7D124002070B505460C462046FA
:10C7000007F0CEFD002806D00448015D2A46153802
:10C7100006F0CCFB70BD0020FCE70000D124002017
:10C7200070B505460C461646204607F0B9FD0028B0
:10C7300006D00448011933462A46153806F0EFFBA7
:10C7400070BD0000D1240020FEB505460C461746FA
:10C7500020880930B84201D90C20FEBD684671DF3F
:10C76000064600BF002E01D03046F6E700BF082085
:10C77000218868542088401C20801B202188685410
:10C780002088401C208021884819062200A90131F8
:10C79000FEF7E6FC2088801D20806846007800288F
:10C7A00002D12188685402E0012021886854208841
:10C7B000401C20800020D0E710B504462046FFF73B
:10C7C0000DFF204605F0BEFC2046FFF7C3FE2046C5
:10C7D00000F0AEF9204604F02DF82046FFF758FD92
:10C7E0002146024800F05EF810BD000064210020E0
:10C7F000F8B505460E46306828600020C043E8873B
:10C8000000BF0121684681701121C943018000BF2A
:10C810002A1D69460120A0DF0446002C01D02046D5
:10C82000F8BD3146284607F001FE0446002C01D031
:10C830002046F5E73146284607F044FF0446002C21
:10C8400001D02046ECE73146284607F09FFE04461B
:10C85000002C01D02046E3E73146284601F09AFA41
:10C860000446002C01D02046DAE73146284601F084
:10C8700041FB0446002C01D02046D1E73146284632
:10C8800001F016F80446002C01D02046C8E73146D6
:10C89000284601F0BDF80446002C01D02046BFE731
:10C8A0000020BDE770B505460C462088102804D04E
:10C8B000112807D050280FD109E02146284604F05E
:10C8C00095F80AE02146284604F0C0F805E0214624
:10C8D000284604F079F900E000BF00BF70BD70B5D4
:10C8E0000446204607F047FC0546E807C00F70BD28
:10C8F00070B586B028480068059000BF0023482224
:10C90000264905A807F028F9054600BF2E46002E47
:10C9100004D000BF3046FFF7BBF900BF00BF00BF27
:10C920006A460121002007F0F5F8044600BF2546BD
:10C93000002D04D000BF2846FFF7AAF900BF00BFB2
:10C94000684607F0D3F8044600BF2546002D04D002
:10C9500000BF2846FFF79CF900BF00BF104807F052
:10C96000B7F8044600BF2546002D04D000BF284676
:10C97000FFF78EF900BF00BF0A4807F047F90446E9
:10C9800000BF2546002D04D000BF2846FFF780F9E0
:10C9900000BF00BF06B070BD9C4B02001C220020EF
:10C9A000B9C70100953C020001460148405C704750
:10C9B000A34B020010B501460A4B585C00BF05248A
:10C9C0002407234600BF24151C192469C440E4072A
:10C9D000E40F002C01D0012000E0002002460120DD
:10C9E000504010BDA34B020030B502460C49885C94
:10C9F00000BF05242407214624150C19636801246F
:10CA000084409C4305252D024D19AC6001248440CF
:10CA10001C4005252D024D19EC6000BF30BD000003
:10CA2000A04B020010B504460249085D002103F046
:10CA300064FE10BDA04B020010B504460249085D1B
:10CA4000012103F05AFE10BDA04B020010B50146B3
:10CA50000B4B585C00BF05242407234600BF241558
:10CA60001C196468C440E407E40F002C01D00120C5
:10CA700000E000200246012050400123584010BD34
:10CA8000A04B02007CB500240CE00948055D0020A5
:10CA900000900346012211460190284603F0B6FD9E
:10CAA00000BF641C032CF0D300F004F87CBD000030
:10CAB000A04B020010B5002403E02046FFF7B2FFB0
:10CAC000641C032CF9D310BD10B5002403E02046EC
:10CAD000FFF7B2FF641C032CF9D310BD02460020FF
:10CAE000C043002106E0054B5B5C934201D1084640
:10CAF00002E0491C0329F6D300BF7047A34B020094
:10CB000070B505460C46002607480560002C02D08B
:10CB1000204607F091F805480068002802D1FEF78A
:10CB200093FF0646304670BD1C20002020200020C8
:10CB300070B505462888102802D0112832D118E097
:10CB40001A48006800280ED100F0D2FD044600BF4C
:10CB5000002C07D016480068002803D0204614494E
:10CB60000968884700BF11480068401C0F490860E9
:10CB700019E00E480068401E0C490860084600682D
:10CB800000280ED1FEF760FF044600BF002C07D03E
:10CB900007480068002803D02046054909688847EF
:10CBA00000BF00E000BF00BF70BD000020200020DB
:10CBB0001C20002010B5002000F0F6FA044600BF4B
:10CBC000002C03D0062C01D0204610BD00BF012050
:10CBD00000F0EAFA044600BF002C03D0062C01D076
:10CBE0002046F2E700BF0020EFE70000F3B581B078
:10CBF0000746002500243846FFF770FF0446032C43
:10CC000042D20298002825D0012802D002283AD129
:10CC100033E06000201822490D5C600020184018A5
:10CC2000407800280ED01F4800680A225043014671
:10CC30001D4A1E480068FFF7A3F80646002E01D1E2
:10CC40001948077060002018154940188078184965
:10CC5000085518E015480068FFF7BCF81448005D57
:10CC6000610061180E4A89188978884204D16000F1
:10CC7000201811464018857805E060002018084902
:10CC80004018457800BF00BF002D07D00948006854
:10CC9000002803D02846074909688847FEBD0000E0
:10CCA000A42200200C20002018200020B04B0200FD
:10CCB000192000201420002010B504462046FFF75C
:10CCC00079FE10BD70B50546042D06D0072D16D08F
:10CCD0000A2D29D106F078FC27E01321144800889A
:10CCE00076DF0446082C09D000BF2646002E04D06B
:10CCF00000BF3046FEF7CCFF00BF00BF15E00C4878
:10CD000000880C4988420ED1FFF704FB0446082C2A
:10CD100009D000BF2646002E04D000BF3046FEF7E3
:10CD2000B7FF00BF00BF00E000BF00BF70BD000044
:10CD300000200020FFFF000030B503460020032B39
:10CD400024D2012A07D1012903D11C460E34E4B2B2
:10CD500000E00024224600290FD0012902D0022938
:10CD600011D104E05C001C19094D2A550DE05C004E
:10CD70001C19074D6419627007E05C001C19044D12
:10CD80006419A27001E0072000BF00E0072030BD59
:10CD9000A422002070B50446002506480078C0078C
:10CDA000C00F002803D0204600F064F8054628464E
:10CDB00070BD000010200020F7B505460E46002487
:10CDC0002248066022480560224902980860022035
:10CDD0002840002822D0002706E0012211463846CC
:10CDE000FFF7AAFF04467F1C032F01D2002CF4D0CA
:10CDF000002C05D1720803211748FEF7E3FE044614
:10CE0000002C02D1FEF7C8FE0446002C05D1134ABF
:10CE100000211348FEF74CFF044600BFE807C00F8F
:10CE2000002801D0FFF72EFE002C05D10D4A00216D
:10CE30000D48FEF73DFF0446002C05D10B4A0121A9
:10CE40000B48FEF735FF04462046FEBD0C200020AF
:10CE50001020002014200020B44B0200BFD101009C
:10CE6000B04B020021F90100A84B02008BBB01006E
:10CE7000AC4B0200F8B5044600250026C5480078F2
:10CE8000002804D00020C3490870FFF713FE2300D8
:10CE9000FEF754FC180D1213406D9BC7D5DBF9F754
:10CEA000F6F5F4F3F2F1F0EFEEEDECEBEAE9FFF773
:10CEB00001FEB94804706AE100BF0020FFF7C6FD1B
:10CEC00000280BD00020FFF7ADFD022C02D1E1209D
:10CED000C00001E07D204001064609E00020FFF788
:10CEE000ABFD022C01D1C82001E0FF2091300646A5
:10CEF000A948047064213046FEF708F9A74909687B
:10CF00004843074600223946A5480068FEF738FF27
:10CF100005463CE10020FFF799FD00280BD00020DA
:10CF2000FFF780FD032C02D11920400101E07D2094
:10CF30004001064609E00020FFF77EFD032C01D1E9
:10CF4000C82001E0FF209130064693480470642118
:10CF50003046FEF7DBF8914909684843074600224E
:10CF600039468F480068FEF70BFF05460FE10020A9
:10CF7000FFF76CFD00280BD00020FFF753FD042CB9
:10CF800002D17D20400101E07D20400106460AE0FB
:10CF90000020FFF751FD042C02D1FF20913001E069
:10CFA000FF20913006467C48047064213046FEF72D
:10CFB000ADF87A490968484307460022394678485F
:10CFC0000068FEF7DDFE0546E1E00020FFF73EFDCC
:10CFD00000280AD00020FFF725FD052C01D1C8202C
:10CFE00001E07D204001064609E00020FFF724FD16
:10CFF000052C01D1C82001E0FF209130064666488B
:10D00000047064213046FEF781F86449096848439A
:10D0100007460022394662480068FEF7B1FE054621
:10D02000B5E00020FFF7E0FC5B4804705B4800229D
:10D0300001685B480068FEF7A3FE0546A7E00020F4
:10D04000FFF7FAFC54480470A1E001205149087030
:10D05000FFF7CAFC51480022016851480068FEF7FA
:10D060008FFE054693E091E08BE089E07DE074E07F
:10D070006BE065E03EE03CE03AE038E036E030E08E
:10D080001FE010E0FFE7012042490870FFF7ACFC09
:10D090004248006882008118002241480068FEF77B
:10D0A0006FFE054673E001203A490870FFF79CFCCB
:10D0B0003A48002201683A480068FEF761FE0546DA
:10D0C00065E0012033490870FFF78EFC33480068A3
:10D0D00082008118002232480068FEF751FE0546A2
:10D0E00055E0FFF7F1FC2C48047050E000BF00BF92
:10D0F00000BF00BF2B480068FEF76CFE05461120FC
:10D10000061B002E18D0002D16D1012E10D9C821D3
:10D11000714308466421FDF7F9FF20490968484337
:10D120000746002239461F480068FEF729FE0546DB
:10D130000220FFF781FC02E00220FFF773FC26E0EB
:10D14000FFF7B8FC1448047021E0FFF7B3FC00209F
:10D15000FFF772FC1048047019E0FFF7ABFC0120E8
:10D16000FFF76AFC0C48047011E0FFF7A3FC0020F5
:10D17000FFF762FC0120FFF75FFC0748047006E040
:10D1800000BFFFF7A1FC0448047000E000BF00BF2F
:10D190002846F8BD09200020082000200C2000208F
:10D1A000A84B0200AC4B020070B504462046FFF7C6
:10D1B000FBFB0546032103F053FA002070BD10B5B8
:10D1C000044620780221FFF711FD10BDF8B5054691
:10D1D000134A14490320FFF7EFFD044600BF26461B
:10D1E000002E04D000BF3046FEF752FD00BF00BF46
:10D1F00069460020FFF784FC044600BF2646002E47
:10D2000004D000BF3046FEF743FD00BF00BF6846B4
:10D210000078022801D1012000E000202870F8BD2C
:10D22000C5CC0100CD0C000001468879012808D149
:10D230000879012805D14888034A904201D101208C
:10D2400070470020FCE70000022900000021C943CC
:10D250008200054B9950042804DB0B46011F024A4B
:10D2600040325354704700002C29002001468800AA
:10D27000014A1058704700002C290020F7B585B0EE
:10D280000B460020C0430490002A01D0002000E09B
:10D2900004200390002A01D0042000E0082002901E
:10D2A00003991EE08800124C2058401C002817D11A
:10D2B0000846059C0093019246B20D4D20352E552F
:10D2C00085000B4E009B7351019A002A04D166B26F
:10D2D000051F074F40377E5500BF48B2049003E05A
:10D2E000491C02988142DDD300BF049808B0F0BD0C
:10D2F0002C29002001460148405670474C29002047
:10D300000146002907D00548884204D804488842CD
:10D3100001D9012070470020FCE7000054210020C3
:10D320006421002070B505460E46002407E0E100A8
:10D33000685802F0E4FA002800D170BD641CB442C1
:10D34000F5D30120F9E700000A49496C00290FD004
:10D350000849096CC900074A891801601146096C1F
:10D36000491C4907490F11641146496C491E516413
:10D3700070470000482A0020064902688A4203D00C
:10D38000016808310160704702493839016000BF07
:10D39000F9E70000802A00200178022902D00178F4
:10D3A00003290BD106490A6C817D5118044A116486
:10D3B00011464A6C817D511A014A51647047000040
:10D3C000482A0020F8B504460D46104E30468442E7
:10D3D0000BD1FF210131284604F068FE0646FF20EC
:10D3E000013086420FD126460DE0FF2C0BDC214692
:10D3F000284604F04AFE0746002F01D0204600E0F0
:10D400000248064600BF3046F8BD0000FFFF00009E
:10D4100070B50546002D01D1094C01E0084C0834D7
:10D420000AE0204602F074FA0646002E00D104E01D
:10D4300028467168884700BFF3E700BF70BD000051
:10D4400020290020FEB51F480068002836D01D485E
:10D450000068056805F0E8FB01901B480468214658
:10D46000019806F020FCC61C18480078002801D15D
:10D4700005F0ECFBAE4201D2284600E0304604192C
:10D480002402240A204605F0C9FB05F0CDFB0090DC
:10D490000199009806F007FCC71C2046019906F088
:10D4A00002FC874209D905F0BFFB074605F0B6FB31
:10D4B0002F2002F0F7FE06F053FD01E005F0E4FB3B
:10D4C000FEBD0000EC200020F02000200421002000
:10D4D00001460888062808DB08881922D2019042F4
:10D4E00005DD0888104A904201D00720704748881F
:10D4F000062808DB48881922D201904205DD4888B9
:10D50000094A904201D00720F0E70888064A904275
:10D5100008D04888904205D008884A88904201DDAA
:10D520000720E3E70020E1E7FFFF0000FFB581B03F
:10D5300006460D4614462088801D0499884202D96B
:10D540000C2005B0F0BD3046FFF7C2FF074600BF14
:10D55000002F01D03846F4E700BF05202188685429
:10D560002088401C20801220218868542088401C7C
:10D57000208022885119308806F003FE2188401847
:10D58000208022885119708806F0FBFD2188401800
:10D5900020800020D5E710B5044600BF2046FEF7E6
:10D5A00077FB00BF10BD000030B587B01C21684676
:10D5B000FDF7EFFD002000900520C00301900F2033
:10D5C000000402900321684601730021C1810174A7
:10D5D00009480590094806906846FEF77FFF044613
:10D5E00000BF2546002D04D000BF2846FEF750FBA3
:10D5F00000BF00BF07B030BD6909020097D5010028
:10D6000038B51F4802F0E0F8002829D11D480078FD
:10D6100000280AD01C484069002820D00020009033
:10D62000194841696846884719E018480078002879
:10D6300002D11548456801E0134885680022294653
:10D6400013480068FEF79CFB0446002C07D00E48E8
:10D650008069002803D00C488169204688470AE089
:10D6600009484069002806D0012000900648416919
:10D670006846884700BF00200249087038BD000096
:10D6800060200020682000207C2400205C200020F6
:10D69000CC4B02003EB504462088FEF787FF0028E9
:10D6A0001AD020880F490978FFF726F8002805D1FD
:10D6B000208800220C490978FFF732F82188684653
:10D6C0004180052101702088FEF77CFF69460871C2
:10D6D000684600F011FB04E020880122034900F0B5
:10D6E00035FA3EBDB7200020B6200020061000000D
:10D6F00010B5012200210846FFF71EFB044600BFBB
:10D70000002C03D0072C01D0204610BD00BF0722FB
:10D7100002210120FFF710FB044600BF002C03D0BC
:10D72000072C01D02046F0E700BF04220221002090
:10D73000FFF702FB044600BF002C03D0072C01D0EA
:10D740002046E2E700BF0020DFE7000070B5064694
:10D750000D46002E01D0012070BD2879002804D08C
:10D76000012809D0022811D10EE0284605F0CAF898
:10D770000446022028710BE0284600F0AFFE044664
:10D780000A2C00D1044C03E0034C01E00F2400BF3D
:10D7900000BF2046E0E700001D1D0000F8B5002591
:10D7A00035E0E8001C4909684418217801208840C8
:10D7B00006461A4800683040002826D017480068FE
:10D7C000B04316490860207802F0DCFE0746217855
:10D7D0000120884012490968084022783946914062
:10D7E000884211D16078012800D100E00020784003
:10D7F0000121484000906068002804D0009BD9B205
:10D8000020786268904700BF00BF681CC5B2054819
:10D8100000788542C5DBF8BDD0200020E020002044
:10D82000DC200020D420002070B5044620793D285B
:10D8300001D1054801E011200002054620880022A0
:10D84000294602F0F1F970BD3D1000000146144870
:10D850000078144A127890421DD011480078401C7C
:10D860000F4A107010460078022801D10020107075
:10D870000B48007880000C4A105808600B4A086872
:10D8800012688018094A1060104600680002000AF9
:10D890001060012070470020086000BFFAE7000018
:10D8A000FC200020FD200020F4200020F02000209B
:10D8B00030B58FB004460D461C2108A8FDF769FC61
:10D8C00008A8007810218843411808A80170007842
:10D8D00002218843811C08A8017000780821884330
:10D8E000411808A801701421684601850E21418560
:10D8F00042A0099000200B900C900D900E9000BF5C
:10D90000012168468171F921C943818000BF00204F
:10D91000079000BF6846007F01090901491C68465D
:10D920000177007FF021884310306946087700BFF7
:10D9300000BF6846407F01090901491C68464177DC
:10D94000407FF021884310306946487700BF887FC8
:10D9500006218843801C694688770020009000BF1C
:10D960006846007801090901491C68460170007881
:10D97000F021884310306946087000BF00BF684638
:10D98000407801090901491C684641704078F0213E
:10D99000884310306946487000BF68468078062189
:10D9A0008843011D684681708078082188430146BC
:10D9B00068468170807810218843014668468170EE
:10D9C000807841084900491C68468170142102A8EA
:10D9D000FDF7DFFB01A80290684603900121018258
:10D9E000002141820121818208480690A0882346B7
:10D9F0002E3302AA08A9A2DF0FB030BD656C6563A3
:10DA00005F6C6F636B5F636D640000004A210020F0
:10DA100030B58FB004460D461C2108A8FDF7B9FBB0
:10DA200008A8007810218843411808A801700078E0
:10DA300002218843811C08A80170142168460185D1
:10DA4000112141853BA0099000200B900C900D9076
:10DA50000E9000BF012168468171F821C943818081
:10DA600000BF0020079000BF6846007F0109090140
:10DA7000491C68460177007FF021884310306946D1
:10DA8000087700BF00BF6846407F01090901491CB3
:10DA900068464177407FF0218843103069464877D7
:10DAA00000BF887F06218843801C69468877002054
:10DAB000009000BF6846007801090901491C6846CA
:10DAC00001700078F021884310306946087000BF6B
:10DAD0006846807806218843011D684681708078F9
:10DAE0000821884301466846817080781021884368
:10DAF000014668468170807841084900491C6846A3
:10DB00008170142102A8FDF744FB01A80290684629
:10DB100003900121018200214182012181820A4872
:10DB20000690A0882346363302AA08A9A2DF0FB0C8
:10DB300030BD0000656C65635F6C6F636B5F737411
:10DB400061747573000000004E210020FEB504468C
:10DB50000D461646084A07CA6B4607C36846448006
:10DB6000858086710022054801782046FEF7D8FDA1
:10DB7000684600F0C1F8FEBD404C0200B62000200F
:10DB800010B50446A08928DF10BD00B50278130047
:10DB9000FDF7D4FD0734050811212A313400002295
:10DBA0000A702CE001220A7003898B818388CB8163
:10DBB000C2688A6023E002220A7003898B8183880D
:10DBC000CB81C2688A60027C062A01D1012300E071
:10DBD00000230B7413E003220A70C3888B8103892E
:10DBE000CB81C2688A600AE004220A70C3888B81F4
:10DBF0000023CB8103E005220A7000E000BF00BFD4
:10DC000000BD000070B5054600240AE0A0000649EA
:10DC10000858002804D0A0000A4611582846884712
:10DC2000641C082CF2D370BDB02900203EB5054617
:10DC30000C46002C1BD0112C19D000200090019014
:10DC400002906846458001940D2C03D10B20694653
:10DC5000087008E0862C03D10A206946087002E0AB
:10DC6000092069460870684600F056F800BF3EBDBE
:10DC700070B50546002405E0A000044A1158284666
:10DC80008847641C002CF7D070BD00006C20002079
:10DC900070B50546002405E0A000044A1158284646
:10DCA0008847641C002CF7D070BD0000782000204D
:10DCB00070B50546002405E0A000044A1158284626
:10DCC0008847641C022CF7D370BD0000E84B0200AB
:10DCD00070B50546002405E0A000054A1158284605
:10DCE0008847641C034800788442F5DB70BD00005F
:10DCF000CC280020B220002070B50546002405E0A5
:10DD0000A000044A115828468847641C022CF7D307
:10DD100070BD0000084C020070B50546002405E007
:10DD2000A000044A115828468847641C002CF7D0EC
:10DD300070BD00004C4C0200F0B50346002420E00A
:10DD4000134E306806689E4203D90668F61A0660CC
:10DD50001BE006689B1B06683419002606600C4E03
:10DD600035680B4FC6693E60C668002E08D00E1994
:10DD70003602360A4660C66886601668C661156057
:10DD800000BF034800680028DAD100BFF0BD0000E2
:10DD9000EC20002030B58FB004460D461C2108A8A9
:10DDA000FDF7F7F908A8007810218843411808A862
:10DDB0000170007802218843811C08A80170007856
:10DDC00008218843411808A801701421684601857C
:10DDD0001021418542A0099000200B900C900D90DD
:10DDE0000E9000BF012168468171FB21C9438180EB
:10DDF00000BF0020079000BF6846007F01090901AD
:10DE0000491C68460177007FF0218843103069463D
:10DE1000087700BF00BF6846407F01090901491C1F
:10DE200068464177407FF021884310306946487743
:10DE300000BF887F06218843801C694688770020C0
:10DE4000009000BF6846007801090901491C684636
:10DE500001700078F021884310306946087000BFD7
:10DE600000BF6846407801090901491C68464170B5
:10DE70004078F021884310306946487000BF6846FA
:10DE8000807806218843011D6846817080780821CA
:10DE90008843014668468170807810218843014696
:10DEA00068468170807841084900491C6846817045
:10DEB000142102A8FDF76DF901A8029068460390AD
:10DEC00001210182002141820121818208480690BE
:10DED000A08823461E3302AA08A9A2DF0FB030BDD6
:10DEE00066616E5F6E67745F696F6E5F636D64001D
:10DEF0004921002030B58FB004460D461C2108A8EA
:10DF0000FDF747F908A8007810218843411808A8B0
:10DF10000170007802218843811C08A80170142137
:10DF200068460185132141853BA0099000200B9094
:10DF30000C900D900E9000BF012168468171FA216E
:10DF4000C943818000BF0020079000BF6846007F62
:10DF500001090901491C68460177007FF0218843C7
:10DF600010306946087700BF00BF6846407F01094E
:10DF70000901491C68464177407FF02188431030F1
:10DF80006946487700BF887F06218843801C694620
:10DF900088770020009000BF6846007801090901D9
:10DFA000491C684601700078F021884310306946AA
:10DFB000087000BF6846807806218843011D6846C6
:10DFC0008170807808218843014668468170807896
:10DFD00010218843014668468170807841084900D5
:10DFE000491C68468170142102A8FDF7D2F801A8E7
:10DFF00002906846039001210182002141820121A3
:10E0000081820A480690A0882346263302AA08A9DE
:10E01000A2DF0FB030BD000066616E5F6E67745F97
:10E02000696F6E5F73746174757300004D21002019
:10E030001FB504466068002801D1012000E00020DF
:10E04000039020780300FDF779FB068A0405345617
:10E05000838A00BFA08900F061FA002804D1E0891A
:10E0600004F06CFD002823D0A08900F051FA694625
:10E070004880E08904F05CFD694608712078012839
:10E0800007D16068002800D100E0032069460870CD
:10E0900007E06068002801D1012000E00420694603
:10E0A000087060680390A0680290684603F082FAE6
:10E0B00056E0A08900F032FA002804D1E08904F08B
:10E0C0003DFD002816D0A08900F022FA694648805C
:10E0D000E08904F02DFD694608716068002801D1CF
:10E0E000022000E0052069460870A068029068469A
:10E0F00003F060FA34E0A08900F010FA002826D07E
:10E10000E089002823D1A08900F002FA69464880FE
:10E11000E08904F00DFD014668460171FF2101719F
:10E120006068002806D1062069460870488803F018
:10E1300063FC02E007206946087000200E49087061
:10E140000E49087003F0A6FB684603F033FA07E0B7
:10E15000082069460870684603F02CFA00E000BF0A
:10E1600000BF05480078002804D00020024908704C
:10E1700003F090FB1FBD00008D2000208E200020AA
:10E1800010B588B00446022000F0F0F9002802D152
:10E19000022008B010BD0C48844201D10420F8E7E9
:10E1A0000521684601710121017201A8C480002285
:10E1B000114602F015FD002803D004F00FFB0020EB
:10E1C000E7E70820E5E70000FFFF000000B587B0A3
:10E1D000022000F0CBF9002802D1022007B000BDD8
:10E1E00006206946087000221146684602F0F8FCD5
:10E1F00000280AD006480078002802D001200449EF
:10E20000087304F0EBFA0020E8E70820E6E70000D6
:10E21000B02A002010B58CB0142107A8FCF7B9FF74
:10E22000022000F0A3F9002805D007A8FFF7EAFCB8
:10E2300000200CB010BD012000F098F9002801D09A
:10E240000020F6E7012000F09DF900F075FA0120AA
:10E250006946087002F0CEFD04462300FDF76EFA11
:10E260000C0715081628230A24281A1F1B2800BF8C
:10E270000B20DEE7022000F085F9012000F05CF9B8
:10E2800007A8FFF7BFFC0020D3E700BF00206946C6
:10E2900008710EE000BF03206946087109E0022002
:10E2A0006946087105E000BF01206946087100E079
:10E2B00000BF00BF00221146684602F091FC04F046
:10E2C0008DFA0020B5E7000038B50446002C01D1D6
:10E2D000052038BD6946204604F032FB00281DD0D9
:10E2E0006846008800010F4940188089002813DD26
:10E2F000A07A002810D06846008800014018808964
:10E30000401E81B2684600880001064A801881815B
:10E310000020A072002502E0062500E00A2528461C
:10E32000D7E70000902A00207FB514461D462B46F3
:10E33000224601A9684604F09DFA04B070BD37B5C5
:10E340000C4615462B4622466946002004F092FAF8
:10E350003EBD37B50C4615462B4622460021684681
:10E3600004F088FA3EBD0246002A01D0002901D1FE
:10E3700005207047106808600020FAE738B50446A9
:10E380000D46002C01D0002D01D1052038BD694675
:10E39000204604F0D5FA002816D061686846008847
:10E3A00000010A4A80188089401C82B268460088B1
:10E3B0000001064BC0188281296060680C306860DB
:10E3C0000120A0720020E1E70A20DFE7902A002068
:10E3D00070B504460D46002C01D1052070BD032305
:10E3E00000222946204606F0ADFAF7E770B504464C
:10E3F0000D46022300222946204606F0A3FA70BDEE
:10E4000070B505460E461446002C01D1052070BD9E
:10E41000022322463146284606F094FAF7E7000028
:10E420000146094A1278082A01D10C200AE0064A5E
:10E4300012789200054B9950034A1278521C024BF5
:10E440001A7000207047000015210020B02900201C
:10E45000F8B504460D46022000F088F8002801D1E6
:10E460000220F8BD002C01D10520FAE769462846B4
:10E4700006F060FB0646002E03D168460088208027
:10E4800065803046EDE7000070B50446022000F0DC
:10E490006DF8002801D1022070BD002C01D10520AB
:10E4A000FAE72088022801DD0420F5E72088000132
:10E4B0000949461871896088C01C081A08D4218847
:10E4C000608806F029FB002020806080002500E0A5
:10E4D00004252846E0E70000902A00203EB50446C7
:10E4E0000A4B6A460021A01D04F0C4F90546002D20
:10E4F00006D1064A9188019804F094FA054603E093
:10E50000024800210160416028463EBD24210020D0
:10E51000014603208003081A80B270470146032099
:10E520008003814204DB0348814201DC0120704703
:10E530000020FCE7FEFF0000024909788143014A00
:10E54000117070471421002010B504462078182857
:10E5500002D1FEF7AFF8207010BD10B50446207848
:10E56000182802D1FEF7A6F8207010BD0146044815
:10E5700000780840002801D0012070470020FCE707
:10E5800014210020024909780143014A11707047A3
:10E590001421002030B504461088C01C984201D9CF
:10E5A0000C2030BD0220158848551088401C108072
:10E5B0000120158848551088401C108015884C553E
:10E5C0001088401C10800020EBE70000F8B50646DC
:10E5D0000C461546002700200090862C03D0112CF5
:10E5E00001D0002C37D1862C03D1002000900127C8
:10E5F0000AE0112C03D101200090002704E0002C38
:10E6000002D1002000900027002D18D03A46124871
:10E6100001783046FEF784F8104801783046009AB9
:10E62000FEF77EF800220E4801783046FEF778F8B3
:10E6300000220C4801783046FEF772F80BE03A46AB
:10E64000074801783046FEF76BF8064801783046F7
:10E65000009AFEF765F8F8BDCD200020CC20002000
:10E66000C9200020C820002008B5684600F0C6F880
:10E670000098002801D0012008BD0020FCE7000020
:10E68000F8B505460C4616461F461F480078C007D9
:10E69000C00F002801D10120F8BD2846FEF730FE4A
:10E6A000002801D10220F7E7002C01D10320F3E775
:10E6B000A005800D002801D00620EDE72868A042C3
:10E6C00004D8B00200196968884201D90520E3E73F
:10E6D000002E01D10420DFE7684603F0C1FF0028C7
:10E6E00001D10720D8E70098476000980560022014
:10E6F00000990872A001000C009988810098068298
:10E7000004F07AF80020C7E72E21002070B50546F6
:10E710000C46204603F0D6FF70BD00000548416955
:10E72000481C002801D008467047012000074069B6
:10E730008002F9E700100010FEB52D482D49401A5F
:10E7400004092B48401A0509FFF7E8FF02902A4800
:10E750000078C007C00F002801D00020FEBD0020B7
:10E760000AE00201234BD1180A68002A03D04A6844
:10E77000002A00D06D1E401CA042F2D300202CE0E5
:10E7800002011C4BD11800220192C2B20092002259
:10E7900013E01601174FF3191E68002E03D05E68B0
:10E7A000002E00D008E05F7B019EB74203DD5E7B58
:10E7B0000196D6B2009600BF521CA242E9D3009A3D
:10E7C00012010C4BD118029A4A600A7B9302029AFA
:10E7D000D21A0A600A680292401CA842D0D30648A6
:10E7E000007801210843044908700020B6E70000C2
:10E7F00064210020542100202E2100200146002900
:10E8000001D1032070470248406E08600020F9E7FC
:10E81000CC2A0020F8B505460C4616461F4623486C
:10E820000078C007C00F002801D10120F8BD28469C
:10E83000FEF766FD002801D10220F7E7002E01D087
:10E84000002C01D10320F1E7B007800F002803D18D
:10E85000A007800F002801D00620E7E72868A04223
:10E8600004D8B90009196868884201D20520DDE79B
:10E87000002F01D10420D9E7684603F0F1FE0028FB
:10E8800001D10720D2E700990698486000980560FA
:10E890000120009908720098C660009804610098F1
:10E8A000878203F0A9FF0020C0E700002E2100208E
:10E8B00070B504461848006E18214843164945189B
:10E8C000164800780221084000280DD0022C02D002
:10E8D000032C08D103E0284602F0F2F803E02846B2
:10E8E00002F0D8F800BF14E00C480078042108407A
:10E8F00000280ED009480078884308490870064867
:10E90000406E002805D008460078022108430349DC
:10E91000087003F02BFF70BDCC2A00202E210020B0
:10E920003EB500BF6846007801090901491C009105
:10E9300068460078F02188431030009000BF0F2215
:10E9400014A168467CDF044600BF2546002D04D094
:10E9500000BF2846FDF79CF900BF00BF00200190D2
:10E960000290502168468180A021C1800021018150
:10E97000FF219131418101A87ADF044600BF25467D
:10E98000002D04D000BF2846FDF782F900BF00BF6C
:10E990003EBD00004E6F726469635F54656D706CBC
:10E9A0006174650070B50546002D01D0012070BD71
:10E9B0001848007B002803D000201649087301E0A6
:10E9C00000F0D8F8134800780300FCF7B7FE081DE4
:10E9D00005090D111D15191D00F03CF8044615E040
:10E9E00000F0B4F8044611E000F090F804460DE0A1
:10E9F00000F044F8044609E000F020F9044605E080
:10EA000000F02CF9044601E00F2400BF00BF2046AF
:10EA1000CDE70000B02A00200C480089401C0B49BB
:10EA2000088100204880087300BF0CE00101084AFB
:10EA3000515C002901D1012200E0002203490A3182
:10EA40000A54411C88B20228F0DB7047B02A00202B
:10EA5000902A002010B5074800F032F8002806D1AF
:10EA60000449891E087048804860034810BD00F0C2
:10EA70006DF8FBE7B22A00201D1D000070B50D489F
:10EA8000458828010C494018808900280DD12801AB
:10EA90000A4680180023012241680848FFF7F0FD6C
:10EAA000044604200349087002E000F08FF8044691
:10EAB000204670BDB02A0020902A0020542100205A
:10EAC00010B501460022002016E00E4B1B5C002B07
:10EAD00010D000240B4B1C5403010B4C1B199B89B9
:10EAE000002B07D103011B199B7B012B02D108804E
:10EAF000012203E0431C98B20228E6DB00BF104667
:10EB000010BD0000BA2A0020902A0020F8B50C4859
:10EB100044680C4800680B4989888900451860885A
:10EB2000C01C86B2032006490870002000900846E9
:10EB30003346294642680448FFF76CFEF8BD0000E2
:10EB4000B02A00201C2100205421002010B50849C3
:10EB50004888091D03F034FF002803D0FFF7D6FFD3
:10EB6000044602E0FFF78AFF0446204610BD00007D
:10EB7000B02A002010B5144800780300FCF7DEFD31
:10EB8000080520200B1117181C20FFF745FF012056
:10EB90000D49087015E000F06DF802200A49087070
:10EBA0000FE000F029F806200749087009E000BFCF
:10EBB00007200549087004E001200349087000E0BF
:10EBC00000BF00BF10BD0000B02A002010B5052016
:10EBD0000649087002200649888008460023012261
:10EBE00001680448FFF74CFD10BD0000B02A00206A
:10EBF0001C210020542100200D4908680D49498836
:10EC000009010D4A89184968094A1160094949886A
:10EC10000901094A8918486005498988054A5288C6
:10EC20001201054BD21811810221014A91807047CF
:10EC30001C210020B02A0020902A002010B50620B8
:10EC40000449087049880901034A8918486802F094
:10EC5000AFF810BDB02A0020902A002010B5072080
:10EC6000034908700020486002F0B2F810BD0000AF
:10EC7000B02A0020054A50684288D21C91B2044A4A
:10EC800092885218024B9A8070470000B02A0020E8
:10EC90001C2100203EB504462088502821D052284F
:10ECA00002D0542826D103E0A08801F0EFF821E03B
:10ECB000062168460170A08800F00EFC01466846F7
:10ECC0004180A18881806946488800F051F9A08878
:10ECD00000220C490978FDF723FD6846FEF7C8FFBE
:10ECE00008E0A01DFEF7A0FA002802D0A08801F0DD
:10ECF0001DF900BF00BFFDF7FFF805F04BFA04F067
:10ED0000ADFA3EBD732000203EB5044660886946DA
:10ED100048802078002804D001280FD0022829D16B
:10ED200014E00020694608706846FEF7A1FF60887D
:10ED300000F0ECFA054601F0A9F81BE00121684655
:10ED40000170A1888180FEF793FF13E020790028ED
:10ED50000FD0608800F0DAFA05460748854207D0F0
:10ED60000122064801782846FDF7DAFC04F076FA1D
:10ED700000BF00BF00BF3EBDFFFF000073200020AA
:10ED800010B50446207801280ED1608801F07EF885
:10ED9000608800F0DBF9002805D060880122044972
:10EDA0000978FDF7BDFC00E000BF00BF10BD00000A
:10EDB0007320002010B500F0B3FCFDF77BFC124976
:10EDC0000870FDF777FC11490870FDF773FC1049D6
:10EDD0000870FDF76FFC0F4908700B480078182881
:10EDE0000BD00A480078182807D00948007818285E
:10EDF00003D008460078182801D1032010BD012057
:10EE0000054908700020F9E77120002072200020D9
:10EE100073200020742000207020002010B586B0E0
:10EE200000F0BEF801A8FDF7B5FB002411E0620078
:10EE300002A9885A00F050FB0949884207D16200B4
:10EE400002A9885A012207490978FDF769FC601C6C
:10EE500084B20198A042EAD804F000FA06B010BDCE
:10EE6000FFFF00007320002010B50446207807281B
:10EE700003D1608801F05AF800E000BF00BF10BD68
:10EE800010B504460B4801782046FDF735FC0028F4
:10EE90000DD0002109E00C204843074A8018408823
:10EEA000A04201D1C8B210BD491C0829F3D3FF20EC
:10EEB000F9E7000083200020EC24002010B5002496
:10EEC0000DE00C216143084A8918488807490978F0
:10EED000FDF712FC002801D1E0B210BD641C082C23
:10EEE000EFD3FF20F9E70000EC240020832000206E
:10EEF000F8B505460F460120A840044618480068AA
:10EF0000FCF768FF0646002E00D0F8BD15480068E3
:10EF1000204000281DD1284601F034FB002805D0F0
:10EF20001148006820431049086004E00E4800685A
:10EF3000A0430D4908600B48006820430949086058
:10EF400000220A48016806480068FCF719FF0646D7
:10EF500004E004480068A0430249086000BFD4E709
:10EF6000984C0200E0200020DC200020D820002067
:10EF70001CB50446044903C901910090002269466A
:10EF8000204602F085F91CBDE04B020010B500F0F0
:10EF9000CDFB012001490870002010BD7C2000201D
:10EFA00010B5044802F052F80349088004F08EF9C5
:10EFB00010BD0000FFFF00007E200020F1B584B0EE
:10EFC000049800F089FA05460026002703200190E6
:10EFD000012000901F4885420DD002AA0821284632
:10EFE00002F01CF90446002C05D10398861D878881
:10EFF0000168019100BF00BF3A463146019B049869
:10F00000A9DF0446042C01D1112419E0082C01D1F8
:10F01000002415E00B2C13D1002000900221019850
:10F020000840002802D00120019009E0002E01D103
:10F03000002F04D0002600270320019000E00324C5
:10F040000B2CD9D00098002800D10B24204605B005
:10F05000F0BD0000FFFF0000F1B584B0049800F09F
:10F060003BFA07462248874202D1224805B0F0BD4C
:10F07000012001900020009000BF00200090019826
:10F08000411C89B2024602AB01910821384602F0C8
:10F090000BF90446002C22D1039D032028602A1D71
:10F0A000A91D2B680498AADF0446002C05D108216D
:10F0B000384602F0B9F9044610E00C2C02D10120C8
:10F0C000009002E0052C00D100240821384602F00F
:10F0D0008FF90646002E00D0032400BF02E0072C63
:10F0E00000D10C2400980028C7D100BF2046BDE7FE
:10F0F000FFFF0000023000007FB5044620780128A1
:10F1000017D12079012814D1608802AA012102F0C8
:10F1100085F80546002D0BD10221684601706188F3
:10F1200041800398017868460171FEF7B1FD00BF88
:10F1300000BF044800880449884201D004F0C6F8A2
:10F140007FBD00007E200020FFFF00007CB504464C
:10F15000204600F0C1F906466A460121304602F019
:10F160005DF80546002D01D000207CBD0198007897
:10F17000FBE7000070B505460A4E00BF094A0A4881
:10F1800001882846A7DF04460848844204D106487F
:10F190000088401C0449088004488442EED0204680
:10F1A00070BD0000FFFF0000802000200330000041
:10F1B00001468888044A904204D00888002801D07B
:10F1C000012070470020FCE7FFFF00003EB5044629
:10F1D0000D462078022801D000203EBD0322611C8C
:10F1E00002A8FBF7BDFF0322211D6846FBF7B8FF0D
:10F1F00001AA69462846FCF79DFC032201A902A842
:10F20000FBF7D2FF002801D10120E6E70020E4E768
:10F2100070B506460C463046FFF732FE0546FF2D18
:10F220000AD00C206843054A8018011D0722204699
:10F23000FBF796FF002070BD0520FCE7EC240020C2
:10F2400070B58EB004462088102801D00EB070BD75
:10F250002C22211D03A8FBF783FF2B4D6846007C61
:10F26000032837D002F00EFA6846007C002804D04C
:10F27000012803D002282AD115E000BF0AE0019836
:10F280000146113104A8FCF78FFA002802D0684625
:10F29000058906E06A4602A9072002F0C5F90028A0
:10F2A000EDD100BF14E009E00198411C04A8FFF76C
:10F2B0008DFF002802D06846058906E06A4602A94B
:10F2C000072002F0B1F90028EED100BF00E000BF36
:10F2D00000BF00BF6946888904A900F06FFF064699
:10F2E000094885420DD069468889294600F096F87C
:10F2F00068468189C1800121017101A8FEF7D8FC0F
:10F3000000BF00BFA2E70000FFFF0000024600218F
:10F310000BE00C204843074B185A904204D10C20B4
:10F320004843C01840887047491C0829F1D3024857
:10F33000F9E70000EC240020FFFF000010B500F00A
:10F3400001FAFDF7B7F90A4908700846007818284D
:10F3500001D1032010BD074871DF0446002C01D005
:10F360000320F7E70120044908700020F2E70000BD
:10F37000832000208520002082200020F8B504464C
:10F380000D46601C00F0AEFA002800D1F8BD102236
:10F39000691C601CFBF708FF002801D1012000E078
:10F3A000002007462946113120461130FCF7FCF9B0
:10F3B0000646002F01D1002E01D00120E6E70020F3
:10F3C000E4E702461088002801D0012070470021A0
:10F3D00006E0901C405C002801D00120F6E7491CA3
:10F3E0000829F6D30020F1E770B505460C462846FB
:10F3F000FFF7E7FF002800D170BD288821888842E8
:10F4000001D00020F8E70822A11CA81CFBF7CCFEC5
:10F41000002801D10120EFE70020EDE770B5044698
:10F420000D462946204602F04BFB70BD30B587B033
:10F4300004462078002802D12079072801D007B09F
:10F4400030BD608804AA072101F0E8FE0546002DC2
:10F4500000D0F4E702F016F91BE060886946098BDA
:10F46000884200D115E003990598FFF787FF00282F
:10F470000ED06088FFF74AFF694648800021684641
:10F48000017061888180018BC180FEF711FC07E06B
:10F4900000BF02AA06A9072002F0C6F80028DCD1A6
:10F4A00000BF00BFCBE7000070B506463046FFF74F
:10F4B0002DFF0446304601F0BCFE05460548844257
:10F4C00005D0002D03D10146204602F0F9FA284666
:10F4D00070BD0000FFFF000070B505462846FFF72D
:10F4E000CFFC0446FF2C04D00C2060430249085A8C
:10F4F00070BD0248FCE70000EC240020FFFF000084
:10F500003EB5044602F0BEF812E0019801464631CD
:10F510002046FFF769FF002807D1019801462A31EC
:10F520002046FFF761FF002802D0684600893EBDF3
:10F530006A4602A9072002F077F80028E5D10148C1
:10F54000F5E70000FFFF0000F8B506460C460F2067
:10F550000090002E04D00120FEF7EEFF0120F8BD40
:10F560002079002806D001280AD002282DD00328AF
:10F570005AD138E001F02CFC00900120207154E0B9
:10F580000027002513E028012D49085C02280CD132
:10F5900029012B4A8918486801F00AFC00900020D4
:10F5A0002901274A5054012703E0681C85B2022D27
:10F5B000E9DB00BF002F07D10220FEF7E3FF0120A7
:10F5C000FEF7BAFF1F48CAE72FE01F4800230122B9
:10F5D00001681E48FFF754F8009002201A498880FD
:10F5E0000020207121E01849086801F0E1FB00903B
:10F5F0001748458814480768280111494018406891
:10F600001149086028010E49401847600E4880885B
:10F6100029010B4A8918088102200B4988800020A3
:10F6200029015054207100E000BF00BF009800285D
:10F6300004D00120FEF780FF0E2090E700208EE727
:10F64000902A00201D1D00001C21002054210020B4
:10F65000B02A0020F8B52C480078002800D1F8BD69
:10F6600000252A480068002801D1012000E0002080
:10F67000064600BF002D1ED125480078002800D086
:10F68000EDE7684652DF0446052C01D1012511E063
:10F69000002C04D000BF2046FCF7FAFA0AE00098DC
:10F6A00000F072FE1B480068002803D0194900983A
:10F6B0000968884700BF002E1DD115480078002832
:10F6C00000D0CCE7144800880090694613480068D1
:10F6D00061DF0446052C01D101260BE0002C04D08B
:10F6E00000BF2046FCF7D4FA04E00C480068074944
:10F6F0000968884700BF002D02D0002E00D000E02E
:10F70000B8E700BF00BFAAE7342100204021002055
:10F7100035210020442100203C21002038210020F8
:10F720000020014908707047702000200020034924
:10F730000870401E02490880704700007C200020AD
:10F740007E200020182007490870002007E00022D2
:10F75000D2430C214143044BC9184A80401C08285D
:10F76000F5D3704783200020EC24002010B500243E
:10F7700006E014216143044A881805F0B7F8641CB8
:10F78000082CF6D310BD00006C25002010B50446EF
:10F7900040212046FBF7FDFC10BD00000020C043C7
:10F7A00005490880002005490860182004490870B0
:10F7B0000449087070470000B0200020A8200020F5
:10F7C000B3200020B420002001464888064A128851
:10F7D000904206DB4888044A5288904201DC0120AE
:10F7E00070470020FCE70000542000200C48008CEB
:10F7F000C0B2012812D10A48808C0007000F0028EF
:10F800000CD10748806AF0210840402806D10448FE
:10F81000C06A0840002801D1012070470020FCE7A1
:10F82000C00F00F01948008CC0B201282CD1174835
:10F83000808C0007000F002826D11448806AF02130
:10F840000840002806D11148C06A0840002801D1AC
:10F85000012070470D48806AF0210840102806D129
:10F860000A48C06A0840002801D10120F1E7074892
:10F87000806AF0210840302806D10448C06A084058
:10F88000002801D10120E4E70020E2E7C00F00F0EA
:10F890001348008CC0B201281FD11148808C00078A
:10F8A000000F002819D10E48806AF0210840A028D6
:10F8B00006D10B48C06A0840002801D101207047DA
:10F8C0000748806AF0210840D02806D10448C06A61
:10F8D0000840002801D10120F1E70020EFE70000F7
:10F8E000C00F00F00246002105E0505C002801D066
:10F8F00001207047491C1029F7D30020F9E7014681
:10F900008807800F002801D1012070470020FCE704
:10F9100001460868002801D002680A6070470000AC
:10F9200010B5044605480078C007C00F002803D072
:10F9300003480078FDF79EFA10BD0000102000205B
:10F9400008200020FFB581B007460D461E46002D59
:10F9500006D12B480078002802D1052005B0F0BD63
:10F96000002D06D000213846039A03F099FF044683
:10F9700005E024493846039A03F092FF044600222A
:10F9800021463846FEF722FE002E03D02146384697
:10F99000FEF74CF9112C0ED006DC002C26D0082CDA
:10F9A00027D00D2C26D122E0862C12D01648201804
:10F9B00000281FD11CE02A46144801783846FCF77D
:10F9C000AFFE134801783846039AFCF7A9FE0024DD
:10F9D00012E02A460D4801783846FCF7A1FE0C4893
:10F9E00001783846039AFCF79BFE05E000BF00BF94
:10F9F00000BF01E0032400BF00BF2046AEE70000C7
:10FA0000C2200020BD200020FECFFFFFCB20002021
:10FA1000CA200020F7B582B007460E46002E03D15B
:10FA200038467EDF05B0F0BD3078C007C00F002833
:10FA300001D0012000E0022001903846FFF74CFD84
:10FA4000054619498D4209D001A82B460090314640
:10FA50003846049A00F02AF804461BE03078C007C4
:10FA6000C00F002805D03146384600F09BF8044608
:10FA700010E0314638467EDF044600200090002C1E
:10FA800001D1012000E0002002460123294638462A
:10FA900003F052FB002C04D168460179384603F08C
:10FAA00093FB2046BEE70000FFFF0000FFB587B0D4
:10FAB0000F461E4600250020029005AA0721304669
:10FAC00001F0ACFB0446002C0ED106980546183513
:10FAD00006983430007CC007C00F029002980028BE
:10FAE00002D00698054634350998002816D1002C16
:10FAF00014D1002D12D00298002805D128461230CA
:10FB0000FFF75FFC002809D02A46294612310798E2
:10FB100085DF04460021109801702CE0002C01D0F4
:10FB2000052C28D100243878C007C00F00280DD03C
:10FB300003AB01220721304601F0B6FB0446002C3E
:10FB400004D10721304601F0F7FC0446002C03D114
:10FB5000394607987EDF0446002C0CD0072130463A
:10FB600001F046FC01900198002803D00198052877
:10FB700000D0032400BF00200090109800780028D7
:10FB800001D0012000E000200346002C01D101201B
:10FB900000E0002002463146079803F0CDFA2046E7
:10FBA0000BB0F0BDF3B583B0074601F033FB05465B
:10FBB0001C48854220D001AB01220721284601F0D4
:10FBC00073FB0446002C04D10721284601F0B4FC45
:10FBD0000446002C03D1384604997EDF0446002CED
:10FBE0000BD00721284601F003FC0646002E02D068
:10FBF000052E00D0032400E003240A48854201D0EA
:10FC0000012000E000200090002C01D1012000E044
:10FC10000020024601232946384603F08DFA20468B
:10FC200005B0F0BDFFFF0000F8B507460C461546CD
:10FC3000114801783846FCF75FFD00281AD0384695
:10FC4000FFF74AFC06460D48864212D00C48017860
:10FC50003846FCF751FD002806D02B462246314697
:10FC6000384601F055F904E02A4621463846FDF7AA
:10FC70006DFF00BFF8BD0000B6200020FFFF0000B0
:10FC8000B7200020F0B589B005462846FCF726FDD0
:10FC90000890089803F0B3F800282CD003A8FCF7CC
:10FCA00079FC002423E0620004A9885A2946FCF765
:10FCB00023FD0646002E19D0620004A9885A0F4978
:10FCC0000978FCF719FD0290620004A9885A0C49D2
:10FCD0000978FCF711FD0190620004A9885A0123FC
:10FCE000029A0199FFF72EFE074600BF641C039895
:10FCF000A042D8D800BF09B0F0BD0000CA20002043
:10FD0000CB20002070B504460D46294620467EDFF4
:10FD10000646304670BD000070B51C4804781C488B
:10FD2000066826E019484168182060430D18601CD9
:10FD3000C4B216488078A04200D100242878022856
:10FD400002D0032812D103E0686804F037F80EE00F
:10FD500007E00F490868002101740D4AC16911606C
:10FD600000BF0B4800680028F3D100E000BF00BFCF
:10FD700000BF06484078A042D4D105480068B04290
:10FD800001D0012070BD0020FCE70000E42000202D
:10FD9000EC200020F8B50546374806685BE0002DEA
:10FDA00002D02C46E56929E034494A6809781823CD
:10FDB0005943501831490978491C304A117011468D
:10FDC00009789278914202D100212C4A117044683E
:10FDD0000178012902D1217C002900D03BE0816813
:10FDE0006160C168A1600169E1604169A161244964
:10FDF0000978002901D00021616000BF21496068B5
:10FE00000968401A0002000A1F49884208D21D49A9
:10FE10006068096803F047FFA168401820600FE0A0
:10FE200018486168006803F03EFF0746A068B842C2
:10FE300003D9A068C01B206001E00020206000BF43
:10FE400000206060A060012020740020E061204656
:10FE500003F07EFF00BF002DA1D1084800780749BC
:10FE6000497888429BD104480068B04201D0012003
:10FE7000F8BD0020FCE70000EC200020E42000207A
:10FE800005210020F0200020FFFF7F00FEB5044682
:10FE900000262348844200D1FEBD2046FFF78EF89D
:10FEA0000546002D08D00B2D15D0112D11D01D4861
:10FEB000281800281DD11BE0022168460170204649
:10FEC000FFF70AFB0146684641808480FDF7D0FEBB
:10FED0001DE001261BE00321684601702046FFF764
:10FEE000FBFA0146684641808480FDF7C1FE0EE0C2
:10FEF0000DE00921684601702046FFF7EDFA014642
:10FF00006846418084800295FDF7B2FE00BF00BFC5
:10FF10003246054801782046FCF702FC00BFBBE7EB
:10FF2000FFFF0000FECFFFFF72200020FEB5044659
:10FF300000262046FFF790F80546112D1AD004DC64
:10FF4000002D09D00C2D31D116E0862D21D022486C
:10FF5000281800282AD10CE001216846017084800D
:10FF60002046FFF7B9FA694648806846FDF780FEEB
:10FF70002AE029E0012627E00721684601708480F5
:10FF80002046FFF7A9FA694648806846FDF770FEEB
:10FF90001AE008216846017084802046FFF79CFA29
:10FFA000694648806846FDF763FE0DE00921684612
:10FFB00001702046FFF790FA014668464180848030
:10FFC0000295FDF755FE00BF00BF32460348017899
:10FFD0002046FCF7A5FBFEBDFECFFFFF71200020F1
:10FFE000F8B504460D46002620782840002810D198
:10FFF00000906846FBF70AFF20782840002803D1CC
:020000040002F8
:10000000207828432070012668460078FBF728FFF7
:1000100000BF3046F8BD08B5002400BF2546002DBE
:1000200004D000BF2846FBF733FE00BF00BF03F03B
:100030009DFF6846FDF7CAF8FCF75AFC6846007851
:1000400001F078FDFEF76CFCFBF72CFD03F012FAD3
:10005000FDF7AAFAFBF74EFF0320FCF785F90446EB
:1000600000BF2546002D04D000BF2846FBF710FE38
:1000700000BF00BF00BF02F0A5FAFCE7FFB581B0EA
:1000800005460E461446A888871C2088801CC11986
:100090000498814202D90C2005B0F0BDFE2F01D991
:1000A0000C20F9E7781C218870542088401C20809F
:1000B000FF20218870542088401C208022889119BC
:1000C000288804F05EF8218840182080A88800283D
:1000D0000EDDA868002801D10720DDE7AA88238863
:1000E0009819A968FBF73CF82088A9884018208057
:1000F0000020D1E7FFB583B005460F4614462878A7
:10010000012805D16878002802D1072007B0F0BD8A
:100110002088801C0699884209D82878012808D1AF
:100120002088801C697841180698814201D90C20EA
:10013000ECE721880698401A801E86B20196218835
:10014000891CC81901A97DDF029000BF0298002810
:1001500001D00298DAE700BF2878022806D1684665
:100160008088B04202DC092000900BE0082000905B
:100170002878012805D16878B04202DC68780190BF
:1001800000E0019668468088FE2801D90C20BDE772
:1001900068468088401C218878542088401C208034
:1001A0002188009878542088401C20802188684647
:1001B0008088081820800020A8E7000070B5054658
:1001C0000E46FF24002E26D01448854223D001225B
:1001D000134801782846FCF7A3FA2846FEF750FE9C
:1001E0000446FF2C02D1FEF769FE0446FF2C12D014
:1001F0000C2060430B49401845800021C9430C2066
:100200006043084A11520C2161438918081D0722D6
:100210003146FAF7A5FF204670BD0000FFFF000041
:1002200083200020EC24002070B505460E460B48C4
:10023000854201D1002000E0681C84B209E021461B
:10024000304601F04DFF002801D0204670BD601CF3
:1002500084B2FF2CF3DD0148F8E70000FFFF000047
:1002600030B502460B46D4085207520F0120904089
:100270001D5D284030BD0146012080070818006838
:10028000002801D0012070470020FCE70021012256
:10029000920782181160704701498860704700001A
:1002A00000030040002800D1704700BF00BF00BF1E
:1002B00000BF00BF00BF00BF00BF00BF0749096803
:1002C000074A914200D101E000BF00BF0146013959
:1002D000084600D0EAE700BFE6E700005021002012
:1002E0000024F40010B5002417480078002801D03D
:1002F000852427E000201449886048600861C860B0
:1003000000BF00BF41098900104A8918096801220D
:1003100082401140002901D0012100E00021002984
:1003200003D10321002000F037F800BF03F068FC80
:10033000002804D101200649886100BF00BF0120C8
:1003400001490870204610BD1829002000E100E096
:100350000005004008B5002000906846FBF756FDF8
:1003600008480078002801D1FFF7BCFF0548C068A5
:10037000401C0449C8600120887068460078FBF77B
:100380006FFD08BD1829002010B50446002C01D1CE
:10039000FDF73EF810BD000070B504460D46294635
:1003A0002046FBF7BBF800BFE106C90E01208840DC
:1003B0000549086000BF00BFE106C90E0120884062
:1003C0000249086000BF70BD80E200E000E100E08B
:1003D000F3B581B00D46019801F03CFC00281DD01A
:1003E0000198FCF787FF001F26490E5CB411032C0F
:1003F00009D1019800F074F9002801D0032000E031
:100400000220074605E0012C01D1022000E0032074
:1004100007463946019800F043F931E0019801F0B0
:1004200025FC00282CD00198FCF764FF0446A000AE
:10043000FF30013086B2204613495122120189183B
:1004400082008958012211430F4A51231B01D218FF
:100450008300D15000BF304600F08EF9002D0ED041
:100460000198FCF747FF0090FCF700FF0746002FBC
:1004700004D00121A140084600F092F900BF00BF5E
:10048000FEBD00006C29002000600040F7B584B07C
:1004900004460E4600200390204601F0CDFB0028C4
:1004A00002D00820039063E0F27820460699FCF71A
:1004B000E5FE0546681C002857D0B078002813D008
:1004C00000BF00BF052212071046A20007231B022F
:1004D000C3189A5802239A431146A20007231B020D
:1004E000C318995000BF0BE07778002000903B467E
:1004F000024601460190204600F09DF800BF00BF73
:10050000F078002826D037781B485121090140187F
:10051000A900405819490840174951221201891869
:10052000AA0088501448512109014018A9004158D7
:1005300020021F22120210403A0403231B041A4017
:10054000104301430C48512212018018AA00815027
:1005500000BF0CE0281F0A49085C31788901084374
:1005600042B2281F06490A5401E00420039000BF4C
:10057000039807B0F0BD000000600040FFE0FCFF02
:100580006C29002010B50446204600F0A9F8002888
:1005900001D0012010BD0020FCE7000070B5154817
:1005A0000079002802D00825284670BD002404E008
:1005B000204601F06BFB601CC4B2202CF8DB002449
:1005C00004E02046FCF742FE601CC4B2082CF8DBB5
:1005D00003210620FFF7E0FEFF207D3000F0CCF87D
:1005E0000120C00700F0DCF801210248017100255C
:1005F0002846DAE76C29002003480079002801D05A
:10060000012070470020FCE76C290020F0B500BFF6
:1006100005252D072C4655000D439E003543059EAC
:1006200036023543069E36043543860007273F02CF
:10063000E719BD51F0BDF0B500BF05252D072C46CB
:1006400055000D439E003543059E36023543069EF8
:1006500036043543860007273F02E719BD51F0BD38
:1006600030B50A4600BF05231B071946830007243F
:1006700024020C19E35803242404A343840007250F
:100680002D024D192B518300072424020C19E35825
:1006900014042343840007252D024D192B5130BD2E
:1006A00030B50A4600BF05231B07194683000724FF
:1006B00024020C19E35803242404A34384000725CF
:1006C0002D024D192B518300072424020C19E358E5
:1006D00014042343840007252D024D192B5130BDEE
:1006E000014600BF05200007024600BF0015101894
:1006F0000069C840C007C00F704710B500290DD170
:1007000000BF00BF052212071346012282400524C4
:1007100024021C19E26000BF00BF0DE000BF00BF53
:1007200005221207134601228240052424021C19C7
:10073000A26000BF00BF00BF10BD000078B50B462F
:10074000094C24680094014609E08D006E467459F6
:1007500005252D0265192D691560121D491CC41847
:100760008C42F2D878BD0000504C0200014601488E
:10077000081870470060004010B504462046FFF797
:10078000F5FF0021016010BD10B504462046FFF7BB
:10079000EDFF0068012800D110BD0020FCE700003B
:1007A000014948607047000000630040014609228B
:1007B000D2018A1810680922D2018A181060704785
:1007C00002465058002801D0012070470020FCE765
:1007D0000022425070470322120282189160704733
:1007E000024603200002101840680840002801D08B
:1007F000012070470020FCE701224250704770B58D
:100800000546002D10D0032D11D10220FCF7C2FAAD
:10081000044600BF2646002E04D000BF3046FBF73A
:1008200037FA00BF00BF03E002F0CEFE00E000BFD9
:1008300000BF70BD70B588B00546002428883A28EE
:100840002DD006DC022848D0102816D011286FD1F0
:1008500004E0512850D05528F9D12FE00020FCF7B2
:1008600099FA044600BF2646002E04D000BF304649
:10087000FBF70EFA00BF00BF71E00720FCF78AFA11
:10088000044600BF2646002E04D000BF3046FBF7CA
:10089000FFF900BF00BFA888324908805FE0A88840
:1008A000132176DF044600BF2646002E04D000BF89
:1008B0003046FBF7EDF900BF00BF50E0A8881321D8
:1008C00076DF044600BF2646002E04D000BF304627
:1008D000FBF7DEF900BF00BF41E0A888002167DF19
:1008E000044600BF2646002E04D000BF3046FBF76A
:1008F000CFF900BF00BF32E01022A91D04A8FAF70B
:100900002FFC6846007C002827D004A8007A042821
:1009100007D004A8007A062803D004A8007A052886
:100920001BD16846007C022803D16946087003E0A9
:1009300014E0012069460870FF20833069468880F2
:10094000A888A8DF044600BF2646002E04D000BFBA
:100950003046FBF79DF900BF00BF00E000BF00BFBD
:1009600008B070BD0020002070B50546287800282A
:100970000ED13B210748008876DF044600BF26469B
:10098000002E04D000BF3046FBF782F900BF00BF45
:1009900070BD00000020002010B504460822A118F8
:1009A0000248FAF7DDFBFCF72BFE10BD60200020AB
:1009B00010B50446A088094908800822214618314C
:1009C0000748FAF7CDFB0020064908700648C089A1
:1009D000002801D1FCF714FE10BD00005E200020AD
:1009E000602000205C2000207C2400208A88C287B0
:1009F00070470000817D012902D18188014A118060
:100A0000704700003420002070B505460020C04328
:100A10000A49088000200A4908700A480068FBF764
:100A2000D9F90446002C07D007488069002803D074
:100A3000054881692046884770BD00005E2000207F
:100A40005C200020CC4B02007C2400200022D243FA
:100A5000C287704770B5054600200B490870A8880A
:100A60000A49098888420DD10120FBF77DFC044624
:100A7000002C07D006480068002803D0204604490F
:100A80000968884770BD0000402000203420002005
:100A90003C20002010B5044608480078401CC0B235
:100AA00006490870032807DD002008700821204649
:100AB00002F0A7FB01F0B8FD10BD00002F210020BF
:100AC00070B5044600201B490870207A012802D026
