:020000040001F9
:10B00000583B0020D5B00100EFB00100F1B00100C5
:10B010000000000000000000000000000000000030
:10B02000000000000000000000000000F3B001007C
:10B030000000000000000000F5B00100F7B00100C2
:10B0400091B60100F9B0010051B80100F9B001005A
:10B05000F9B0010000000000C5B20100F9B0010024
:10B06000F9B00100F9B00100F9B00100F9B0010038
:10B07000F9B00100F9B00100F9B00100F9B0010028
:10B08000F9B00100E5B60100F9B00100F9B0010026
:10B09000A9B70100F9B00100B1B70100F9B0010092
:10B0A000F9B00100F9B0010000000000000000004C
:10B0B0000000000000000000000000000000000090
:10B0C0000348854600F0CEF80048004715140200FA
:10B0D000583B00200321094802680A4302600848DF
:10B0E00002680A4302600748804707480047FEE7B6
:10B0F000FEE7FEE7FEE7FEE7FEE70000240500406E
:10B1000054050040EDB70100C1B0010030B50B4659
:10B11000014600202022012409E00D46D5409D4231
:10B1200005D31D469540491B2546954040191546B7
:10B13000521E002DF1DC30BDF0B51FB406460020D4
:10B1400082B005464024019100901BE001992246FF
:10B150000F46304600F075F8049A059B801A994115
:10B1600010D310461946224600F05BF8361A8F417C
:10B170000197224601200021009F00F052F8381864
:10B180004D4100902046641E0028DFDC019B0098A2
:10B190002946324607B0F0BD00487047D875020016
:10B1A00003460B439B0703D009E008C9121F08C0E0
:10B1B000042AFAD203E00B780370401C491C521E8B
:10B1C000F9D27047D2B201E00270401C491EFBD296
:10B1D00070470022F6E710B513460A4604461946A2
:10B1E000FFF7F0FF204610BD421C0178401C0029EB
:10B1F000FBD1801A704730B504460020034600E0BA
:10B200005B1C934203D2E05CCD5C401BF8D030BDA8
:10B2100003460A780270401C491C002AF9D11846DE
:10B22000704710B5202A04DB0146203A91400020E7
:10B2300010BD914020239C1A0346E34019439040DF
:10B2400010BD10B5202A04DB0846203AD04000216A
:10B2500010BD0B46D340D0402024A21A9140084391
:10B26000194610BD064C0125064E05E0E36807CCE3
:10B270002B430C3C98471034B442F7D3FFF724FF1C
:10B28000087A0200287A020030B58C180278401C37
:10B2900013071B0F01D10378401C120906D1027855
:10B2A000401C03E005780D70401C491C5B1EF9D161
:10B2B00001E00B70491C521EFBD1A142E6D30020D5
:10B2C00030BD0000F0B58FB000200E900D90FF2033
:10B2D00001300C900126002416E00C9806F0F2FDD7
:10B2E00000280BD000BF924840683040002805D0AD
:10B2F0000C9806F0DFFD0E9830430E9076000C9807
:10B30000001D80B20C90641C042CE6D3FF207D301D
:10B3100006F0D8FD00280DD0FF207D3006F0CAFDD4
:10B320000121C9070E9808430E900DAA01210020A3
:10B3300006F0A2FD0E980007000F00282CD0012671
:10B34000002427E00E983040002821D000BF794823
:10B35000512109014018A10040581F21090208404D
:10B36000000A074600BF7348512109014018A10097
:10B370004058032109040840000C0B90204603F0BC
:10B38000DFF80546002D02D038460B99A84700BFCC
:10B390007600641C042CD5D30E98C00FC00700287B
:10B3A00076D000200B900A90002505E00020C043D5
:10B3B000A90009AA50506D1C002DF7D000BF002035
:10B3C0000B9000247AE05C48005D0890C02108984A
:10B3D0008843074658480057401C00286DD009A9EB
:10B3E000384606F087F9002867D0C0210898084041
:10B3F00080110790384603F0E7F8059003F0A0F8B5
:10B4000006900698002802D10798032854D107987F
:10B41000032815D10AA803970290039FF908019108
:10B42000039F7907490F039101990298415C012319
:10B43000039A93401943CAB20199425400BF00BF16
:10B4400000BF00BF052109070846B9000722120204
:10B4500082185158032212041140090C05910DA9BC
:10B46000384606F047F904900498002802D0059861
:10B47000022805D0049800281DD1059803281AD168
:10B480000798032810D10598022802D1032001E073
:10B490004BE0022003903846039906F06FFC0B98AE
:10B4A000401CC0B20B9000BF0698002803D038465D
:10B4B000069A0799904700BF00BF641C042C82D3F2
:10B4C0000B9800282CD0012708AA0121002006F0A3
:10B4D000D3FC00250AE0A80008A90858A9000DAA75
:10B4E0005158884201D0002702E06D1C002DF2D097
:10B4F00000BF002F02D000200B9010E000250CE0D0
:10B50000A80008A90858A9000DAA5050A8000AA927
:10B510000858A90009AA50506D1C002DF0D000BF9A
:10B520000B98002800D04AE700BF0FB0F0BD000024
:10B530000063004000600040F0290020C206D20EE7
:10B5400001219140014A11607047000080E200E053
:10B55000C206D20E01219140014A116070470000DD
:10B5600080E100E0C206D20E01219140014A116043
:10B570007047000000E100E0C206D20E01219140B8
:10B58000014A11607047000000E100E0C206D20EDF
:10B5900001219140014A11607047000000E200E083
:10B5A00010B5002819DA1A4A03071B0F083B9B083D
:10B5B0009B00D2588307DC0EFF23A3409A438B07DE
:10B5C0001B0E8407E40EA3401A43114B0407240FFB
:10B5D000083CA408A4001A5118E00E4A03231B02D9
:10B5E000D21883089B00D2588307DC0EFF23A340A8
:10B5F0009A438B071B0E8407E40EA3401A43054BA6
:10B60000032424021B198408A4001A5110BD000051
:10B610001CED00E000E100E010B5002819DA1A4A3C
:10B6200003071B0F083B9B089B00D2588307DC0EC7
:10B63000FF23A3409A438B071B0E8407E40EA3400D
:10B640001A43114B0407240F083CA408A4001A5104
:10B6500018E00E4A03231B02D21883089B00D2581D
:10B660008307DC0EFF23A3409A438B071B0E84073E
:10B67000E40EA3401A43054B032424021B1984083B
:10B68000A4001A5110BD00001CED00E000E100E034
:10B6900010B5FF20013006F038F800280CD0FF204C
:10B6A000013006F03DF8012006F040F801200C4979
:10B6B0004870002003F0ACF8FF20053006F025F8B4
:10B6C00000280BD0FF20053006F02AF8022006F0F3
:10B6D0002DF801200249887003F09AF810BD00008F
:10B6E0009C29002010B50020074908600021064869
:10B6F00041608160C16000200349403908604860B2
:10B700000AF0C2FF10BD00004011014010B500BF9B
:10B7100003480078002801D100F0A4F800BF10BD54
:10B72000E0320020F7B582B0074616460398019034
:10B73000182078431B494018009000984069002861
:10B7400004D0012811D0022826D11EE0009800F074
:10B75000C1F80546B54201D2002405E03446324620
:10B760000199009800F001F918E0009800F0B2F893
:10B770000546B54201D2284600E03046044622463E
:10B780000199009800F0F1F808E03246019900981C
:10B7900000F0AEF8044601E0002400BF00BF2046E0
:10B7A00005B0F0BDF832002010B50AF07DFE10BDE6
:10B7B00070B50C480068002811D00A48006880471E
:10B7C000044600BF2546002D07D000BF064AFF21D2
:10B7D000AC31284600F0E2FD00BF00BF01E005F0FB
:10B7E00031F970BD28210020B079020010B505F0B4
:10B7F00017FA002805D0104810494860C8131049AE
:10B80000886105F0F1F9002802D001200D49886017
:10B8100005F03CFA00280ED00B480068012807D03C
:10B820000A480949086000BF074800680128FBD1A1
:10B83000C0200549486110BDDFFF07C0000500407A
:10B84000006C00400006004000EC064075930000CC
:10B8500010B5024902480AF0FDFF10BDF82900208A
:10B860000020004010B5124C02202061606111A040
:10B87000A0611349E1610121490221620021A16215
:10B880006162E1620BA0A0640E49E16410212165B0
:10B890000021A1656165E1650BA1E01DFFF7B8FC22
:10B8A0000AA12046FFF7B4FC2020A07110BD0000C3
:10B8B000E03200205465726D696E616C000000001A
:10B8C000D0300020D0320020525454005345474716
:10B8D0004552000010B501460A69CB689A4204D867
:10B8E0008C68641EE41AA01801E0D41A601E10BD12
:10B8F000F7B582B00446174600200190E56800BF06
:10B90000206900900098A84203D90098401B461E69
:10B9100004E0A1680098281A401C0E1AA068401B79
:10B92000B04201D9304601E0A068401B0646BE4245
:10B9300001D2304600E03846064661684819324672
:10B940000399FFF72DFC0198801901900398801945
:10B950000390BF1BAD19A068A84200D10025E56087
:10B96000002FCDD1019805B0F0BDF7B582B00446E7
:10B970001546E668A068871BAF4208D96168881938
:10B980002A460399FFF70CFC7019E06010E001975C
:10B9900061688819019A0399FFF702FCE81B01907E
:10B9A000039AD1196068019AFFF7FAFB0198E060E9
:10B9B00005B0F0BD0FB41CB50A46521E01920090AE
:10B9C00007A9064B6A46069800F040F8009A002145
:10B9D00011701CBC08BC04B018470000C1BE0100B7
:10B9E00030B47446641E2578641CAB4204D3635D96
:10B9F0005B00E31830BC18471D46F8E702E008C8B2
:10BA0000121F08C1002AFAD170477047002001E0D8
:10BA100001C1121F002AFBD17047000001462029F6
:10BA200009DA01208840054A1040002801D0012091
:10BA300070470020FCE70120FAE70000FC06FFBC8D
:10BA400000BFEFF31081084672B67047FFB591B0A2
:10BA50000F460546002606E025280AD0149A1399B9
:10BA600090476D1C761C28780028F5D1304615B01B
:10BA7000F0BD002400940121F34A029400E0044345
:10BA80006D1C2B780846203B98401042F7D128784F
:10BA90002A280ED0022128780246303A092A15D8E1
:10BAA000009A0A235A43303A80180C436D1C0090C8
:10BAB000F1E701CF0090002805DA0120400304439C
:10BAC000009840420090022004436D1C28782E28E4
:10BAD00015D10420044368786D1C2A280AD101CFAF
:10BAE0006D1C02900BE002990A2251433039401834
:10BAF0006D1C02902878014630390929F3D928783D
:10BB00006C2810D006DC4C281AD068280ED06A2881
:10BB100017D104E0742813D07A2812D110E0012044
:10BB2000400504430CE00121090501E0032109055A
:10BB30000C436978814203D10120000524186D1C53
:10BB40006D1C287803906E281ED00CDC632831D041
:10BB500004DC00288AD0582811D1B2E064287BD0B8
:10BB600069280CD178E073282DD004DC6F2870D0C0
:10BB7000702804D1A7E075286CD078286BD0149A6F
:10BB800013999047761C62E06002400F022807D0AC
:10BB900003280AD0042838680AD006603F1D56E002
:10BBA0003868F11706604160F8E738680680F5E705
:10BBB0000670F3E73878694608740020487404A8D2
:10BBC0000390012003E0386803900020C0433F1D2C
:10BBD00061070FD5002101E00199491C029A0191EA
:10BBE000914213DA8142F7DB019A0399895C0029BB
:10BBF000F2D10BE0002101E00199491C0191814241
:10BC0000FADB019A0399895C0029F5D10199009822
:10BC1000139A401A00902146149B00F03BF90199B9
:10BC20008019461807E0039803990078491C03918E
:10BC3000149A139990470198401E0190401CF2D12C
:10BC40002146149B139A009800F014F986196D1C74
:10BC500009E741E033E034E00A2000210490059137
:10BC60006002410F022905D001CFC2179446032973
:10BC700005D007E0FF1DFF08FF0003CF06E000B27C
:10BC8000C2179446042902D140B2C1178C46002243
:10BC90006146944506DA0A460021404291418C46AD
:10BCA0002D2102E0210504D52B216A4611760121C0
:10BCB00003E0E10701D02021F7E7019154E00A20D9
:10BCC0000BE0102009E01020049000210420044320
:10BCD00008200591029003E00820002105910490BE
:10BCE0006002410F022905D001CF002294460329AA
:10BCF00006D006E0FF1DFF08FF0003CF8C4603E0DF
:10BD000080B2042900D1C0B20021019121072BD5B6
:10BD10000399702906D0049A1021059B4A401A43C2
:10BD200005D00EE040216A461176012108E0614607
:10BD3000014306D030216A461176039951760221DB
:10BD40000191049A0821059B4A401A430CD161468F
:10BD5000014301D1610707D530216A4611760121DF
:10BD600001910299491E02910399582904D037A1E3
:10BD700003910FA90F910DE039A1F9E76146059BE9
:10BD8000049AFFF7D9F9039B8C469B5C0F9A521ECD
:10BD90000F92137061460143F0D10F9807A9081A5A
:10BDA00020300390600704D50120000484430298EA
:10BDB00001E0012002900399884201DD401A00E071
:10BDC000002041180290019809180098401A00902C
:10BDD000E00306D42146149B139A009800F05AF809
:10BDE00086190020049008E006A9085C149A1399AB
:10BDF00090470498401C761C049001998842F3DB1C
:10BE0000E0030CD52146149B139A009800F042F8E9
:10BE1000861904E0149A302013999047761C0299F1
:10BE2000481E02900029F5DC08E00F980F99007871
:10BE3000491C0F91149A13999047761C0399481E38
:10BE400003900029F1DCFBE6092801003031323390
:10BE50003435363738396162636465660000000046
:10BE60003031323334353637383941424344454630
:10BE700000000000F8B5044600251E461746880459
:10BE800004D405E039462020B0476D1C641EF9D566
:10BE90002846F8BDFFB50446002581B01E46C803FC
:10BEA00001D5302700E02027880404D505E0384676
:10BEB0000399B0476D1C641EF9D5284605B0F0BD46
:10BEC0004A68002A06D00A68531C0B601070486844
:10BED000401E4860704770B505460C46002D01D0E5
:10BEE000002C01D1002070BD28782178884201D033
:10BEF0000020F8E70622611C681CFFF77CF9002887
:10BF000001D10120EFE70020EDE70246002105E026
:10BF1000505C002801D001207047491C0629F7D346
:10BF20000020F9E710B50446002C0ED00848006840
:10BF3000A0420AD806484068A04206D3204604F032
:10BF4000DCFE002801D0012010BD0020FCE700002D
:10BF500098210020F7B582B00446164600253788A0
:10BF6000002030802D20005D00280CD03A4631465C
:10BF7000039800F0D5FF054600BF002D02D02846EB
:10BF800005B0F0BD00BFA07800280BD03A4631467E
:10BF9000039800F00BFB054600BF002D01D028469A
:10BFA000EEE700BFE07800280DD0E17848B23B46CC
:10BFB0003246039903F0D8FC054600BF002D01D09E
:10BFC0002846DDE700BF606800280ED000206168C9
:10BFD00008563B46324603990AF018FC054600BF56
:10BFE000002D01D02846CBE700BF208900280FDDB7
:10BFF000019700960622022120460830039B0AF092
:10C00000A3FD054600BF002D01D02846B8E700BFBC
:10C01000208A00280FDD0197009607220321204681
:10C020001030039B0AF090FD054600BF002D01D0A3
:10C030002846A5E700BF208B00280FDD019700965A
:10C040001522142120461830039B0AF07DFD054679
:10C0500000BF002D01D0284692E700BF206A0028CB
:10C060000CD03B463246206A039902F05FFC05463D
:10C0700000BF002D01D0284682E700BF606A00287B
:10C080000CD03B463246606A039905F041FA0546FA
:10C0900000BF002D01D0284672E700BF2C20005DB4
:10C0A00000280CDD3B4632462046039909F068FC27
:10C0B000054600BF002D01D0284661E700BF20786B
:10C0C00000280CD03B4632462046039905F05CFA26
:10C0D000054600BF002D01D0284651E700BF284685
:10C0E0004EE7000070B504461748FFF70EFF0546FF
:10C0F000012C06D0022C0DD0032C14D0042C20D1FE
:10C1000018E012484078002803D0002D01D001200B
:10C1100070BD00BF0D488078002803D0002D01D0ED
:10C120000220F5E700BF0948C078002801D00320AD
:10C13000EEE700BF05480079002801D00420E7E7BA
:10C1400000BF0020E4E7000011200020542300205D
:10C150000146C87804221040002801D1072070470A
:10C160000020FCE730B599B03C210AA8FFF731F870
:10C17000022108A80172012181720621C1720121E8
:10C180006846018712490F91202102A8FFF721F884
:10C1900001216846C17296200690B42007900020C5
:10C1A0000C4B02AA014600900AA800F061FB04466D
:10C1B00000BF2546002D07D000BF07A2CB21890074
:10C1C000284600F0EBF800BF00BF19B030BD0000FA
:10C1D000EA1F0020F52802002E2E5C2E2E5C2E2E4B
:10C1E0005C6D61696E2E630070B5032000F088FC01
:10C1F000044600BF2546002D06D000BF03A2074914
:10C20000284600F0CBF800BF00BF70BD2E2E5C2E7C
:10C210002E5C2E2E5C6D61696E2E6300570300004C
:10C2200070B58CB004460D461646002005E00F217F
:10C23000091A615C6A461154401C1028F7D30D217D
:10C2400004A8FEF7C6FF002005E02A5C0F210B1AA8
:10C2500004A9CA54401C0328F7D368464DDF0020C8
:10C2600005E00F210A1A08A9895C3154401C0328F3
:10C27000F7D30CB070BD10B50446022001F0D2F81F
:10C2800010BD000010B5002407E0E100064A126866
:10C29000505C012105F0ECFA641C044800788442EB
:10C2A000F3D3002010BD0000B8200020BC200020E7
:10C2B000FEB506460C461746052F01D20720FEBDE7
:10C2C00005F0EAFB002808D105F0B8FB054600BFE1
:10C2D000002D01D02846F2E700BF17480660174836
:10C2E0000470174807600020164908601649086066
:10C2F00017E0E00080190190144800680090019850
:10C3000080786946487001990878114A694605F0B5
:10C310000DFB054600BF002D01D02846CFE700BF2A
:10C3200000BF2046611ECCB20028E2D1094A00219C
:10C33000094800F043F8C2E7B8200020BC200020E4
:10C34000C0200020C4200020C8200020F07402007B
:10C35000E102020071EB0100EC740200FEB506463A
:10C360000F46144625460A49032006F0B1F82988ED
:10C37000AA6868683B4600920191029032460549DE
:10C38000032006F0E9F90449032006F0A1F8FEBDF8
:10C390002C760200D0760200DC750200FEB5044661
:10C3A0000E46154669460E80019502946A460021A4
:10C3B0000148FFF7D3FFFEBD0140000010B5034662
:10C3C0000C4600BF0D484068002801D1082010BD70
:10C3D00000BF002A01D10720F9E7002B01D1072077
:10C3E000F5E71868007C002801D00820EFE71968FD
:10C3F000002008744C744A6100BFE8E7CC2000209C
:10C40000F8B507460D4614461E4620468107890F9B
:10C41000002901D1012100E00021002901D10720DC
:10C42000F8BD002C01D10720FAE708F0BBFE114847
:10C430000660002010490870487008468570446006
:10C4400000200E4908600E4908700E49087014203B
:10C45000FFF774F803211420FFF7DEF81420FFF72C
:10C4600081F8384608F074FE08F06CFE0649086052
:10C470000020D5E7E8200020CC200020D420002098
:10C48000E4200020E5200020D8200020F8B5044654
:10C490000E461746254600BF10484068002801D1C7
:10C4A0000820F8BD00BF002C01D10820F9E7052EB7
:10C4B00001D20720F5E76869002801D10820F0E7DC
:10C4C000687C012801D1304600E0002000903B4606
:10C4D00031462846009A0AF087F8E2E7CC2000208F
:10C4E00070B50446254600BF0A484068002801D1BF
:10C4F000082070BD00BF002C02D06869002801D15F
:10C500000820F6E700202874022128460AF09AF84D
:10C51000EFE70000CC20002070B5044600BFFFF715
:10C520008FFA05460E48406800280ED101200C49BC
:10C5300048600C4800680C490840094908600A48EE
:10C54000084908600020207001E001202070002DC3
:10C5500003D100BF62B600BF00BF00BF70BD0000C6
:10C56000F020002080E100E0FC06FFBC70B504462E
:10C5700025460C484068002812D0002D10D1FFF746
:10C580005FFA064607480068074908600020054929
:10C590004860002E03D100BF62B600BF00BF00BFDD
:10C5A00000BF70BDF020002000E100E0F8B50546B6
:10C5B0000C4617462088001DB84201D90C20F8BD52
:10C5C000684679DF064600BF002E01D03046F6E708
:10C5D00000BF0320218868542088401C2080192037
:10C5E000218868542088401C208020884119684692
:10C5F00000880AF0E1F92188401820800020DEE759
:10C60000704770B505460C462068401C002805D0D0
:10C61000206805F0EDFB206805F0A4FB6068401C75
:10C62000002803D00021606805F083FB2868A16919
:10C63000052212028218516200BF617D227D2868A6
:10C640000B461343052636028619F36600BF62685F
:10C650002168286806F044F9207D012816D1A068D9
:10C66000401C002803D00021A06805F062FBE068B0
:10C67000401C002805D0E06805F0BAFBE06805F032
:10C6800071FBA268E168286806F008F970BD000037
:10C6900030B58BB01448007800F00CFC05462846F5
:10C6A00008F034FE00281CD001A800F03FFB142243
:10C6B00001A906A8FEF774FD00240EE0620007A998
:10C6C000885A0949097800F003FC002804D0620068
:10C6D00007A9885A04F0D8FD641C0698A042EDD83A
:10C6E00000BF0BB030BD00005A20002010B504463A
:10C6F00063799A07920F2179208804F093FC10BD8A
:10C7000010B504462079002803D1204600F008F82F
:10C7100003E02046FFF7EAFF00BF00BF10BD0000A6
:10C72000F0B589B004460025208800F091FB07464B
:10C73000208804F0C9F80646A0680890607A07903F
:10C74000208800222249097800F0D6FB002F01D171
:10C7500009B0F0BD60794007C00F002811D0072153
:10C76000304606F0C9FF0546002D16D00821684660
:10C7700001712188C1800681039501A802F0A6FC01
:10C780000BE020881349097800F0A2FB002804D0B0
:10C79000304604F081F8039000BF0321684601741D
:10C7A0002188418260794007C10F68460175A079F0
:10C7B0004007C10F04A84171811D08A800780870C6
:10C7C00004A86946097FC17102F080FC00BFBFE781
:10C7D0009E200020A0200020F3B593B00D461F211D
:10C7E000129111911398002818D01398FFF7B0FCFC
:10C7F000044600BF002C02D0204615B0F0BD00BF9B
:10C8000012AA09A91398FFF7A5FB044600BF002C44
:10C8100001D02046F1E700BF09AE02E0002600206B
:10C820001290002D17D0284609F060FD044600BF85
:10C83000002C01D02046E0E700BF11AA01A928463C
:10C84000FFF788FB044600BF002C01D02046D4E748
:10C8500000BF01AF02E000270020119010A88088DF
:10C86000C3B210A80089C1B23A46304672DFC4E7AD
:10C87000F8B504460F4615461E46002C01D0002D83
:10C8800001D10E20F8BD01205749087000205749FA
:10C890000870202229465648FEF782FC554806605B
:10C8A0005549069808600020C04354490880072174
:10C8B0005348FEF78EFC3C215248FEF78AFC207854
:10C8C00050490870A0788870E078C8706078487027
:10C8D000084662692169426101610146E268A06817
:10C8E000CA6088600846E269A169C2618161606AC4
:10C8F00000281BD044484349486244498160606A2B
:10C9000000884049496A0880606A80883D49496AD0
:10C910008880002005E0616A8968095C3B4A1154FF
:10C92000401C3849496A89888142F4D8A06A0028A5
:10C9300024D03749374881603249886234493148C8
:10C94000806A8160A06A80882E49896A8880A06A8E
:10C9500000882C49896A0880002005E0A16A89685E
:10C96000095C2B4A1154401C2649896A89888142F6
:10C97000F4D82C20015D234820300173206A002860
:10C980000BD025481F490862206A4088096A488000
:10C99000206A00881B49096A08806068002802D064
:10C9A000184960684860002008E0C100091A1B4A65
:10C9B00089181B4A12688300D150401C0828F4DBF8
:10C9C000002007E00101174A8A1815498968830089
:10C9D000CA50401C0828F5DB39460A48FFF7FCFE20
:10C9E000009000984EE700000C2000200F2000204F
:10C9F0005423002020200020242000201C20002080
:10CA00001020002074230020B0230020BC2300202D
:10CA1000E8230020DC2300201820002048240020E8
:10CA20002C2000208024002010B5044620881028E7
:10CA300004D0112806D01B280CD107E0204606F0B0
:10CA40002DF908E0204606F059F904E0204606F0EA
:10CA5000C9F900E000BF00BF10BD000070B5054679
:10CA6000022D02D0032D18D100E000BF0C48007841
:10CA7000002811D000200A4908700A48007800F008
:10CA80003FF80446002C07D007480068002803D070
:10CA9000204605490968884700E000BF00BF70BD17
:10CAA0000D2000200F2000202420002010B574DF6E
:10CAB00001200F49087006200E49C87000210D485A
:10CAC000FFF78AFE0446002C01D0204610BD0A481C
:10CAD000007800F015F80446002C07D007480068DD
:10CAE000002803D020460549096888470020EDE763
:10CAF00028200020742300200F2000202420002064
:10CB000030B587B0054651480078002802D108208A
:10CB100007B030BD4E48057002F090FF002804D0E9
:10CB200001204C4908700020F2E707214A48FEF72F
:10CB300050FB4A484078002803D045480078012837
:10CB40000FD046488078002803D04148007801285B
:10CB500007D042488078002812D03D48007802284B
:10CB60000ED13F480068002807D001203D490870D9
:10CB700008203B490968884702E0002039490870CD
:10CB80002846FFF7AFFA3249087035480068002898
:10CB900017D008460078032803D0084600780428F8
:10CBA0000FD12E48007800280BD02F48007800289D
:10CBB00007D101202D4908700720294909688847B5
:10CBC00002E0002029490870182101A8FEF701FBA6
:10CBD00000216846017101731D4800780300FEF7CB
:10CBE000FFFE051804090E131C0001A808F074FFCD
:10CBF000044613E001A808F07FFF04460EE001A8F8
:10CC000008F090FF044609E001A808F0C3FF0446BD
:10CC100004E000201649087000E000BF00BF0C4887
:10CC20000078002806D001A873DF0446002C01D04C
:10CC300020466DE70A480068002804D00C480078B8
:10CC4000074909688847002062E700000C2000209F
:10CC50000F2000200D200020102000205423002051
:10CC6000202000201720002028200020292000203C
:10CC70000E20002070B505461C2229461448FEF7F8
:10CC80008FFA002013490870286800280BD008226A
:10CC900011482968FEF784FA0F487ADF0446002C11
:10CCA00008D0204670BD0C487BDF0446002C01D024
:10CCB0002046F7E70020C0430849088000200849C3
:10CCC0000870084A00210848FFF778FBEAE70000EF
:10CCD00000250020502000203C200020462000207D
:10CCE00044200020396A02002074020010B5044676
:10CCF0002088102806D0112808D012280ED05028DD
:10CD000010D107E0204605F0A7FF0CE0204605F013
:10CD1000CFFF08E0204606F081F804E0204605F049
:10CD20008FFF00E000BF00BF10BD000010B504463B
:10CD30000348027D011D204608F05CFB10BD000089
:10CD40003C25002010B504460348C17D2246001D45
:10CD500008F03AFB10BD00003C25002010B5044649
:10CD60000348017E2246001D08F02EFB10BD000086
:10CD70003C25002070B504462088102804D01128D6
:10CD800020D01A2841D121E008F074F9A08807F0DA
:10CD9000D9FF002806D100BF1DA2E1210420FFF722
:10CDA000FDFA0EE0A07D022801D1012000E0002064
:10CDB0000546A2882B4625490846123808F03DFB57
:10CDC00000BF22E0A08808F077F91EE0207A000971
:10CDD000012801DD012000E000200346A2881B4954
:10CDE000491C0846133808F028FB207A000902285D
:10CDF00001DD012000E000200346A2881349891CC0
:10CE00000846143808F019FB00BF00BF70BD0000D1
:10CE10002E2E5C2E2E5C2E2E5C2E2E5C2E2E5C2E4C
:10CE20002E5C636F6D706F6E656E74735C626C65A3
:10CE30005C636F6D6D6F6E5C626C655F636F6E6E71
:10CE40005F73746174652E6300000000522500203A
:10CE500070B5044600250C48017D2246001D08F0EF
:10CE6000B3FA00280DD00848817D2246001D08F045
:10CE7000ABFA0646002E01D0022000E00120054654
:10CE800000BF284670BD00003C25002010B50024DE
:10CE90000BE0204609F028FE002804D1204609F0C6
:10CEA00019FE204610BD601CC4B2182CF1DB1820FE
:10CEB000F8E7000010B50446204609F015FE0028EA
:10CEC00002D00248005D10BD0020FCE7552500207F
:10CED00070B505460C46204609F006FE002806D02F
:10CEE0000448015D2A46153808F06EFA70BD00202E
:10CEF000FCE700005525002070B505460C46164697
:10CF0000204609F0F1FD002806D0044801193346F7
:10CF10002A46153808F091FA70BD0000552500200A
:10CF2000FEB505460C46174620880930B84201D99F
:10CF30000C20FEBD684671DF064600BF002E01D002
:10CF40003046F6E700BF0820218868542088401C3E
:10CF500020801B20218868542088401C2080218844
:10CF60004819062200A90131FEF71AF92088801D10
:10CF7000208068460078002802D12188685402E0A9
:10CF80000120218868542088401C20800020D0E7A0
:10CF90007FB5044600BF0121684681735D498181E8
:10CFA00000BF5D4A03A90120A0DF0546002D02D085
:10CFB000284604B070BD208800280DDD5748009039
:10CFC000228823463C335648616801F003FB05463E
:10CFD000002D01D02846ECE7208900280EDD5148BD
:10CFE0000090228923463C334D48401FE16801F000
:10CFF000F1FA0546002D01D02846DAE7208A0028FC
:10D000000EDD49480090228A23463C334448001FE5
:10D01000616901F0DFFA0546002D01D02846C8E716
:10D02000208B00280EDD41480090228B23463C33A4
:10D030003B48801EE16901F0CDFA0546002D01D084
:10D040002846B6E7208C00280EDD39480090228C57
:10D0500023463C333248C01E616A01F0BBFA0546E4
:10D06000002D01D02846A4E7208D00280EDD314890
:10D070000090228D23463C332948401EE16A01F08E
:10D08000A9FA0546002D01D0284692E7206B00281A
:10D0900013D001A8216B09F053F9274823463C33EC
:10D0A000082201A900901E48801F01F093FA05464E
:10D0B000002D01D028467CE700BF606B00280FD010
:10D0C0001E480090606B027923463C330168144887
:10D0D000401C01F07FFA0546002D01D0284668E784
:10D0E000A06B002813D001A8A16B07F075FC1448B1
:10D0F00023463C33072201A900900948273001F05C
:10D1000069FA0546002D01D0284652E700BF0020ED
:10D110004FE700000A180000482100204A210020A3
:10D12000292A0000522100205A21002062210020DB
:10D130006A210020722100207A2100208221002013
:10D140008A21002010B504462046FFF713FE204632
:10D1500007F002FA2046FFF7C9FD204605F01CFC47
:10D160002046FFF761FC2146014800F05DF810BD44
:10D17000A8210020F8B505460E463068286000203A
:10D18000C043E88700BF0121684681701121C9436F
:10D19000018000BF2A1D69460120A0DF0446002C43
:10D1A00001D02046F8BD3146284609F063FD04460B
:10D1B000002C01D02046F5E73146284609F0A6FEAE
:10D1C0000446002C01D02046ECE73146284609F001
:10D1D00001FE0446002C01D02046E3E731462846F4
:10D1E00001F0C2FF0446002C01D02046DAE73146A8
:10D1F000284602F069F80446002C01D02046D1E709
:10D200003146284601F03EFD0446002C01D0204660
:10D21000C8E73146284601F0E5FD0446002C01D060
:10D220002046BFE70020BDE770B505460C462088C4
:10D23000102804D011280BD050281BD111E0214612
:10D24000284605F027FD0DA1032005F041F912E065
:10D250002146284605F04EFD12A1032005F038F9BD
:10D2600009E02146284605F003FE19A1032005F038
:10D270002FF900E000BF00BF70BD00001B5B313B19
:10D2800033366D424C455F534C532E633A494E46FC
:10D290004F3A736C7320636F6E6E656374656421BF
:10D2A0000D0A00001B5B313B33366D424C455F532A
:10D2B0004C532E633A494E464F3A736C732064695F
:10D2C00073636F6E6E6563746564210D0A00000000
:10D2D0001B5B313B33366D424C455F534C532E63E1
:10D2E0003A494E464F3A736C73207772697465649D
:10D2F000210D0A0070B50446204609F057FB05468B
:10D30000E807C00F70BD000070B586B02F480068F8
:10D31000059000BF002348222D4905A808F07EFF94
:10D32000054600BF2E46002E06D000BF29A22D497B
:10D330003046FFF733F800BF00BF00BF6A46012147
:10D34000002008F049FF044600BF2546002D07D005
:10D3500000BF20A22349891D2846FFF71FF800BF00
:10D3600000BF684608F0B8FE044600BF2546002D01
:10D3700007D000BF17A21B4910312846FFF70EF84F
:10D3800000BF00BF184808F099FE044600BF2546BC
:10D39000002D07D000BF0FA2124914312846FEF716
:10D3A000FDFF00BF00BF114808F092FF044600BF18
:10D3B0002546002D07D000BF06A20A49183128468D
:10D3C000FEF7ECFF00BF00BF06B070BDE4730200C3
:10D3D000602200202E2E5C2E2E5C2E2E5C6D61694C
:10D3E0006E2E6300A502000045D101002F630200EC
:10D3F00010B501460A4B585C00BF0524240723469C
:10D4000000BF24151C192469C440E407E40F002C54
:10D4100001D0012000E0002002460120504010BD54
:10D42000EB73020010B504460249085D04F0ECFC01
:10D4300010BD0000E873020010B504460249085D03
:10D44000002104F0F8FC10BDE873020010B504469A
:10D450000249085D012104F0EEFC10BDE8730200F2
:10D4600070B504460749085D04F0A8FC002801D007
:10D47000012000E0002005460120684001214840CD
:10D4800070BD0000E873020010B5002404E00549F7
:10D49000085D04F05BFC641C032CF8D300F004F876
:10D4A00010BD0000E873020010B5002403E0204620
:10D4B000FFF7C2FF641C032CF9D310BD10B5002484
:10D4C00003E02046FFF7C2FF641C032CF9D310BD14
:10D4D00002460020C043002106E0054B5B5C9342FE
:10D4E00001D1084602E0491C0329F6D300BF70476A
:10D4F000EB73020010B504460249085D002104F0F8
:10D500009AFC10BDEE73020010B504460249085D96
:10D51000012104F090FC10BDEE73020010B5002450
:10D5200004E00549085D04F011FC641C032CF8D3E9
:10D5300000F004F810BD0000EE73020010B50024E6
:10D5400003E02046FFF7D6FF641C032CF9D310BD7F
:10D5500010B50446204616380300FEF741FA0504CC
:10D5600012202830350001201B4908701B48007824
:10D57000012801D100F0C4FA19A1032004F0A8FF8A
:10D5800027E002201449087024480078012801D1BE
:10D5900000F07EFE22A1032004F09AFF19E0012092
:10D5A0002F4908702FA1032004F092FF11E0022000
:10D5B0002B4908703AA1032004F08AFF09E047A133
:10D5C000032004F085FF04E053A1032004F080FF52
:10D5D00000BF00BF10BD00004421002043210020F7
:10D5E0001B5B313B33366D4253505F42544E5F53A9
:10D5F00057495443482E633A494E464F3A42535096
:10D600005F4556454E545F55565F4C414D505F4403
:10D610004F4F525F4F50454E210D0A0040210020D0
:10D620001B5B313B33366D4253505F42544E5F5368
:10D6300057495443482E633A494E464F3A42535055
:10D640005F4556454E545F55565F4C414D505F44C3
:10D650004F4F525F434C4F5345210D0A00000000CD
:10D66000462100201B5B313B33366D4253505F42F5
:10D67000544E5F5357495443482E633A494E464FE0
:10D680003A4253505F4556454E545F454C45435FC3
:10D690004C4F434B5F4F50454E210D0A0000000098
:10D6A0001B5B313B33366D4253505F42544E5F53E8
:10D6B00057495443482E633A494E464F3A425350D5
:10D6C0005F4556454E545F454C45435F4C4F434B79
:10D6D0005F434C4F5345210D0A0000001B5B313B5B
:10D6E00033366D4253505F42544E5F535749544353
:10D6F000482E633A494E464F3A4253505F4556458D
:10D700004E545F434F494E5F424F585F4745545F09
:10D71000434F494E210D0A001B5B313B33366D42AE
:10D7200053505F42544E5F5357495443482E633A17
:10D73000494E464F3A204552524F52204556454E8B
:10D7400054210D0A0000000070B504460A48046028
:10D750000A4A00210A48FEF731FE0546094A01211E
:10D760000948FEF72BFE002D01D0284670BD00F0C1
:10D77000C1FD05462846F9E70420002059E20100D2
:10D780001874020075E301001C740200F3B581B047
:10D790000746002500243846FFF79AFE0446032C6E
:10D7A00042D20298002825D0012802D002283AD17E
:10D7B00033E06000201822490D5C600020184018FA
:10D7C000407800280ED01F4800680A2250430146C6
:10D7D0001D4A1E480068FEF759FE0646002E01D17C
:10D7E00019480770600020181549401880781849BA
:10D7F000085518E015480068FEF772FE1448005DF1
:10D80000610061180E4A89188978884204D1600045
:10D81000201811464018857805E060002018084956
:10D820004018457800BF00BF002D07D009480068A8
:10D83000002803D02846074909688847FEBD000034
:10D84000E8220020F41F002000200020FC730200CA
:10D8500001200020FC1F002038B505460C460C486E
:10D8600000780090237B62890A49032004F014FFAA
:10D8700007480078012806D100F028FC06A1032003
:10D8800004F026FE03E010A1032004F021FE38BDC1
:10D8900042210020DC7702001B5B313B33366D42B6
:10D8A00053505F42544E5F5357495443482E633A96
:10D8B000494E464F3A6F70656E20656C65635F6CCC
:10D8C0006F636B210D0A00001B5B313B33366D42E9
:10D8D00053505F42544E5F5357495443482E633A66
:10D8E000494E464F3A656C65635F6C6F636B2063AE
:10D8F0006D6420657272210D0A00000038B505467E
:10D900000C46124800780090237B6289104903205E
:10D9100004F0C2FE0D480078012806D100F0A4FCF6
:10D920000CA1032004F0D4FD0EE008480078022882
:10D9300006D100F0D1F814A1032004F0C9FD03E0E2
:10D940001EA1032004F0C4FD38BD000041210020C9
:10D95000387802001B5B313B33366D4253505F42D7
:10D96000544E5F5357495443482E633A494E464FED
:10D970003A6F70656E2066616E5F6E67745F696F87
:10D980006E210D0A000000001B5B313B33366D42F7
:10D9900053505F42544E5F5357495443482E633AA5
:10D9A000494E464F3A636C6F73652066616E5F6ED9
:10D9B00067745F696F6E210D0A0000001B5B313BCD
:10D9C00033366D4253505F42544E5F535749544370
:10D9D000482E633A494E464F3A66616E5F6E6774F1
:10D9E0005F696F6E20636D6420657272210D0A009D
:10D9F00038B505460C46124800780090237B6289B2
:10DA00001049032004F048FE0D480078012806D193
:10DA100000F03EFC0CA1032004F05AFD0EE0084883
:10DA20000078022806D100F06BF813A1032004F05F
:10DA30004FFD03E01CA1032004F04AFD38BD0000A7
:10DA400040210020A47802001B5B313B33366D423D
:10DA500053505F42544E5F5357495443482E633AE4
:10DA6000494E464F3A6F70656E2075765F6C616DFA
:10DA700070210D0A000000001B5B313B33366D4204
:10DA800053505F42544E5F5357495443482E633AB4
:10DA9000494E464F3A636C6F73652075765F6C61D3
:10DAA0006D70210D0A0000001B5B313B33366D4267
:10DAB00053505F42544E5F5357495443482E633A84
:10DAC000494E464F3A75765F6C616D7020636D64A8
:10DAD00020657272210D0A0010B50320FFF70AFDC0
:10DAE0000020FFF7A9FC0220034908700349032026
:10DAF00004F0EEFC10BD0000452100204877020034
:10DB000010B50120FFF7F6FC0120FFF795FC02207D
:10DB10000349087003A1032004F0DAFC10BD0000E3
:10DB2000432100201B5B313B33366D4253505F4233
:10DB3000544E5F5357495443482E633A494E464F1B
:10DB40003A636C6F7365207576206C616D7020612F
:10DB50006E6420696E64696361746F72206C6564C1
:10DB6000210D0A0070B50546042D06D0072D18D0EA
:10DB70000A2D2ED108F046F82FE01321184800880E
:10DB800076DF0446082C0BD000BF2646002E06D0B8
:10DB900000BF14A217493046FEF700FC00BF00BFCB
:10DBA0001BE00F4800881449884211D1FEF77EFF20
:10DBB0000446082C0CD000BF2646002E07D000BF1C
:10DBC00008A20C490A313046FEF7E8FB00BF00BF4F
:10DBD00003E02846FFF7BCFC00BF00BF70BD00009B
:10DBE000E81F00202E2E5C2E2E5C2E2E5C6D6169AF
:10DBF0006E2E6300FF020000FFFF000030B50346F9
:10DC00000020032B24D2012A07D1012903D11C466D
:10DC10000E34E4B200E00024224600290FD001298E
:10DC200002D0022911D104E05C001C19094D2A55CB
:10DC30000DE05C001C19074D6419627007E05C0080
:10DC40001C19044D6419A27001E0072000BF00E018
:10DC5000072030BDE822002070B5044600250648A4
:10DC60000078C007C00F002803D0204600F090F8CD
:10DC70000546284670BD0000F81F0020F7B5054690
:10DC80000E46002438480660384805603849029836
:10DC9000086002202840002848D0002706E0012222
:10DCA00011463846FFF7AAFF04467F1C032F01D216
:10DCB000002CF4D0192201210020FFF79FFF044619
:10DCC000002C05D1182200210846FFF797FF0446D3
:10DCD000002C05D1172201210846FFF78FFF0446CB
:10DCE000002C05D1162200210120FFF787FF0446F2
:10DCF000002C05D11A2201210220FFF77FFF0446E4
:10DD0000002C05D1720803211A48FEF7D1FA044607
:10DD1000002C02D1FEF7B6FA0446002C05D1164AB3
:10DD200000211648FEF74AFB044600BFE807C00F73
:10DD3000002801D0FFF7A8FB002C05D1104A0021D4
:10DD40001048FEF73BFB0446002C05D10E4A01218A
:10DD50000E48FEF733FB044604202840002801D07B
:10DD6000FFF7DCFB2046FEBDF41F0020F81F00205B
:10DD7000FC1F00200074020051E40100FC7302004B
:10DD80001D0D0200F473020077C20100F873020057
:10DD9000F8B5044600250026C7480078002804D0BE
:10DDA0000020C5490870FFF77FFB2300FDF718FE30
:10DDB000180D1213406D9BC7D5DBFAF8F7F6F5F492
:10DDC000F3F2F1F0EFEEEDECEBEAFFF76DFBBB48A1
:10DDD00004706EE100BF0220FFF742FB00280BD069
:10DDE0000220FFF729FB022C02D1E120C00001E054
:10DDF0007D204001064609E00220FFF727FB022CA8
:10DE000001D1C82001E0FF2091300646AB480470E4
:10DE100064213046FDF77AF9A94909684843074665
:10DE200000223946A7480068FEF730FB054640E16E
:10DE30000220FFF715FB00280BD00220FFF7FCFAA9
:10DE4000032C02D11920400101E07D20400106464B
:10DE500009E00220FFF7FAFA032C01D1C82001E003
:10DE6000FF20913006469548047064213046FDF746
:10DE70004DF99349096848430746002239469148BD
:10DE80000068FEF703FB054613E10220FFF7E8FAFE
:10DE900000280BD00220FFF7CFFA042C02D17D20FE
:10DEA000400101E07D20400106460AE00220FFF724
:10DEB000CDFA042C02D1FF20913001E0FF209130F7
:10DEC00006467E48047064213046FDF71FF97C4900
:10DED000096848430746002239467A480068FEF739
:10DEE000D5FA0546E5E00220FFF7BAFA00280AD085
:10DEF0000220FFF7A1FA052C01D1C82001E07D2006
:10DF00004001064609E00220FFF7A0FA052C01D1E6
:10DF1000C82001E0FF209130064668480470642163
:10DF20003046FDF7F3F86649096848430746002282
:10DF3000394664480068FEF7A9FA0546B9E00220B0
:10DF4000FFF770FA5D4804705D48002201685D4883
:10DF50000068FEF79BFA0546ABE00220FFF776FA71
:10DF600056480470A5E00120534908700220FFF7CD
:10DF700059FA53480022016852480068FEF786FAB1
:10DF8000054696E094E08EE08CE080E077E06EE07D
:10DF900068E041E03FE03DE03BE039E033E021E094
:10DFA00011E0FFE70120444908700220FFF73AFA28
:10DFB0004348006882008118002242480068FEF74A
:10DFC00065FA054675E001203B4908700220FFF71D
:10DFD00029FA3B48002201683A480068FEF756FAE1
:10DFE000054666E00120344908700220FFF71AFA5E
:10DFF0003348006882008118002232480068FEF72A
:10E0000045FA054655E0FFF759FA2C48047050E0F0
:10E0100000BF00BF00BF00BF2B480068FEF760FADA
:10E0200005461120061B002E18D0002D16D1012EFA
:10E0300010D9C821714308466421FDF767F82049CB
:10E04000096848430746002239461F480068FEF722
:10E050001DFA05460220FFF7F9F902E00220FFF75A
:10E06000EBF926E0FFF720FA1448047021E0FFF7EF
:10E070001BFA0220FFF7EAF91048047019E0FFF7D5
:10E0800013FA0220FFF7E2F90C48047011E0FFF7E1
:10E090000BFA0220FFF7DAF90220FFF7D7F9074859
:10E0A000047006E000BFFFF709FA0448047000E0BE
:10E0B00000BF00BF2846F8BDF11F0020F01F002060
:10E0C000F41F0020F4730200F8730200F8B524482E
:10E0D000027824A1032004F03DFA30480078022899
:10E0E0002DD11F480078002829DD1D480078401EEA
:10E0F0001B4908700220FFF707FA29480068401CF6
:10E100007D21C9004843074625480068401C484314
:10E110004008002119239B04C51849413A460023B1
:10E120002846FDF709F80446002221461D480068EC
:10E13000FEF7ACF91CA1032004F0CAF90FE003209C
:10E140000749087015480078012804D125A103204B
:10E1500004F0BEF903E032A1032004F0B9F9F8BDE0
:10E16000082000201B5B313B33366D4253505F4229
:10E17000544E5F5357495443482E633A494E464FD5
:10E180003A637572206F70656E2074696D655F7299
:10E19000656D61696E3A256400000000462100202B
:10E1A00004200020187402001B5B313B33366D42A3
:10E1B00053505F42544E5F5357495443482E633A7D
:10E1C000494E464F3A6F70656E20656C65635F6CB3
:10E1D0006F636B2074727920616761696E210D0A2B
:10E1E000000000001B5B313B33366D4253505F42F1
:10E1F000544E5F5357495443482E633A494E464F55
:10E200003A6F70656E20656C65635F6C6F636B2041
:10E21000737563636573736564210D0A0000000004
:10E220001B5B313B33366D4253505F42544E5F535C
:10E2300057495443482E633A494E464F3A6F7065EA
:10E240006E20656C65635F6C6F636B206661696CE3
:10E250006564210D0A00000010B504460220FFF796
:10E2600049F9FFF733FF10BD10B50320FFF74CF954
:10E270000020FFF7EBF80120034908700349032051
:10E2800004F026F910BD000045210020947702001B
:10E2900010B50120FFF738F90120FFF7D7F801206A
:10E2A0000349087003A1032004F012F910BD000017
:10E2B000432100201B5B313B33366D4253505F429C
:10E2C000544E5F5357495443482E633A494E464F84
:10E2D0003A6F70656E207576206C616D7020616E8E
:10E2E0006420696E64696361746F72206C65642177
:10E2F0000D0A000010B50220164908701649087072
:10E30000164908700120FFF773F8002803D0022097
:10E310001349087002E00120114908700020FFF73E
:10E3200067F8002803D002200E49087002E001209F
:10E330000C49087002200C4908700C490870094803
:10E340000378074802780A49032004F04FF90020B7
:10E3500010BD00004021002041210020422100206A
:10E360004421002046210020432100204521002097
:10E37000FC78020010B504460220FFF753F810BDE8
:10E380000246002901DA002003E013685B181360DD
:10E3900001207047F0B585B004460D46641C012786
:10E3A000012003900020029002A8FEF7B5F81F4854
:10E3B000006828601D4800681C494968411A1B48CC
:10E3C0008068401C461AE01901900198B04221D99A
:10E3D000002E1CD016480068009000988005800D23
:10E3E000144909688902890A8902084300900F4884
:10E3F000009A00680D490968491C0C4B19601946C0
:10E4000089680840810018460C30425000BF002047
:10E41000039004E005480068001904490860684654
:10E42000007AFEF7A3F8039805B0F0BDB82C0020E1
:10E43000307502002421002004484068034909681F
:10E44000884201D1012070470020FCE7B82C002051
:10E4500010B5044620780221FFF798F910BD00009E
:10E4600070B50646114A12490320FFF707FC04461F
:10E4700000BF2546002D07D000BF0EA2CF21890086
:10E480002846FDF78BFF00BF00BF0020FFF75CF9B7
:10E49000044600BF2546002D06D000BF05A209494D
:10E4A0002846FDF77BFF00BF00BF70BD65DB0100A4
:10E4B000CD0C00002E2E5C2E2E5C2E2E5C6D616924
:10E4C0006E2E63003F03000030B502460B4602216A
:10E4D0000EE08D0014462C412007000F092802DDB4
:10E4E0000446373401E00446303401256D1A5C558A
:10E4F0000C46491E002CECD130BD00000146887945
:10E50000012808D10879012805D14888034A90429A
:10E5100001D1012070470020FCE700000229000023
:10E520000021C9438200054B9950042804DB0B46A7
:10E53000011F024A4032535470470000B0290020A6
:10E5400001468800014A105870470000B029002099
:10E55000F7B585B00B460020C0430490002A01D0D7
:10E56000002000E004200390002A01D0042000E0F5
:10E570000820029003991EE08800124C2058401C8D
:10E58000002817D10846059C0093019246B20D4D14
:10E5900020352E5585000B4E009B7351019A002AA1
:10E5A00004D166B2051F074F40377E5500BF48B201
:10E5B000049003E0491C02988142DDD300BF049817
:10E5C00008B0F0BDB0290020014601484056704710
:10E5D000D0290020F0B58FB007460D4614461E46E0
:10E5E00000BF002D01D0012000E000200090009825
:10E5F000002805D100BF31A28821FDF7CFFE00BF62
:10E6000000BF00BF002C01DD012000E000200090D1
:10E610000098002805D100BF28A28921FDF7BEFE81
:10E6200000BF00BF1C2107A8FCF7D3FD6946087F87
:10E6300002218843801C69460877002008900A90D0
:10E640000B900C900D9000BF012108A881766846C0
:10E65000078700BF0020019031786846017171780A
:10E660004171807906218843811C684681718079D7
:10E6700008218843014668468171807910218843CA
:10E680000146684681718079410849006846817178
:10E69000142102A8FCF79DFD0EA8029001A803908A
:10E6A00068460482002141828482069502AA07A955
:10E6B00012480088149BA2DF0FB0F0BD2E2E5C2EF6
:10E6C0002E5C2E2E5C2E2E5C2E2E5C2E2E5C636F0E
:10E6D0006D706F6E656E74735C626C655C626C65A8
:10E6E0005F73657276696365735C626C655F6469AC
:10E6F000735C626C655F6469732E6300482100205F
:10E700000146002907D00548884204D804488842B9
:10E7100001D9012070470020FCE70000982100206B
:10E72000A821002070B505460E46002407E0E10050
:10E73000685802F0E2FA002800D170BD641CB442AF
:10E74000F5D30120F9E700000A49496C00290FD0F0
:10E750000849096CC900074A891801601146096C0B
:10E76000491C4907490F11641146496C491E5164FF
:10E7700070470000CC2A0020064902688A4203D074
:10E78000016808310160704702493839016000BFF3
:10E79000F9E70000042B00200178022902D001785B
:10E7A00003290BD106490A6C817D5118044A116472
:10E7B00011464A6C817D511A014A5164704700002C
:10E7C000CC2A0020F8B504460D46104E304684424F
:10E7D0000BD1FF210131284605F072FE0646FF20CD
:10E7E000013086420FD126460DE0FF2C0BDC21467E
:10E7F000284605F054FE0746002F01D0204600E0D1
:10E800000248064600BF3046F8BD0000FFFF00008A
:10E8100070B50546002D01D1094C01E0084C0834C3
:10E820000AE0204602F072FA0646002E00D104E00B
:10E8300028467168884700BFF3E700BF70BD00003D
:10E84000A4290020FEB51F480068002836D01D48C6
:10E850000068056806F076FC01901B4804682146B4
:10E86000019807F0DDFDC61C18480078002801D18A
:10E8700006F07AFCAE4201D2284600E03046041988
:10E880002402240A204606F057FC06F05BFC0090A8
:10E890000199009807F0C4FDC71C2046019907F0B4
:10E8A000BFFD874209D906F04DFC074606F044FC3F
:10E8B0002F2002F041FF07F031FF01E006F072FC6B
:10E8C000FEBD0000D4200020D8200020EC20002035
:10E8D00001460888062808DB08881922D2019042E0
:10E8E00005DD0888104A904201D00720704748880B
:10E8F000062808DB48881922D201904205DD4888A5
:10E90000094A904201D00720F0E70888064A904261
:10E9100008D04888904205D008884A88904201DD96
:10E920000720E3E70020E1E7FFFF0000FFB581B02B
:10E9300006460D4614462088801D0499884202D957
:10E940000C2005B0F0BD3046FFF7C2FF074600BF00
:10E95000002F01D03846F4E700BF05202188685415
:10E960002088401C20801220218868542088401C68
:10E97000208022885119308808F01EF8218840181C
:10E98000208022885119708808F016F821884018D4
:10E9900020800020D5E7000010B5044600BF04A287
:10E9A000FF21BA312046FDF7F9FC00BF10BD000081
:10E9B0002E2E5C2E2E5C2E2E5C6D61696E2E6300F9
:10E9C00030B587B01C216846FCF703FC002000909E
:10E9D0000520C00301900F20000402900321684627
:10E9E00001730021C18101740B4805900B4806900A
:10E9F0006846FEF73FF9044600BF2546002D07D0C4
:10EA000000BF07A2FF21D1312846FDF7C7FC00BF98
:10EA100000BF07B030BD0000FD2B020099E90100E6
:10EA20002E2E5C2E2E5C2E2E5C6D61696E2E630088
:10EA300038B51F4802F0C6F8002829D11D480078D3
:10EA400000280AD01C484069002820D000200090EF
:10EA5000194841696846884719E018480078002835
:10EA600002D11548456801E013488568002229460F
:10EA700013480068FDF70AFD0446002C07D00E4835
:10EA80008069002803D00C488169204688470AE045
:10EA900009484069002806D00120009006484169D5
:10EAA0006846884700BF00200249087038BD000052
:10EAB0004820002050200020002500204420002075
:10EAC000207402003EB504462088FEF73BF900287A
:10EAD0001AD020880F490978FEF7FAF9002805D1E5
:10EAE000208800220C490978FEF706FA218868463A
:10EAF0004180052101702088FEF730F969460871D0
:10EB0000684600F0E3FA04E020880122034900F09F
:10EB100007FA3EBD9F2000209E2000200610000026
:10EB200070B506460D46002E01D0012070BD287933
:10EB3000002804D0012809D0022811D10EE028466F
:10EB400006F06EF90446022028710BE0284600F01A
:10EB5000AFFE04460A2C00D1044C03E0034C01E054
:10EB60000F2400BF00BF2046E0E700001D1D00008D
:10EB7000F8B5002535E0E8001C49096844182178FB
:10EB80000120884006461A4800683040002826D0F8
:10EB900017480068B04316490860207802F042FF29
:10EBA00007462178012088401249096808402278E8
:10EBB00039469140884211D16078012800D100E0A7
:10EBC000002078400121484000906068002804D06F
:10EBD000009BD9B220786268904700BF00BF681CD4
:10EBE000C5B2054800788542C5DBF8BDB8200020D5
:10EBF000C8200020C4200020BC20002070B504469E
:10EC000020793D2801D1054801E011200002054688
:10EC100020880022294602F005FA70BD3D10000050
:10EC2000014614480078144A127890421DD01148C9
:10EC30000078401C0F4A107010460078022801D15D
:10EC4000002010700B48007880000C4A10580860B3
:10EC50000B4A086812688018094A1060104600685C
:10EC60000002000A1060012070470020086000BF09
:10EC7000FAE70000E4200020E5200020DC2000204E
:10EC8000D820002030B58FB004460D461C2108A8BE
:10EC9000FCF79FFA08A8007810218843411808A8BB
:10ECA0000170007802218843811C08A80170007857
:10ECB00008218843411808A801701421684601857D
:10ECC0000E21418542A0099000200B900C900D90E0
:10ECD0000E9000BF012168468171F921C9438180EE
:10ECE00000BF0020079000BF6846007F01090901AE
:10ECF000491C68460177007FF0218843103069463F
:10ED0000087700BF00BF6846407F01090901491C20
:10ED100068464177407FF021884310306946487744
:10ED200000BF887F06218843801C694688770020C1
:10ED3000009000BF6846007801090901491C684637
:10ED400001700078F021884310306946087000BFD8
:10ED500000BF6846407801090901491C68464170B6
:10ED60004078F021884310306946487000BF6846FB
:10ED7000807806218843011D6846817080780821CB
:10ED80008843014668468170807810218843014697
:10ED900068468170807841084900491C6846817046
:10EDA000142102A8FCF715FA01A802906846039006
:10EDB00001210182002141820121818208480690BF
:10EDC000A08823462E3302AA08A9A2DF0FB030BDC7
:10EDD000656C65635F6C6F636B5F636D64000000FF
:10EDE0004221002030B58FB004460D461C2108A8F2
:10EDF000FCF7EFF908A8007810218843411808A80B
:10EE00000170007802218843811C08A80170142138
:10EE100068460185112141853BA0099000200B9097
:10EE20000C900D900E9000BF012168468171F82171
:10EE3000C943818000BF0020079000BF6846007F63
:10EE400001090901491C68460177007FF0218843C8
:10EE500010306946087700BF00BF6846407F01094F
:10EE60000901491C68464177407FF02188431030F2
:10EE70006946487700BF887F06218843801C694621
:10EE800088770020009000BF6846007801090901DA
:10EE9000491C684601700078F021884310306946AB
:10EEA000087000BF6846807806218843011D6846C7
:10EEB0008170807808218843014668468170807897
:10EEC00010218843014668468170807841084900D6
:10EED000491C68468170142102A8FCF77AF901A840
:10EEE00002906846039001210182002141820121A4
:10EEF00081820A480690A0882346363302AA08A9D0
:10EF0000A2DF0FB030BD0000656C65635F6C6F639E
:10EF10006B5F7374617475730000000046210020FC
:10EF2000FEB504460D461646084A07CA6B4607C397
:10EF30006846448085808671002205480178204615
:10EF4000FDF7DAFF684600F0C1F8FEBD94740200D8
:10EF50009E20002010B50446A08928DF10BD00B512
:10EF600002781300FCF73CFD0734050811212A3113
:10EF7000340000220A702CE001220A7003898B8180
:10EF80008388CB81C2688A6023E002220A700389E9
:10EF90008B818388CB81C2688A60027C062A01D17A
:10EFA000012300E000230B7413E003220A70C388DE
:10EFB0008B810389CB81C2688A600AE004220A70CF
:10EFC000C3888B810023CB8103E005220A7000E017
:10EFD00000BF00BF00BD000070B5054600240AE078
:10EFE000A00006490858002804D0A0000A4611587D
:10EFF00028468847641C082CF2D370BD342A0020B0
:10F000003EB505460C46002C1BD0112C19D0002013
:10F010000090019002906846458001940D2C03D128
:10F020000B206946087008E0862C03D10A20694647
:10F03000087002E0092069460870684600F056F83A
:10F0400000BF3EBD70B50546002405E0A000044A9F
:10F05000115828468847641C002CF7D070BD00006A
:10F060005420002070B50546002405E0A000044AA5
:10F07000115828468847641C002CF7D070BD00004A
:10F080006020002070B50546002405E0A000044A79
:10F09000115828468847641C022CF7D370BD000025
:10F0A0003C74020070B50546002405E0A000054A46
:10F0B000115828468847641C034800788442F5DBD1
:10F0C00070BD0000502900209A20002070B5054630
:10F0D000002405E0A000044A115828468847641C13
:10F0E000022CF7D370BD00005C74020070B50546B9
:10F0F000002405E0A000044A115828468847641CF3
:10F10000002CF7D070BD0000A0740200F0B50346DB
:10F11000002420E0134E306806689E4203D906683A
:10F12000F61A06601BE006689B1B06683419002669
:10F1300006600C4E35680B4FC6693E60C668002EEF
:10F1400008D00E193602360A4660C6688660166810
:10F15000C661156000BF034800680028DAD100BF0F
:10F16000F0BD0000D420002030B58FB004460D461D
:10F170001C2108A8FCF72DF808A800781021884366
:10F18000411808A80170007802218843811C08A852
:10F190000170007808218843411808A801701421E3
:10F1A000684601851021418542A0099000200B90FE
:10F1B0000C900D900E9000BF012168468171FB21DB
:10F1C000C943818000BF0020079000BF6846007FD0
:10F1D00001090901491C68460177007FF021884335
:10F1E00010306946087700BF00BF6846407F0109BC
:10F1F0000901491C68464177407FF021884310305F
:10F200006946487700BF887F06218843801C69468D
:10F2100088770020009000BF684600780109090146
:10F22000491C684601700078F02188431030694617
:10F23000087000BF00BF6846407801090901491CF9
:10F24000684641704078F021884310306946487024
:10F2500000BF6846807806218843011D684681709A
:10F2600080780821884301466846817080781021A3
:10F270008843014668468170807841084900491CEE
:10F2800068468170142102A8FBF7A3FF01A8029031
:10F29000684603900121018200214182012181827F
:10F2A00008480690A08823461E3302AA08A9A2DFB8
:10F2B0000FB030BD66616E5F6E67745F696F6E5FC1
:10F2C000636D64004121002030B58FB004460D46C7
:10F2D0001C2108A8FBF77DFF08A8007810218843AF
:10F2E000411808A80170007802218843811C08A8F1
:10F2F0000170142168460185132141853BA00990C6
:10F3000000200B900C900D900E9000BF01216846DC
:10F310008171FA21C943818000BF0020079000BF9E
:10F320006846007F01090901491C68460177007F92
:10F33000F021884310306946087700BF00BF684657
:10F34000407F01090901491C68464177407FF0214F
:10F35000884310306946487700BF887F062188437C
:10F36000801C694688770020009000BF68460078BE
:10F3700001090901491C684601700078F0218843A1
:10F3800010306946087000BF6846807806218843BF
:10F39000011D6846817080780821884301466846CF
:10F3A000817080781021884301466846817080789A
:10F3B00041084900491C68468170142102A8FBF7E6
:10F3C00008FF01A8029068460390012101820021F4
:10F3D0004182012181820A480690A0882346263373
:10F3E00002AA08A9A2DF0FB030BD000066616E5FFF
:10F3F0006E67745F696F6E5F73746174757300001C
:10F40000452100201FB504466068002801D1012075
:10F4100000E00020039020780300FCF7E1FA068A60
:10F4200004053456838A00BFA08900F061FA0028E1
:10F4300004D1E08905F010FE002823D0A08900F057
:10F4400051FA69464880E08905F000FE6946087176
:10F450002078012807D16068002800D100E003204F
:10F460006946087007E06068002801D1012000E0CB
:10F4700004206946087060680390A068029068469E
:10F4800004F000FA56E0A08900F032FA002804D116
:10F49000E08905F0E1FD002816D0A08900F022FAED
:10F4A00069464880E08905F0D1FD694608716068C9
:10F4B000002801D1022000E0052069460870A068FC
:10F4C0000290684604F0DEF934E0A08900F010FAFA
:10F4D000002826D0E089002823D1A08900F002FA74
:10F4E00069464880E08905F0B1FD01466846017132
:10F4F000FF2101716068002806D106206946087066
:10F50000488804F0E1FB02E007206946087000200B
:10F510000E4908700E49087004F024FB684604F098
:10F52000B1F907E0082069460870684604F0AAF9B6
:10F5300000E000BF00BF05480078002804D000208C
:10F540000249087004F00EFB1FBD0000752000206A
:10F550007620002010B588B00446022000F0F0F9B3
:10F56000002802D1022008B010BD0C48844201D10D
:10F570000420F8E70521684601710121017201A804
:10F58000C4800022114603F093FC002803D005F04C
:10F59000A7FB0020E7E70820E5E70000FFFF0000E9
:10F5A00000B587B0022000F0CBF9002802D102207C
:10F5B00007B000BD06206946087000221146684663
:10F5C00003F076FC00280AD006480078002802D014
:10F5D00001200449087305F083FB0020E8E70820B8
:10F5E000E6E70000342B002010B58CB0142107A8EA
:10F5F000FBF7EFFD022000F0A3F9002805D007A8D3
:10F60000FFF7EAFC00200CB010BD012000F098F9D3
:10F61000002801D00020F6E7012000F09DF900F05D
:10F6200075FA01206946087003F04CFD044623007A
:10F63000FCF7D6F90C0715081628230A24281A1FE8
:10F640001B2800BF0B20DEE7022000F085F9012017
:10F6500000F05CF907A8FFF7BFFC0020D3E700BF6C
:10F660000020694608710EE000BF0320694608715A
:10F6700009E002206946087105E000BF01206946E3
:10F68000087100E000BF00BF00221146684603F089
:10F690000FFC05F025FB0020B5E7000038B5044657
:10F6A000002C01D1052038BD6946204605F0D6FB67
:10F6B00000281DD06846008800010F494018808945
:10F6C000002813DDA07A002810D0684600880001C9
:10F6D00040188089401E81B2684600880001064AB1
:10F6E000801881810020A072002502E0062500E03C
:10F6F0000A252846D7E70000142B00207FB51446C2
:10F700001D462B46224601A9684605F041FB04B080
:10F7100070BD37B50C4615462B462246694600207B
:10F7200005F036FB3EBD37B50C4615462B46224646
:10F730000021684605F02CFB3EBD0246002A01D0A0
:10F74000002901D105207047106808600020FAE701
:10F7500038B504460D46002C01D0002D01D10520FE
:10F7600038BD6946204605F079FB002816D061684F
:10F770006846008800010A4A80188089401C82B2CD
:10F78000684600880001064BC018828129606068C5
:10F790000C3068600120A0720020E1E70A20DFE75A
:10F7A000142B002070B504460D46002C01D1052015
:10F7B00070BD032300222946204607F0E7FCF7E747
:10F7C00070B504460D46022300222946204607F064
:10F7D000DDFC70BD70B505460E461446002C01D107
:10F7E000052070BD022322463146284607F0CEFC94
:10F7F000F7E700000146094A1278082A01D10C20D7
:10F800000AE0064A12789200054B9950034A127892
:10F81000521C024B1A70002070470000FD2000208F
:10F82000342A0020F8B504460D46022000F088F87E
:10F83000002801D10220F8BD002C01D10520FAE7F3
:10F840006946284607F09AFD0646002E03D1684611
:10F850000088208065803046EDE7000070B50446E2
:10F86000022000F06DF8002801D1022070BD002CAC
:10F8700001D10520FAE72088022801DD0420F5E700
:10F88000208800010949461871896088C01C081A3F
:10F8900008D42188608807F063FD00202080608004
:10F8A000002500E004252846E0E70000142B002096
:10F8B0003EB504460A4B6A460021A01D05F068FAD1
:10F8C0000546002D06D1064A9188019805F038FBBF
:10F8D000054603E0024800210160416028463EBD24
:10F8E0000C210020014603208003081A80B27047D3
:10F8F000014603208003814204DB0348814201DC8E
:10F90000012070470020FCE7FEFF00000249097853
:10F910008143014A11707047FC20002010B5044655
:10F920002078182802D1FDF7B1FA207010BD10B56B
:10F9300004462078182802D1FDF7A8FA207010BDDF
:10F940000146044800780840002801D00120704793
:10F950000020FCE7FC200020024909780143014A0D
:10F9600011707047FC20002030B504461088C01C80
:10F97000984201D90C2030BD0220158848551088C6
:10F98000401C10800120158848551088401C1080AC
:10F9900015884C551088401C10800020EBE70000B3
:10F9A000F8B506460C461546002700200090862C28
:10F9B00003D0112C01D0002C37D1862C03D100208C
:10F9C000009001270AE0112C03D1012000900027AC
:10F9D00004E0002C02D1002000900027002D18D058
:10F9E0003A46124801783046FDF786FA1048017809
:10F9F0003046009AFDF780FA00220E480178304622
:10FA0000FDF77AFA00220C4801783046FDF774FAC7
:10FA10000BE03A46074801783046FDF76DFA064894
:10FA200001783046009AFDF767FAF8BDB52000204E
:10FA3000B4200020B1200020B020002008B5684686
:10FA400000F0C6F80098002801D0012008BD002071
:10FA5000FCE70000F8B505460C4616461F461F4851
:10FA60000078C007C00F002801D10120F8BD28464A
:10FA7000FEF746FE002801D10220F7E7002C01D155
:10FA80000320F3E7A005800D002801D00620EDE754
:10FA90002868A04204D8B00200196968884201D9D8
:10FAA0000520E3E7002E01D10420DFE7684605F0DA
:10FAB00059F8002801D10720D8E70098476000983E
:10FAC0000560022000990872A001000C009988814D
:10FAD0000098068205F012F90020C7E716210020E1
:10FAE00070B505460C46204605F06EF870BD000066
:10FAF00005484169481C002801D00846704701208C
:10FB0000000740698002F9E700100010FEB52D489B
:10FB10002D49401A04092B48401A0509FFF7E8FF50
:10FB200002902A480078C007C00F002801D00020AA
:10FB3000FEBD00200AE00201234BD1180A68002A0A
:10FB400003D04A68002A00D06D1E401CA042F2D3A8
:10FB500000202CE002011C4BD11800220192C2B2FD
:10FB60000092002213E01601174FF3191E68002EB1
:10FB700003D05E68002E00D008E05F7B019EB74294
:10FB800003DD5E7B0196D6B2009600BF521CA242F6
:10FB9000E9D3009A12010C4BD118029A4A600A7BF1
:10FBA0009302029AD21A0A600A680292401CA84282
:10FBB000D0D306480078012108430449087000208A
:10FBC000B6E70000A821002098210020162100207F
:10FBD0000146002901D1032070470248406E0860A9
:10FBE0000020F9E7502B0020F8B505460C461646D4
:10FBF0001F4623480078C007C00F002801D101200C
:10FC0000F8BD2846FEF77CFD002801D10220F7E769
:10FC1000002E01D0002C01D10320F1E7B007800FA6
:10FC2000002803D1A007800F002801D00620E7E7B5
:10FC30002868A04204D8B90009196868884201D22E
:10FC40000520DDE7002F01D10420D9E7684604F044
:10FC500089FF002801D10720D2E700990698486063
:10FC6000009805600120009908720098C66000980D
:10FC700004610098878205F041F80020C0E7000089
:10FC80001621002070B504461848006E182148431C
:10FC900016494518164800780221084000280DD062
:10FCA000022C02D0032C08D103E0284603F05EF8B2
:10FCB00003E0284603F044F800BF14E00C48007845
:10FCC0000421084000280ED00948007888430849DC
:10FCD00008700648406E002805D0084600780221CA
:10FCE00008430349087004F0C3FF70BD502B002087
:10FCF000162100203EB500BF6846007801090901C1
:10FD0000491C009168460078F0218843103000902B
:10FD100000BF0C2217A168467CDF044600BF2546C1
:10FD2000002D07D000BF17A2FF213E312846FCF767
:10FD300035FB00BF00BF00200190029050216846B3
:10FD40008180A021C18000210181FF219131418169
:10FD500001A87ADF044600BF2546002D07D000BF6A
:10FD600008A2FF214C312846FCF718FB00BF00BF5A
:10FD70003EBD0000534D4152545F4C4F434B4552E2
:10FD8000000000002E2E5C2E2E5C2E2E5C6D616914
:10FD90006E2E630070B50546002D01D0012070BDA8
:10FDA0001848007B002803D000201649087301E0A2
:10FDB00000F0D8F8134800780300FBF711FE081D87
:10FDC00005090D111D15191D00F03CF8044615E03C
:10FDD00000F0B4F8044611E000F090F804460DE09D
:10FDE00000F044F8044609E000F020F9044605E07C
:10FDF00000F02CF9044601E00F2400BF00BF2046AC
:10FE0000CDE70000342B00200C480089401C0B4932
:10FE1000088100204880087300BF0CE00101084AF7
:10FE2000515C002901D1012200E0002203490A317E
:10FE30000A54411C88B20228F0DB7047342B0020A2
:10FE4000142B002010B5074800F032F8002806D126
:10FE50000449891E087048804860034810BD00F0BE
:10FE60006DF8FBE7362B00201D1D000070B50D4816
:10FE7000458828010C494018808900280DD12801A7
:10FE80000A4680180023012241680848FFF7E2FD76
:10FE9000044604200349087002E000F08FF804468D
:10FEA000204670BD342B0020142B00209821002008
:10FEB00010B501460022002016E00E4B1B5C002B03
:10FEC00010D000240B4B1C5403010B4C1B199B89B5
:10FED000002B07D103011B199B7B012B02D108804A
:10FEE000012203E0431C98B20228E6DB00BF104663
:10FEF00010BD00003E2B0020142B0020F8B50C484C
:10FF000044680C4800680B49898889004518608856
:10FF1000C01C86B2032006490870002000900846E5
:10FF20003346294642680448FFF75EFEF8BD0000EC
:10FF3000342B0020042100209821002010B508490E
:10FF40004888091D04F0CAFF002803D0FFF7D6FF38
:10FF5000044602E0FFF78AFF0446204610BD000079
:10FF6000342B002010B5144800780300FBF738FD4F
:10FF7000080520200B1117181C20FFF745FF012052
:10FF80000D49087015E000F06DF802200A4908706C
:10FF90000FE000F029F806200749087009E000BFCB
:10FFA00007200549087004E001200349087000E0BB
:10FFB00000BF00BF10BD0000342B002010B505208D
:10FFC000064908700220064988800846002301225D
:10FFD00001680448FFF73EFD10BD0000342B0020EF
:10FFE00004210020982100200D4908680D49498806
:10FFF00009010D4A89184968094A11600949498867
:020000040002F8
:100000000901094A8918486005498988054A5288C2
:100010001201054BD21811810221014A91807047CB
:1000200004210020342B0020142B002010B50620C2
:100030000449087049880901034A8918486803F08F
:100040001FF810BD342B0020142B002010B5072002
:10005000034908700020486003F022F810BD00003A
:10006000342B0020054A50684288D21C91B2044AC1
:1000700092885218024B9A8070470000342B00205F
:10008000042100203EB504462088502821D0522863
:1000900002D0542826D103E0A08801F0F5F821E031
:1000A000062168460170A08800F00EFC01466846F3
:1000B0004180A18881806946488800F051F9A08874
:1000C00000220C490978FCF717FF6846FEF7BAFFD3
:1000D00008E0A01DFEF712FA002802D0A08801F067
:1000E00023F900BF00BFFCF7D3FA06F077FC05F058
:1000F00087FB3EBD5B2000203EB504466088694614
:1001000048802078002804D001280FD0022829D167
:1001100014E00020694608706846FEF793FF608887
:1001200000F0ECFA054601F0AFF81BE0012168464B
:100130000170A1888180FEF785FF13E020790028F7
:100140000FD0608800F0DAFA05460748854207D0EC
:100150000122064801782846FCF7CEFE05F050FB48
:1001600000BF00BF00BF3EBDFFFF00005B200020BE
:1001700010B50446207801280ED1608801F084F87B
:10018000608800F0DBF9002805D06088012204496E
:100190000978FCF7B1FE00E000BF00BF10BD000011
:1001A0005B20002010B500F0B9FCFCF76FFE12498F
:1001B0000870FCF76BFE11490870FCF767FE1049E8
:1001C0000870FCF763FE0F4908700B480078182888
:1001D0000BD00A480078182807D00948007818285A
:1001E00003D008460078182801D1032010BD012053
:1001F000054908700020F9E7592000205A20002006
:100200005B2000205C2000205820002010B586B024
:1002100000F0BEF801A8FCF789FD002411E062009F
:1002200002A9885A00F050FB0949884207D16200B0
:1002300002A9885A012207490978FCF75DFE601C73
:1002400084B20198A042EAD805F0DAFA06B010BDEF
:10025000FFFF00005B20002010B50446207807282F
:1002600003D1608801F060F800E000BF00BF10BD5E
:1002700010B504460B4801782046FCF729FE0028FB
:100280000DD0002109E00C204843074A801840881F
:10029000A04201D1C8B210BD491C0829F3D3FF20E8
:1002A000F9E700006B2000207025002010B5002425
:1002B0000DE00C216143084A8918488807490978EC
:1002C000FCF706FE002801D1E0B210BD641C082C2A
:1002D000EFD3FF20F9E70000702500206B200020FD
:1002E000F8B505460F460120A840044618480068A6
:1002F000FCF7F6F80646002E00D0F8BD1548006859
:10030000204000281DD1284601F08CFB002805D094
:100310001148006820431049086004E00E48006856
:10032000A0430D4908600B48006820430949086054
:1003300000220A48016806480068FCF7A7F806464C
:1003400004E004480068A0430249086000BFD4E705
:10035000EC740200C8200020C4200020C02000202F
:100360001CB50446044903C9019100900022694666
:10037000204603F0F5F81CBD3474020010B500F0FF
:10038000D3FB012001490870002010BD642000202B
:1003900010B5044802F0C2FF0349088005F068FA6E
:1003A00010BD0000FFFF000066200020F1B584B002
:1003B000049800F089FA05460026002703200190E2
:1003C000012000901F4885420DD002AA082128462E
:1003D00003F08CF80446002C05D10398861D87880D
:1003E0000168019100BF00BF3A463146019B049865
:1003F000A9DF0446042C01D1112419E0082C01D1F5
:10040000002415E00B2C13D100200090022101984C
:100410000840002802D00120019009E0002E01D1FF
:10042000002F04D0002600270320019000E00324C1
:100430000B2CD9D00098002800D10B24204605B001
:10044000F0BD0000FFFF0000F1B584B0049800F09B
:100450003BFA07462248874202D1224805B0F0BD48
:10046000012001900020009000BF00200090019822
:10047000411C89B2024602AB01910821384603F0C3
:100480007BF80446002C22D1039D032028602A1DFE
:10049000A91D2B680498AADF0446002C05D1082169
:1004A000384603F029F9044610E00C2C02D1012053
:1004B000009002E0052C00D100240821384603F00A
:1004C000FFF80646002E00D0032400BF02E0072CF0
:1004D00000D10C2400980028C7D100BF2046BDE7FA
:1004E000FFFF0000023000007FB50446207801289D
:1004F00017D12079012814D1608802AA012102F0C5
:10050000F5FF0546002D0BD1022168460170618878
:1005100041800398017868460171FEF7A3FD00BF92
:1005200000BF044800880449884201D005F0A0F9C2
:100530007FBD000066200020FFFF00007CB5044660
:10054000204600F0C1F906466A460121304602F015
:10055000CDFF0546002D01D000207CBD019800781C
:10056000FBE7000070B505460A4E00BF094A0A487D
:1005700001882846A7DF04460848844204D106487B
:100580000088401C0449088004488442EED020467C
:1005900070BD0000FFFF0000682000200330000055
:1005A00001468888044A904204D00888002801D077
:1005B000012070470020FCE7FFFF00003EB5044625
:1005C0000D462078022801D000203EBD0322611C88
:1005D00002A8FAF7E5FD0322211D6846FAF7E0FDBF
:1005E00001AA69462846FBF71BFE032201A902A8BF
:1005F000FAF701FE002801D10120E6E70020E4E738
:1006000070B506460C463046FFF732FE0546FF2D14
:100610000AD00C206843054A8018011D0722204695
:10062000FAF7BEFD002070BD0520FCE77025002014
:1006300070B58EB004462088102801D00EB070BD71
:100640002C22211D03A8FAF7ABFD2B4D6846007C38
:10065000032837D003F07EF96846007C002804D0D8
:10066000012803D002282AD115E000BF0AE0019832
:100670000146113104A8FBF72EFC002802D0684681
:10068000058906E06A4602A9072003F035F900282B
:10069000EDD100BF14E009E00198411C04A8FFF768
:1006A0008DFF002802D06846058906E06A4602A947
:1006B000072003F021F90028EED100BF00E000BFC1
:1006C00000BF00BF6946888904A900F0C1FF064643
:1006D000094885420DD069468889294600F096F878
:1006E00068468189C1800121017101A8FEF7CAFC19
:1006F00000BF00BFA2E70000FFFF0000024600218C
:100700000BE00C204843074B185A904204D10C20B0
:100710004843C01840887047491C0829F1D3024853
:10072000F9E7000070250020FFFF000010B500F081
:1007300007FAFCF7ABFB0A4908700846007818284E
:1007400001D1032010BD074871DF0446002C01D001
:100750000320F7E70120044908700020F2E70000B9
:100760006B2000206D2000206A200020F8B5044690
:100770000D46601C00F0B4FA002800D1F8BD10222C
:10078000691C601CFAF737FD002801D1012000E048
:10079000002007462946113120461130FBF79BFB0C
:1007A0000646002F01D1002E01D00120E6E70020EF
:1007B000E4E702461088002801D00120704700219C
:1007C00006E0901C405C002801D00120F6E7491C9F
:1007D0000829F6D30020F1E770B505460C462846F7
:1007E000FFF7E7FF002800D170BD288821888842E4
:1007F00001D00020F8E70822A11CA81CFAF7FBFC96
:10080000002801D10120EFE70020EDE770B5044694
:100810000D462946204603F0BBFA70BD30B587B0BF
:1008200004462078002802D12079072801D007B09B
:1008300030BD608804AA072102F058FE0546002D4D
:1008400000D0F4E703F086F81BE060886946098B66
:10085000884200D115E003990598FFF787FF00282B
:100860000ED06088FFF74AFF69464880002168463D
:10087000017061888180018BC180FEF703FC07E075
:1008800000BF02AA06A9072003F036F80028DCD131
:1008900000BF00BFCBE7000070B506463046FFF74B
:1008A0002DFF0446304602F02CFE054605488442E2
:1008B00005D0002D03D10146204603F069FA2846F1
:1008C00070BD0000FFFF000070B505462846FFF729
:1008D000CFFC0446FF2C04D00C2060430249085A88
:1008E00070BD0248FCE7000070250020FFFF0000FB
:1008F0003EB5044603F02EF812E001980146463159
:100900002046FFF769FF002807D1019801462A31E8
:100910002046FFF761FF002802D0684600893EBDEF
:100920006A4602A9072002F0E7FF0028E5D1014846
:10093000F5E70000FFFF0000F8B506460C460F2063
:100940000090002E04D00120FEF7E0FF0120F8BD4A
:100950002079002806D001280AD002282DD00328AB
:100960005AD138E002F09CFB00900120207154E045
:100970000027002513E028012D49085C02280CD12E
:1009800029012B4A8918486802F07AFB0090002060
:100990002901274A5054012703E0681C85B2022D23
:1009A000E9DB00BF002F07D10220FEF7D5FF0120B1
:1009B000FEF7ACFF1F48CAE72FE01F4800230122C3
:1009C00001681E48FFF746F8009002201A49888007
:1009D0000020207121E01849086802F051FB0090C6
:1009E000174845881448076828011149401840688D
:1009F0001149086028010E49401847600E48808858
:100A000029010B4A8918088102200B49888000209F
:100A100029015054207100E000BF00BF0098002859
:100A200004D00120FEF772FF0E2090E700208EE731
:100A3000142B00201D1D00000421002098210020FF
:100A4000342B0020F8B52E480078002800D1F8BDDE
:100A500000252C480068002801D1012000E000207A
:100A6000064600BF002D20D127480078002800D07E
:100A7000EDE7684652DF0446052C01D1012513E05D
:100A8000002C06D000BF214AA5212046FBF786FC9A
:100A90000AE0009800F0C2FE1D480068002803D05C
:100AA0001B4900980968884700BF002E1FD11648CF
:100AB0000078002800D0CAE71648008800906946F0
:100AC0001548006861DF0446052C01D101260DE0C0
