:020000040001F9
:10B0000088380020D5B00100EFB00100F1B0010098
:10B010000000000000000000000000000000000030
:10B02000000000000000000000000000F3B001007C
:10B030000000000000000000F5B00100F7B00100C2
:10B04000A9B60100F9B00100C5B70100F9B00100CF
:10B05000F9B0010000000000DDB20100F9B001000C
:10B06000F9B00100F9B00100F9B00100F9B0010038
:10B07000F9B00100F9B00100F9B00100F9B0010028
:10B08000F9B00100FDB60100F9B00100F9B001000E
:10B0900025B70100F9B001002DB70100F9B001009A
:10B0A000F9B00100F9B0010000000000000000004C
:10B0B0000000000000000000000000000000000090
:10B0C0000348854600F0DAF800480047550E0200B4
:10B0D000883800200321094802680A4302600848B2
:10B0E00002680A4302600748804707480047FEE7B6
:10B0F000FEE7FEE7FEE7FEE7FEE70000240500406E
:10B100005405004061B70100C1B0010030B50B46E5
:10B11000014600202022012409E00D46D5409D4231
:10B1200005D31D469540491B2546954040191546B7
:10B13000521E002DF1DC30BD70B5002425460028DC
:10B1400001DA01244042002901DA01254942FFF7D2
:10B15000DDFFAC4200D04042002C00D0494270BD1F
:10B16000F0B51FB40646002082B005464024019188
:10B1700000901BE0019922460F46304600F06CF823
:10B18000049A059B801A994110D31046194622460D
:10B1900000F052F8361A8F41019722460120002113
:10B1A000009F00F049F838184D4100902046641E79
:10B1B0000028DFDC019B00982946324607B0F0BD2D
:10B1C00000487047986A020003460B439B0703D070
:10B1D00009E008C9121F08C0042AFAD203E00B785C
:10B1E0000370401C491C521EF9D27047D2B201E0D4
:10B1F0000270401C491EFBD270470022F6E710B5D2
:10B2000013460A4604461946FFF7F0FF204610BDD4
:10B21000421C0178401C0029FBD1801A704730B5D0
:10B2200004460020034600E05B1C934203D2E05C2E
:10B23000CD5C401BF8D030BD10B5202A04DB0146A0
:10B24000203A9140002010BD914020239C1A0346D3
:10B25000E3401943904010BD10B5202A04DB084696
:10B26000203AD040002110BD0B46D340D0402024CE
:10B27000A21A91400843194610BD0000064C012552
:10B28000064E05E0E36807CC2B430C3C984710348E
:10B29000B442F7D3FFF718FF586D0200786D020033
:10B2A00030B58C180278401C13071B0F01D10378AE
:10B2B000401C120906D10278401C03E005780D708D
:10B2C000401C491C5B1EF9D101E00B70491C521E49
:10B2D000FBD1A142E6D3002030BD0000F0B58FB015
:10B2E00000200E900D90FF2001300C9001260024CC
:10B2F00016E00C9806F0F6FA00280BD000BF924832
:10B3000040683040002805D00C9806F0E3FA0E980B
:10B3100030430E9076000C98001D80B20C90641C97
:10B32000042CE6D3FF207D3006F0DCFA00280DD097
:10B33000FF207D3006F0CEFA0121C9070E980843A0
:10B340000E900DAA0121002006F0A6FA0E98000723
:10B35000000F00282CD00126002427E00E98304052
:10B36000002821D000BF7948512109014018A100CF
:10B3700040581F2109020840000A074600BF7348D1
:10B38000512109014018A100405803210904084037
:10B39000000C0B90204602F0B5FE0546002D02D0B1
:10B3A00038460B99A84700BF7600641C042CD5D3FF
:10B3B0000E98C00FC007002876D000200B900A908E
:10B3C000002505E00020C043A90009AA50506D1CCB
:10B3D000002DF7D000BF00200B9000247AE05C48DD
:10B3E000005D0890C02108988843074658480057D8
:10B3F000401C00286DD009A9384605F08BFE0028B6
:10B4000067D0C0210898084080110790384602F0A4
:10B41000BDFE059002F076FE06900698002802D147
:10B420000798032854D10798032815D10AA8039731
:10B430000290039FF9080191039F7907490F039137
:10B4400001990298415C0123039A93401943CAB2BF
:10B450000199425400BF00BF00BF00BF052109078A
:10B460000846B9000722120282185158032212041A
:10B470001140090C05910DA9384605F04BFE0490CA
:10B480000498002802D00598022805D004980028C6
:10B490001DD1059803281AD10798032810D10598C3
:10B4A000022802D1032001E04BE00220039038463D
:10B4B000039906F073F90B98401CC0B20B9000BFC3
:10B4C0000698002803D03846069A0799904700BF8F
:10B4D00000BF641C042C82D30B9800282CD00127B9
:10B4E00008AA0121002006F0D7F900250AE0A800EB
:10B4F00008A90858A9000DAA5158884201D0002770
:10B5000002E06D1C002DF2D000BF002F02D0002001
:10B510000B9010E000250CE0A80008A90858A9002D
:10B520000DAA5050A8000AA90858A90009AA50500D
:10B530006D1C002DF0D000BF0B98002800D04AE70A
:10B5400000BF0FB0F0BD000000630040006000408D
:10B55000A4290020C206D20E01219140014A1160A7
:10B560007047000080E200E0C206D20E0121914047
:10B57000014A11607047000080E100E0C206D20E6F
:10B5800001219140014A11607047000000E100E094
:10B59000C206D20E01219140014A1160704700009D
:10B5A00000E100E0C206D20E01219140014A116083
:10B5B0007047000000E200E010B5002819DA1A4ACE
:10B5C00003071B0F083B9B089B00D2588307DC0E28
:10B5D000FF23A3409A438B071B0E8407E40EA3406E
:10B5E0001A43114B0407240F083CA408A4001A5165
:10B5F00018E00E4A03231B02D21883089B00D2587E
:10B600008307DC0EFF23A3409A438B071B0E84079E
:10B61000E40EA3401A43054B032424021B1984089B
:10B62000A4001A5110BD00001CED00E000E100E094
:10B6300010B5002819DA1A4A03071B0F083B9B08AC
:10B640009B00D2588307DC0EFF23A3409A438B074D
:10B650001B0E8407E40EA3401A43114B0407240F6A
:10B66000083CA408A4001A5118E00E4A03231B0248
:10B67000D21883089B00D2588307DC0EFF23A34017
:10B680009A438B071B0E8407E40EA3401A43054B15
:10B69000032424021B198408A4001A5110BD0000C1
:10B6A0001CED00E000E100E010B5FF20013005F0E6
:10B6B0003CFD00280CD0FF20013005F041FD0120A9
:10B6C00005F044FD01200C494870002002F0ECFD1B
:10B6D000FF20053005F029FD00280BD0FF200530A4
:10B6E00005F02EFD022005F031FD01200249887091
:10B6F00002F0DAFD10BD00005029002010B5002036
:10B70000074908600021064841608160C16000204F
:10B7100003494039086048600AF028FA10BD00006B
:10B720004011014010B50AF031F910BD70B50B4859
:10B73000006800280ED0094800688047044600BF12
:10B740002546002D04D000BF284600F039FD00BF7B
:10B7500000BF01E004F09CFE70BD00002821002025
:10B7600010B504F07DFF002805D01048104948604E
:10B77000C8131049886104F057FF002802D0012047
:10B780000D49886004F0A2FF00280ED00B48006825
:10B79000012807D00A480949086000BF0748006827
:10B7A0000128FBD1C0200549486110BDDFFF07C05B
:10B7B00000050040006C00400006004000EC064020
:10B7C0007593000010B5024902480AF0ABFA10BDAB
:10B7D000AC290020002000400FB41CB50A46521EC0
:10B7E0000192009007A9064B6A46069800F040F8BF
:10B7F000009A002111701CBC08BC04B0184700005E
:10B80000E5BC010030B47446641E2578641CAB426C
:10B8100004D3635D5B00E31830BC18471D46F8E7AE
:10B8200002E008C8121F08C1002AFAD17047704709
:10B83000002001E001C1121F002AFBD17047000067
:10B840000146202909DA01208840054A10400028D5
:10B8500001D0012070470020FCE70120FAE700003A
:10B86000FC06FFBC00BFEFF31081084672B67047BC
:10B87000FFB591B00F460546002606E025280AD000
:10B88000149A139990476D1C761C28780028F5D1DE
:10B89000304615B0F0BD002400940121F34A029413
:10B8A00000E004436D1C2B780846203B9840104272
:10B8B000F7D128782A280ED0022128780246303A7B
:10B8C000092A15D8009A0A235A43303A80180C43A3
:10B8D0006D1C0090F1E701CF0090002805DA0120EF
:10B8E00040030443009840420090022004436D1C32
:10B8F00028782E2815D10420044368786D1C2A2846
:10B900000AD101CF6D1C02900BE002990A2251432B
:10B91000303940186D1C02902878014630390929C9
:10B92000F3D928786C2810D006DC4C281AD0682867
:10B930000ED06A2817D104E0742813D07A2812D1C7
:10B9400010E00120400504430CE00121090501E05D
:10B95000032109050C436978814203D101200005C8
:10B9600024186D1C6D1C287803906E281ED00CDCEA
:10B97000632831D004DC00288AD0582811D1B2E0E5
:10B9800064287BD069280CD178E073282DD004DCA2
:10B990006F2870D0702804D1A7E075286CD0782863
:10B9A0006BD0149A13999047761C62E06002400FA6
:10B9B000022807D003280AD0042838680AD0066075
:10B9C0003F1D56E03868F11706604160F8E73868B7
:10B9D0000680F5E70670F3E73878694608740020BA
:10B9E000487404A80390012003E038680390002005
:10B9F000C0433F1D61070FD5002101E00199491C9B
:10BA0000029A0191914213DA8142F7DB019A03997C
:10BA1000895C0029F2D10BE0002101E00199491C69
:10BA200001918142FADB019A0399895C0029F5D1E1
:10BA300001990098139A401A00902146149B00F037
:10BA40003BF901998019461807E00398039900789B
:10BA5000491C0391149A139990470198401E019034
:10BA6000401CF2D12146149B139A009800F014F95F
:10BA700086196D1C09E741E033E034E00A2000211B
:10BA8000049005916002410F022905D001CFC21731
:10BA90009446032905D007E0FF1DFF08FF0003CFF0
:10BAA00006E000B2C2179446042902D140B2C11781
:10BAB0008C4600226146944506DA0A46002140423F
:10BAC00091418C462D2102E0210504D52B216A46A7
:10BAD0001176012103E0E10701D02021F7E7019170
:10BAE00054E00A200BE0102009E01020049000210F
:10BAF0000420044308200591029003E0082000215F
:10BB0000059104906002410F022905D001CF002267
:10BB10009446032906D006E0FF1DFF08FF0003CF6F
:10BB20008C4603E080B2042900D1C0B2002101910B
:10BB300021072BD50399702906D0049A1021059B63
:10BB40004A401A4305D00EE040216A461176012191
:10BB500008E06146014306D030216A461176039918
:10BB6000517602210191049A0821059B4A401A430B
:10BB70000CD16146014301D1610707D530216A46E6
:10BB80001176012101910299491E029103995829C8
:10BB900004D037A103910FA90F910DE039A1F9E766
:10BBA0006146059B049AFFF7DBFA039B8C469B5C7E
:10BBB0000F9A521E0F92137061460143F0D10F98F5
:10BBC00007A9081A20300390600704D5012000045B
:10BBD0008443029801E0012002900399884201DD2C
:10BBE000401A00E0002041180290019809180098BE
:10BBF000401A0090E00306D42146149B139A009843
:10BC000000F05AF886190020049008E006A9085CA4
:10BC1000149A139990470498401C761C049001993B
:10BC20008842F3DBE0030CD52146149B139A00985D
:10BC300000F042F8861904E0149A302013999047D6
:10BC4000761C0299481E02900029F5DC08E00F9846
:10BC50000F990078491C0F91149A13999047761CFC
:10BC60000399481E03900029F1DCFBE60928010036
:10BC70003031323334353637383961626364656662
:10BC80000000000030313233343536373839414224
:10BC90004344454600000000F8B5044600251E4612
:10BCA0001746880404D405E039462020B0476D1CAF
:10BCB000641EF9D52846F8BDFFB50446002581B0BD
:10BCC0001E46C80301D5302700E02027880404D58C
:10BCD00005E038460399B0476D1C641EF9D5284627
:10BCE00005B0F0BD4A68002A06D00A68531C0B60F4
:10BCF00010704868401E4860704770B505460C4695
:10BD0000002D01D0002C01D1002070BD28782178B1
:10BD1000884201D00020F8E70622611C681CFFF76A
:10BD20007EFA002801D10120EFE70020EDE702466E
:10BD3000002105E0505C002801D001207047491C1B
:10BD40000629F7D30020F9E710B50446002C0ED0E1
:10BD500008480068A0420AD806484068A04206D3B6
:10BD6000204604F0EAFC002801D0012010BD00208C
:10BD7000FCE700004C210020F7B582B004461646CF
:10BD800000253788002030802D20005D00280CD051
:10BD90003A463146039800F0B5FF054600BF002D36
:10BDA00002D0284605B0F0BD00BFA07800280BD017
:10BDB0003A463146039800F00BFB054600BF002DC4
:10BDC00001D02846EEE700BFE07800280DD0E178EA
:10BDD00048B23B463246039903F0FAFA054600BFE3
:10BDE000002D01D02846DDE700BF606800280ED096
:10BDF0000020616808563B463246039909F06EFF01
:10BE0000054600BF002D01D02846CBE700BF2089A2
:10BE100000280FDD019700960622022120460830F7
:10BE2000039B0AF0F1F8054600BF002D01D028461B
:10BE3000B8E700BF208A00280FDD0197009607228F
:10BE4000032120461030039B0AF0DEF8054600BFB0
:10BE5000002D01D02846A5E700BF208B00280FDD6C
:10BE6000019700961522142120461830039B0AF0F2
:10BE7000CBF8054600BF002D01D0284692E700BF51
:10BE8000206A00280CD03B463246206A039902F013
:10BE900099FA054600BF002D01D0284682E700BF71
:10BEA000606A00280CD03B463246606A039905F070
:10BEB0003FF8054600BF002D01D0284672E700BFBD
:10BEC0002C20005D00280CDD3B46324620460399BD
:10BED00009F0C4F8054600BF002D01D0284661E7EF
:10BEE00000BF207800280CD03B46324620460399FC
:10BEF00005F05AF8054600BF002D01D0284651E74D
:10BF000000BF28464EE7000070B504461748FFF70B
:10BF10000EFF0546012C06D0022C0DD0032C14D0A8
:10BF2000042C20D118E012484078002803D0002DBE
:10BF300001D0012070BD00BF0D488078002803D0DB
:10BF4000002D01D00220F5E700BF0948C078002885
:10BF500001D00320EEE700BF05480079002801D09A
:10BF60000420E7E700BF0020E4E7000011200020E4
:10BF70000823002010B504460521601CFFF7DCF8FB
:10BF8000C8B210BD0146C87804221040002801D173
:10BF9000072070470020FCE730B599B03C210AA883
:10BFA000FFF72BF9022108A80172012181720621F5
:10BFB000C17201216846018711490F91202102A811
:10BFC000FFF71BF901216846C172FF202D30069052
:10BFD000B420079000200B4B02AA014600900AA84B
:10BFE00000F058FB044600BF2546002D04D000BFDA
:10BFF000284600F0E5F800BF00BF19B030BD0000D2
:10C00000EA1F00203922020070B5032000F08AFCEC
:10C01000044600BF2546002D04D000BF284600F08E
:10C02000CFF800BF00BF70BD70B58CB004460D46A0
:10C030001646002005E00F21091A615C6A4611547A
:10C04000401C1028F7D30D2104A8FFF7D6F80020D4
:10C0500005E02A5C0F210B1A04A9CA54401C0328CE
:10C06000F7D368464DDF002005E00F210A1A08A922
:10C07000895C3154401C0328F7D30CB070BD10B557
:10C080000446022000F0CEFF10BD000010B50024D1
:10C0900007E0E100064A1268505C012105F0F8F85B
:10C0A000641C044800788442F3D3002010BD0000D3
:10C0B000B8200020BC200020FEB506460C461746DE
:10C0C000052F01D20720FEBD05F0F6F9002808D1A2
:10C0D00005F0C4F9054600BF002D01D02846F2E75F
:10C0E00000BF174806601748047017480760002013
:10C0F000164908601649086017E0E00080190190B1
:10C100001448006800900198807869464870019949
:10C110000878114A694605F019F9054600BF002D57
:10C1200001D02846CFE700BF00BF2046611ECCB239
:10C130000028E2D1094A0021094800F051F8C2E77D
:10C14000B8200020BC200020C0200020C4200020F7
:10C15000C8200020B06902002DFD0100D9E50100D2
:10C16000AC6902000CA1012005F0C6FE00BF05F07D
:10C17000A7FD00BF00BF05F0A9FD0028FBD100BF4F
:10C1800000BF00BFBFF34F8F0B480C49C860BFF31F
:10C190004F8F00BF00BFFEE71B5B313B33316D416A
:10C1A00050505F4552524F523A4552524F523A46C2
:10C1B0006174616C0D0A00000400FA0500ED00E0F6
:10C1C0003EB50446002000900190029002946A4619
:10C1D00000210248FFF7C6FF3EBD000001400000FD
:10C1E00010B503460C4600BF0D484068002801D139
:10C1F000082010BD00BF002A01D10720F9E7002B5D
:10C2000001D10720F5E71868007C002801D008203C
:10C21000EFE71968002008744C744A6100BFE8E732
:10C22000CC200020F8B507460D4614461E46204691
:10C230008107890F002901D1012100E00021002997
:10C2400001D10720F8BD002C01D10720FAE708F042
:10C2500039FB1148066000201049087048700846F4
:10C260008570446000200E4908600E4908700E4930
:10C2700008701420FFF76EF903211420FFF7D8F996
:10C280001420FFF77BF9384608F0F2FA08F0EAFAD2
:10C29000064908600020D5E7E8200020CC200020D7
:10C2A000D4200020E4200020E5200020D820002019
:10C2B000F8B504460E461746254600BF10484068AC
:10C2C000002801D10820F8BD00BF002C01D10820B2
:10C2D000F9E7052E01D20720F5E76869002801D1AA
:10C2E0000820F0E7687C012801D1304600E00020FA
:10C2F00000903B4631462846009A09F0E7FBE2E70A
:10C30000CC20002070B50446254600BF0A4840688E
:10C31000002801D1082070BD00BF002C02D0686940
:10C32000002801D10820F6E70020287402212846C1
:10C3300009F0FAFBEFE70000CC20002070B50446BE
:10C3400000BFFFF78FFA05460E48406800280ED15F
:10C3500001200C4948600C4800680C490840094914
:10C3600008600A48084908600020207001E00120A8
:10C370002070002D03D100BF62B600BF00BF00BF18
:10C3800070BD0000F020002080E100E0FC06FFBC52
:10C3900070B5044625460C484068002812D0002D90
:10C3A00010D1FFF75FFA06460748006807490860A2
:10C3B000002005494860002E03D100BF62B600BFCF
:10C3C00000BF00BF00BF70BDF020002000E100E012
:10C3D000F8B505460C4617462088001DB84201D91D
:10C3E0000C20F8BD684679DF064600BF002E01D05C
:10C3F0003046F6E700BF0320218868542088401C9F
:10C4000020801920218868542088401C20802088A2
:10C4100041196846008809F037FD218840182080BE
:10C420000020DEE7704770B505460C462068401CCA
:10C43000002805D0206805F0EBF9206805F0A2F986
:10C440006068401C002803D00021606805F081F975
:10C450002868A169052212028218516200BF617D1D
:10C46000227D28680B461343052636028619F3669B
:10C4700000BF62682168286805F0D4FE207D01288D
:10C4800016D1A068401C002803D00021A06805F048
:10C4900060F9E068401C002805D0E06805F0B8F9B4
:10C4A000E06805F06FF9A268E168286805F098FE79
:10C4B00070BD000030B58BB01448007800F0ECFB84
:10C4C0000546284608F0B2FA00281CD001A800F062
:10C4D0003FFB142201A906A8FEF776FE00240EE019
:10C4E000620007A9885A0949097800F0E3FB00288F
:10C4F00004D0620007A9885A04F0E6FB641C069881
:10C50000A042EDD800BF0BB030BD00005A20002083
:10C5100010B5044663799A07920F2179208804F0B8
:10C52000A1FA10BD10B504462079002803D1204699
:10C5300000F008F803E02046FFF7EAFF00BF00BF65
:10C5400010BD0000F0B589B004460025208800F039
:10C5500071FB0746208803F0DDFE0646A0680890C0
:10C56000607A0790208800222249097800F0B6FB03
:10C57000002F01D109B0F0BD60794007C00F00283D
:10C5800011D00721304606F0E9FC0546002D16D0F3
:10C590000821684601712188C1800681039501A8A0
:10C5A00002F0C8FA0BE020881349097800F082FBFA
:10C5B000002804D0304603F095FE039000BF03210D
:10C5C000684601742188418260794007C10F68463E
:10C5D0000175A0794007C10F04A84171811D08A809
:10C5E0000078087004A86946097FC17102F0A2FAB8
:10C5F00000BFBFE79E200020A0200020F3B593B02D
:10C600000D461F21129111911398002818D01398EC
:10C61000FFF7B8FC044600BF002C02D0204615B03E
:10C62000F0BD00BF12AA09A91398FFF7A5FB0446A5
:10C6300000BF002C01D02046F1E700BF09AE02E0A8
:10C64000002600201290002D17D0284609F050F93E
:10C65000044600BF002C01D02046E0E700BF11AA2D
:10C6600001A92846FFF788FB044600BF002C01D033
:10C670002046D4E700BF01AF02E000270020119060
:10C6800010A88088C3B210A80089C1B23A463046CB
:10C6900072DFC4E7F8B504460F4615461E46002C67
:10C6A00001D0002D01D10E20F8BD0120574908709E
:10C6B000002057490870202229465648FEF784FD7D
:10C6C000554806605549069808600020C043544903
:10C6D000088007215348FEF790FD3C215248FEF7A1
:10C6E0008CFD207850490870A0788870E078C87078
:10C6F00060784870084662692169426101610146BB
:10C70000E268A068CA6088600846E269A169C261FF
:10C710008161606A00281BD044484349486244490B
:10C720008160606A00884049496A0880606A808840
:10C730003D49496A8880002005E0616A8968095C92
:10C740003B4A1154401C3849496A89888142F4D8CF
:10C75000A06A002824D0374937488160324988626E
:10C7600034493148806A8160A06A80882E49896A8C
:10C770008880A06A00882C49896A0880002005E02A
:10C78000A16A8968095C2B4A1154401C2649896AB0
:10C7900089888142F4D82C20015D23482030017320
:10C7A000206A00280BD025481F490862206A40886B
:10C7B000096A4880206A00881B49096A0880606805
:10C7C000002802D0184960684860002008E0C100D5
:10C7D000091A1B4A89181B4A12688300D150401C51
:10C7E0000828F4DB002007E00101174A8A181549E0
:10C7F00089688300CA50401C0828F5DB39460A487E
:10C80000FFF7FCFE009000984EE700000C2000208F
:10C810000F200020082300202020002024200020BA
:10C820001C2000201020002028230020642300204A
:10C83000702300209C23002090230020182000203B
:10C84000FC2300202C2000203424002010B50446B6
:10C850002088102804D0112806D01B280CD107E00E
:10C86000204605F04DFE08E0204605F079FE04E084
:10C87000204605F0E7FE00E000BF00BF10BD00004D
:10C8800070B50546022D02D0032D18D100E000BF7F
:10C890000C480078002811D000200A4908700A4886
:10C8A000007800F03FF80446002C07D007480068E5
:10C8B000002803D0204605490968884700E000BFEA
:10C8C00000BF70BD0D2000200F200020242000207C
:10C8D00010B574DF01200F49087006200E49C8709A
:10C8E00000210D48FFF78AFE0446002C01D02046A7
:10C8F00010BD0A48007800F015F80446002C07D057
:10C9000007480068002803D0204605490968884781
:10C910000020EDE728200020282300200F20002001
:10C920002420002030B587B0054651480078002803
:10C9300002D1082007B030BD4E48057002F0B2FDAC
:10C94000002804D001204C4908700020F2E707219C
:10C950004A48FEF752FC4A484078002803D0454830
:10C96000007801280FD046488078002803D041483D
:10C970000078012807D042488078002812D03D482E
:10C98000007802280ED13F480068002807D0012017
:10C990003D49087008203B490968884702E00020AB
:10C9A000394908702846FFF7AFFA32490870354810
:10C9B0000068002817D008460078032803D00846EE
:10C9C000007804280FD12E48007800280BD02F487B
:10C9D0000078002807D101202D4908700720294937
:10C9E0000968884702E0002029490870182101A839
:10C9F000FEF703FC00216846017101731D480078B1
:10CA00000300FEF7FFFE051804090E131C0001A821
:10CA100008F084FB044613E001A808F08FFB0446ED
:10CA20000EE001A808F0A0FB044609E001A808F008
:10CA3000D3FB044604E000201649087000E000BF64
:10CA400000BF0C480078002806D001A873DF044618
:10CA5000002C01D020466DE70A480068002804D069
:10CA60000C480078074909688847002062E7000001
:10CA70000C2000200F2000200D200020102000207E
:10CA8000082300202020002017200020282000203C
:10CA9000292000200E20002070B505461C222946C2
:10CAA0001448FEF791FB00201349087028680028FD
:10CAB0000BD0082211482968FEF786FB0F487ADF61
:10CAC0000446002C08D0204670BD0C487BDF04468D
:10CAD000002C01D02046F7E70020C0430849088019
:10CAE000002008490870084A00210848FFF778FB31
:10CAF000EAE70000B4240020502000203C20002061
:10CB00004620002044200020F95E0200E068020078
:10CB100010B504462088102806D0112808D0122805
:10CB20000ED0502810D107E0204605F0C7FC0CE0DD
:10CB3000204605F0EFFC08E0204605F0A1FD04E0EA
:10CB4000204605F0AFFC00E000BF00BF10BD0000B4
:10CB500010B504460348027D011D204607F0DAFFA8
:10CB600010BD0000F024002010B504460348C17D2C
:10CB70002246001D07F0B8FF10BD0000F024002081
:10CB800010B504460348017E2246001D07F0ACFFA5
:10CB900010BD0000F024002070B504462088102845
:10CBA00004D011281ED01A283FD11FE007F0F2FD53
:10CBB000A08807F057FC002804D100BF0420FFF72D
:10CBC000FFFA0EE0A07D022801D1012000E0002044
:10CBD0000546A2882B4616490846123807F0BDFFC5
:10CBE00000BF22E0A08807F0F7FD1EE0207A0009D0
:10CBF000012801DD012000E000200346A2880C4945
:10CC0000491C0846133807F0A8FF207A00090228BB
:10CC100001DD012000E000200346A2880449891CB0
:10CC20000846143807F099FF00BF00BF70BD000030
:10CC30000625002070B5044600250C48017D2246DB
:10CC4000001D07F051FF00280DD00848817D2246C5
:10CC5000001D07F049FF0646002E01D0022000E02B
:10CC60000120054600BF284670BD0000F0240020CA
:10CC700010B500240BE0204609F096F9002804D1F5
:10CC8000204609F087F9204610BD601CC4B2182C5C
:10CC9000F1DB1820F8E7000010B50446204609F043
:10CCA00083F9002802D00248005D10BD0020FCE797
:10CCB0000925002070B505460C46204609F074F998
:10CCC000002806D00448015D2A46153807F00CFFFD
:10CCD00070BD0020FCE700000925002070B5054666
:10CCE0000C461646204609F05FF9002806D0044895
:10CCF000011933462A46153807F02FFF70BD000092
:10CD000009250020FEB505460C4617462088093047
:10CD1000B84201D90C20FEBD684671DF064600BF4F
:10CD2000002E01D03046F6E700BF08202188685465
:10CD30002088401C20801B20218868542088401CAB
:10CD4000208021884819062200A90131FEF73CFA0B
:10CD50002088801D208068460078002802D1218824
:10CD6000685402E00120218868542088401C2080FB
:10CD70000020D0E710B504462046FFF70DFF2046FF
:10CD800006F0F2FF2046FFF7C3FE204605F084FAC6
:10CD90002046FFF75BFD2146014800F05DF810BD1D
:10CDA0005C210020F8B505460E463068286000205A
:10CDB000C043E88700BF0121684681701121C94343
:10CDC000018000BF2A1D69460120A0DF0446002C17
:10CDD00001D02046F8BD3146284609F0ABF904469B
:10CDE000002C01D02046F5E73146284609F0EEFA3E
:10CDF0000446002C01D02046ECE73146284609F0D5
:10CE000049FA0446002C01D02046E3E73146284683
:10CE100001F0DEFE0446002C01D02046DAE7314660
:10CE2000284601F085FF0446002C01D02046D1E7BA
:10CE30003146284601F05AFC0446002C01D0204619
:10CE4000C8E73146284601F001FD0446002C01D018
:10CE50002046BFE70020BDE770B505460C46208898
:10CE6000102804D011280BD050281BD111E02146E6
:10CE7000284605F041FB0DA1032005F03DF812E026
:10CE80002146284605F068FB12A1032005F034F87E
:10CE900009E02146284605F01DFC19A1032005F0F4
:10CEA0002BF800E000BF00BF70BD00001B5B313BF2
:10CEB00033326D424C455F534C532E633A494E46D4
:10CEC0004F3A736C7320636F6E6E65637465642193
:10CED0000D0A00001B5B313B33326D424C455F5302
:10CEE0004C532E633A494E464F3A736C7320646933
:10CEF00073636F6E6E6563746564210D0A000000D4
:10CF00001B5B313B33326D424C455F534C532E63B8
:10CF10003A494E464F3A736C732077726974656470
:10CF2000210D0A0070B50446204608F0A7FF05460B
:10CF3000E807C00F70BD000070B586B028480068D3
:10CF4000059000BF00234822264905A808F068FC88
:10CF5000054600BF2E46002E04D000BF3046FFF726
:10CF60002FF900BF00BF00BF6A460121002008F072
:10CF700035FC044600BF2546002D04D000BF2846DE
:10CF8000FFF71EF900BF00BF684608F0C7FB044664
:10CF900000BF2546002D04D000BF2846FFF710F93A
:10CFA00000BF00BF104808F0ABFB044600BF254699
:10CFB000002D04D000BF2846FFF702F900BF00BFD4
:10CFC0000A4808F087FC044600BF2546002D04D01F
:10CFD00000BF2846FFF7F4F800BF00BF06B070BDE1
:10CFE000A46802001422002075CD0100335902000C
:10CFF00010B501460A4B585C00BF052424072346A0
:10D0000000BF24151C192469C440E407E40F002C58
:10D0100001D0012000E0002002460120504010BD58
:10D02000AB68020010B504460249085D04F0FCFB41
:10D0300010BD0000A868020010B504460249085D52
:10D04000002104F008FC10BDA868020010B50446D9
:10D050000249085D012104F0FEFB10BDA868020032
:10D0600070B504460749085D04F0B8FB002801D0FC
:10D07000012000E0002005460120684001214840D1
:10D0800070BD0000A868020010B5002404E0054946
:10D09000085D04F06BFB641C032CF8D300F004F86B
:10D0A00010BD0000A868020010B5002403E020466F
:10D0B000FFF7C2FF641C032CF9D310BD10B5002488
:10D0C00003E02046FFF7C2FF641C032CF9D310BD18
:10D0D00002460020C043002106E0054B5B5C934202
:10D0E00001D1084602E0491C0329F6D300BF70476E
:10D0F000AB68020010B504460249085D002104F047
:10D10000AAFB10BDAE68020010B504460249085DD6
:10D11000012104F0A0FB10BDAE68020010B5002490
:10D1200004E00549085D04F021FB641C032CF8D3DE
:10D1300000F004F810BD0000AE68020010B5002435
:10D1400003E02046FFF7D6FF641C032CF9D310BD83
:10D1500010B50446204616380300FEF753FB0504BD
:10D1600012202830350001201B4908701B48007828
:10D17000012801D100F0C4FA19A1032004F0BCFE7B
:10D1800027E002201449087024480078012801D1C2
:10D1900000F06EFE22A1032004F0AEFE19E0012093
:10D1A0002F4908702FA1032004F0A6FE11E00220F1
:10D1B0002B4908703AA1032004F09EFE09E047A124
:10D1C000032004F099FE04E053A1032004F094FE30
:10D1D00000BF00BF10BD00004421002043210020FB
:10D1E0001B5B313B33326D4253505F42544E5F53B1
:10D1F00057495443482E633A494E464F3A4253509A
:10D200005F4556454E545F55565F4C414D505F4407
:10D210004F4F525F4F50454E210D0A0040210020D4
:10D220001B5B313B33326D4253505F42544E5F5370
:10D2300057495443482E633A494E464F3A42535059
:10D240005F4556454E545F55565F4C414D505F44C7
:10D250004F4F525F434C4F5345210D0A00000000D1
:10D26000462100201B5B313B33326D4253505F42FD
:10D27000544E5F5357495443482E633A494E464FE4
:10D280003A4253505F4556454E545F454C45435FC7
:10D290004C4F434B5F4F50454E210D0A000000009C
:10D2A0001B5B313B33326D4253505F42544E5F53F0
:10D2B00057495443482E633A494E464F3A425350D9
:10D2C0005F4556454E545F454C45435F4C4F434B7D
:10D2D0005F434C4F5345210D0A0000001B5B313B5F
:10D2E00033326D4253505F42544E5F53574954435B
:10D2F000482E633A494E464F3A4253505F45564591
:10D300004E545F434F494E5F424F585F4745545F0D
:10D31000434F494E210D0A001B5B313B33326D42B6
:10D3200053505F42544E5F5357495443482E633A1B
:10D33000494E464F3A204552524F52204556454E8F
:10D3400054210D0A0000000070B504460A4804602C
:10D350000A4A00210A48FEF743FF0546094A01210F
:10D360000948FEF73DFF002D01D0284670BD00F0B2
:10D37000B1FD05462846F9E70420002039DE01000A
:10D38000D868020055DF0100DC680200F3B581B007
:10D390000746002500243846FFF79AFE0446032C72
:10D3A00042D20298002825D0012802D002283AD182
:10D3B00033E06000201822490D5C600020184018FE
:10D3C000407800280ED01F4800680A2250430146CA
:10D3D0001D4A1E480068FEF76BFF0646002E01D16D
:10D3E00019480770600020181549401880781849BE
:10D3F000085518E015480068FEF784FF1448005DE2
:10D40000610061180E4A89188978884204D1600049
:10D41000201811464018857805E06000201808495A
:10D420004018457800BF00BF002D07D009480068AC
:10D43000002803D02846074909688847FEBD000038
:10D440009C220020F41F002000200020BC68020065
:10D4500001200020FC1F002038B505460C460C4872
:10D4600000780090237B62890A49032004F028FE9B
:10D4700007480078012806D100F018FC06A1032017
:10D4800004F03AFD03E010A1032004F035FD38BD9F
:10D4900042210020846B02001B5B313B33326D4222
:10D4A00053505F42544E5F5357495443482E633A9A
:10D4B000494E464F3A6F70656E20656C65635F6CD0
:10D4C0006F636B210D0A00001B5B313B33326D42F1
:10D4D00053505F42544E5F5357495443482E633A6A
:10D4E000494E464F3A656C65635F6C6F636B2063B2
:10D4F0006D6420657272210D0A00000038B5054682
:10D500000C46124800780090237B62891049032062
:10D5100004F0D6FD0D480078012806D100F094FCF7
:10D520000CA1032004F0E8FC0EE008480078022873
:10D5300006D100F0D1F814A1032004F0DDFC03E0D3
:10D540001EA1032004F0D8FC38BD000041210020BA
:10D55000E06B02001B5B313B33326D4253505F4244
:10D56000544E5F5357495443482E633A494E464FF1
:10D570003A6F70656E2066616E5F6E67745F696F8B
:10D580006E210D0A000000001B5B313B33326D42FF
:10D5900053505F42544E5F5357495443482E633AA9
:10D5A000494E464F3A636C6F73652066616E5F6EDD
:10D5B00067745F696F6E210D0A0000001B5B313BD1
:10D5C00033326D4253505F42544E5F535749544378
:10D5D000482E633A494E464F3A66616E5F6E6774F5
:10D5E0005F696F6E20636D6420657272210D0A00A1
:10D5F00038B505460C46124800780090237B6289B6
:10D600001049032004F05CFD0D480078012806D184
:10D6100000F02EFC0CA1032004F06EFC0EE0084884
:10D620000078022806D100F06BF813A1032004F063
:10D6300063FC03E01CA1032004F05EFC38BD000085
:10D64000402100204C6C02001B5B313B33326D42A9
:10D6500053505F42544E5F5357495443482E633AE8
:10D66000494E464F3A6F70656E2075765F6C616DFE
:10D6700070210D0A000000001B5B313B33326D420C
:10D6800053505F42544E5F5357495443482E633AB8
:10D69000494E464F3A636C6F73652075765F6C61D7
:10D6A0006D70210D0A0000001B5B313B33326D426F
:10D6B00053505F42544E5F5357495443482E633A88
:10D6C000494E464F3A75765F6C616D7020636D64AC
:10D6D00020657272210D0A0010B50320FFF70AFDC4
:10D6E0000020FFF7A9FC022003490870034903202A
:10D6F00004F002FC10BD000045210020F06A020089
:10D7000010B50120FFF7F6FC0120FFF795FC022081
:10D710000349087003A1032004F0EEFB10BD0000D4
:10D72000432100201B5B313B33326D4253505F423B
:10D73000544E5F5357495443482E633A494E464F1F
:10D740003A636C6F7365207576206C616D70206133
:10D750006E6420696E64696361746F72206C6564C5
:10D76000210D0A0070B50546042D06D0072D16D0F0
:10D770000A2D29D107F068FD2AE0132115480088F9
:10D7800076DF0446082C09D000BF2646002E04D0C0
:10D7900000BF3046FEF714FD00BF00BF18E00D4883
:10D7A00000880D4988420ED1FFF792F80446082CF4
:10D7B00009D000BF2646002E04D000BF3046FEF739
:10D7C000FFFC00BF00BF03E02846FFF7C1FC00BF1D
:10D7D00000BF70BDE81F0020FFFF000030B503460A
:10D7E0000020032B24D2012A07D1012903D11C4692
:10D7F0000E34E4B200E00024224600290FD00129B3
:10D8000002D0022911D104E05C001C19094D2A55EF
:10D810000DE05C001C19074D6419627007E05C00A4
:10D820001C19044D6419A27001E0072000BF00E03C
:10D83000072030BD9C22002070B504460025064814
:10D840000078C007C00F002803D0204600F090F8F1
:10D850000546284670BD0000F81F0020F7B50546B4
:10D860000E4600243848066038480560384902985A
:10D87000086002202840002848D0002706E0012246
:10D8800011463846FFF7AAFF04467F1C032F01D23A
:10D89000002CF4D0192201210020FFF79FFF04463D
:10D8A000002C05D1182200210846FFF797FF0446F7
:10D8B000002C05D1172201210846FFF78FFF0446EF
:10D8C000002C05D1162200210120FFF787FF044616
:10D8D000002C05D11A2201210220FFF77FFF044608
:10D8E000002C05D1720803211A48FEF7E5FB044617
:10D8F000002C02D1FEF7CAFB0446002C05D1164AC3
:10D9000000211648FEF76CFC044600BFE807C00F74
:10D91000002801D0FFF7B8FB002C05D1104A0021E8
:10D920001048FEF75DFC0446002C05D10E4A01218B
:10D930000E48FEF755FC044604202840002801D07C
:10D94000FFF7ECFB2046FEBDF41F0020F81F00206F
:10D95000FC1F0020C068020031E00100BC6802002A
:10D960005D070200B46802007FC00100B8680200D1
:10D97000F8B5044600250026C7480078002804D0E2
:10D980000020C5490870FFF78FFB2300FDF73AFF21
:10D99000180D1213406D9BC7D5DBFAF8F7F6F5F4B6
:10D9A000F3F2F1F0EFEEEDECEBEAFFF77DFBBB48B5
:10D9B00004706EE100BF0220FFF752FB00280BD07D
:10D9C0000220FFF739FB022C02D1E120C00001E068
:10D9D0007D204001064609E00220FFF737FB022CBC
:10D9E00001D1C82001E0FF2091300646AB48047009
:10D9F00064213046FDF78AFBA94909684843074678
:10DA000000223946A7480068FEF752FC054640E16F
:10DA10000220FFF725FB00280BD00220FFF70CFBAC
:10DA2000032C02D11920400101E07D20400106466F
:10DA300009E00220FFF70AFB032C01D1C82001E016
:10DA4000FF20913006469548047064213046FDF76A
:10DA50005DFB9349096848430746002239469148CF
:10DA60000068FEF725FC054613E10220FFF7F8FAEF
:10DA700000280BD00220FFF7DFFA042C02D17D2012
:10DA8000400101E07D20400106460AE00220FFF748
:10DA9000DDFA042C02D1FF20913001E0FF2091300B
:10DAA00006467E48047064213046FDF72FFB7C4912
:10DAB000096848430746002239467A480068FEF75D
:10DAC000F7FB0546E5E00220FFF7CAFA00280AD076
:10DAD0000220FFF7B1FA052C01D1C82001E07D201A
:10DAE0004001064609E00220FFF7B0FA052C01D1FB
:10DAF000C82001E0FF209130064668480470642188
:10DB00003046FDF703FB6649096848430746002293
:10DB1000394664480068FEF7CBFB0546B9E00220B1
:10DB2000FFF780FA5D4804705D48002201685D4897
:10DB30000068FEF7BDFB0546ABE00220FFF786FA62
:10DB400056480470A5E00120534908700220FFF7F1
:10DB500069FA53480022016852480068FEF7A8FBA2
:10DB6000054696E094E08EE08CE080E077E06EE0A1
:10DB700068E041E03FE03DE03BE039E033E021E0B8
:10DB800011E0FFE70120444908700220FFF74AFA3C
:10DB90004348006882008118002242480068FEF76E
:10DBA00087FB054675E001203B4908700220FFF71E
:10DBB00039FA3B48002201683A480068FEF778FBD2
:10DBC000054666E00120344908700220FFF72AFA72
:10DBD0003348006882008118002232480068FEF74E
:10DBE00067FB054655E0FFF769FA2C48047050E0E2
:10DBF00000BF00BF00BF00BF2B480068FEF782FBDC
:10DC000005461120061B002E18D0002D16D1012E1E
:10DC100010D9C821714308466421FDF777FA2049DD
:10DC2000096848430746002239461F480068FEF746
:10DC30003FFB05460220FFF709FA02E00220FFF74A
:10DC4000FBF926E0FFF730FA1448047021E0FFF7F3
:10DC50002BFA0220FFF7FAF91048047019E0FFF7D9
:10DC600023FA0220FFF7F2F90C48047011E0FFF7E5
:10DC70001BFA0220FFF7EAF90220FFF7E7F907484D
:10DC8000047006E000BFFFF719FA0448047000E0D2
:10DC900000BF00BF2846F8BDF11F0020F01F002084
:10DCA000F41F0020B4680200B8680200F8B52448E8
:10DCB000027824A1032004F061F93048007802289A
:10DCC0002DD11F480078002829DD1D480078401E0E
:10DCD0001B4908700220FFF717FA29480068401C0A
:10DCE0007D21C9004843074625480068401C484339
:10DCF0004008002119239B04C51849413A460023D6
:10DD00002846FDF72DFA0446002221461D480068EA
:10DD1000FEF7CEFA1CA1032004F0EEF80FE003207A
:10DD20000749087015480078012804D125A103206F
:10DD300004F0E2F803E032A1032004F0DDF8F8BDBE
:10DD4000082000201B5B313B33326D4253505F4251
:10DD5000544E5F5357495443482E633A494E464FF9
:10DD60003A637572206F70656E2074696D655F72BD
:10DD7000656D61696E3A256400000000462100204F
:10DD800004200020D86802001B5B313B33326D4217
:10DD900053505F42544E5F5357495443482E633AA1
:10DDA000494E464F3A6F70656E20656C65635F6CD7
:10DDB0006F636B2074727920616761696E210D0A4F
:10DDC000000000001B5B313B33326D4253505F4219
:10DDD000544E5F5357495443482E633A494E464F79
:10DDE0003A6F70656E20656C65635F6C6F636B2066
:10DDF000737563636573736564210D0A0000000029
:10DE00001B5B313B33326D4253505F42544E5F5384
:10DE100057495443482E633A494E464F3A6F70650E
:10DE20006E20656C65635F6C6F636B206661696C07
:10DE30006564210D0A00000010B504460220FFF7BA
:10DE400059F9FFF733FF10BD10B50320FFF75CF958
:10DE50000020FFF7FBF80120034908700349032065
:10DE600004F04AF810BD0000452100203C6B020080
:10DE700010B50120FFF748F90120FFF7E7F801206E
:10DE80000349087003A1032004F036F810BD000018
:10DE9000432100201B5B313B33326D4253505F42C4
:10DEA000544E5F5357495443482E633A494E464FA8
:10DEB0003A6F70656E207576206C616D7020616EB2
:10DEC0006420696E64696361746F72206C6564219B
:10DED0000D0A000010B50220164908701649087096
:10DEE000164908700120FFF783F8002803D00220AC
:10DEF0001349087002E00120114908700020FFF763
:10DF000077F8002803D002200E49087002E00120B3
:10DF10000C49087002200C4908700C490870094827
:10DF20000378074802780A49032004F073F80020B8
:10DF300010BD00004021002041210020422100208E
:10DF400044210020462100204321002045210020BB
:10DF5000A46C020010B504460220FFF763F810BD60
:10DF60000246002901DA002003E013685B18136001
:10DF700001207047F0B585B004460D46641C0127AA
:10DF8000012003900020029002A8FEF7D7F91F4855
:10DF9000006828601D4800681C494968411A1B48F0
:10DFA0008068401C461AE01901900198B04221D9BE
:10DFB000002E1CD016480068009000988005800D47
:10DFC000144909688902890A8902084300900F48A8
:10DFD000009A00680D490968491C0C4B19601946E4
:10DFE00089680840810018460C30425000BF00206C
:10DFF000039004E005480068001904490860684679
:10E00000007AFEF7C5F9039805B0F0BD6C2C00202E
:10E01000F06902002421002004484068034909688F
:10E02000884201D1012070470020FCE76C2C0020C1
:10E0300010B5044620780221FFF7A8F910BD0000B2
:10E0400070B506460F4A10490320FFF707FC044647
:10E0500000BF2546002D04D000BF2846FEF7B0F8CB
:10E0600000BF00BF0020FFF76FF9044600BF254640
:10E07000002D04D000BF2846FEF7A2F800BF00BF65
:10E0800070BD000065D70100CD0C000030B5024620
:10E090000B4602210EE08D0014462C412007000F94
:10E0A000092802DD0446373401E0044630340125F6
:10E0B0006D1A5C550C46491E002CECD130BD000099
:10E0C00001468879012808D10879012805D14888B6
:10E0D000034A904201D1012070470020FCE7000074
:10E0E000022900000021C9438200054B99500428F1
:10E0F00004DB0B46011F024A4032535470470000B4
:10E100006429002001468800014A10587047000029
:10E1100064290020F7B585B00B460020C043049069
:10E12000002A01D0002000E004200390002A01D042
:10E13000042000E00820029003991EE08800124CA1
:10E140002058401C002817D10846059C00930192D6
:10E1500046B20D4D20352E5585000B4E009B735158
:10E16000019A002A04D166B2051F074F40377E5539
:10E1700000BF48B2049003E0491C02988142DDD3FD
:10E1800000BF049808B0F0BD642900200146014892
:10E1900040567047842900200146002907D00548D1
:10E1A000884204D80448884201D9012070470020E1
:10E1B000FCE700004C2100205C21002070B50546E2
:10E1C0000E46002407E0E100685802F0B6FA002885
:10E1D00000D170BD641CB442F5D30120F9E7000002
:10E1E0000A49496C00290FD00849096CC900074A3F
:10E1F000891801601146096C491C4907490F1164CF
:10E200001146496C491E516470470000802A002065
:10E21000064902688A4203D00168083101607047EC
:10E2200002493839016000BFF9E70000B82A002030
:10E230000178022902D0017803290BD106490A6C22
:10E24000817D5118044A116411464A6C817D511A2E
:10E25000014A516470470000802A0020F8B5044646
:10E260000D46104E304684420BD1FF210131284625
:10E2700005F02EFD0646FF20013086420FD12646CE
:10E280000DE0FF2C0BDC2146284605F010FD07466B
:10E29000002F01D0204600E00248064600BF30466D
:10E2A000F8BD0000FFFF000070B50546002D01D14C
:10E2B000094C01E0084C08340AE0204602F046FA16
:10E2C0000646002E00D104E028467168884700BF4A
:10E2D000F3E700BF70BD000058290020FEB51F48BD
:10E2E0000068002836D01D480068056806F0BAFAB4
:10E2F00001901B4804682146019807F023FBC61CC7
:10E3000018480078002801D106F0BEFAAE4201D2CA
:10E31000284600E0304604192402240A204606F06C
:10E320009BFA06F09FFA00900199009807F00AFB0B
:10E33000C71C2046019907F005FB874209D906F062
:10E3400091FA074606F088FA2F2002F005FF07F041
:10E3500057FC01E006F0B6FAFEBD0000D420002014
:10E36000D8200020EC20002001460888062808DB81
:10E3700008881922D201904205DD0888104A90428F
:10E3800001D0072070474888062808DB48881922F2
:10E39000D201904205DD4888094A904201D0072009
:10E3A000F0E70888064A904208D04888904205D095
:10E3B00008884A88904201DD0720E3E70020E1E772
:10E3C000FFFF0000FFB581B006460D4614462088C9
:10E3D000801D0499884202D90C2005B0F0BD30465A
:10E3E000FFF7C2FF074600BF002F01D03846F4E711
:10E3F00000BF0520218868542088401C20801220FE
:10E40000218868542088401C208022885119308837
:10E4100007F03AFD21884018208022885119708821
:10E4200007F032FD2188401820800020D5E710B584
:10E43000044600BF2046FDF7C3FE00BF10BD00002C
:10E4400030B587B01C216846FCF7D7FE002000904D
:10E450000520C00301900F200004029003216846AC
:10E4600001730021C1810174094805900948069093
:10E470006846FEF711FB044600BF2546002D04D078
:10E4800000BF2846FDF79CFE00BF00BF07B030BDAF
:10E49000752402002FE4010038B51F4802F0B2F8DD
:10E4A000002829D11D48007800280AD01C4840695E
:10E4B000002820D00020009019484169684688470C
:10E4C00019E018480078002802D11548456801E095
:10E4D000134885680022294613480068FDF7E8FEC6
:10E4E0000446002C07D00E488069002803D00C4851
:10E4F0008169204688470AE009484069002806D01B
:10E5000001200090064841696846884700BF002006
:10E510000249087038BD000048200020502000202B
:10E52000B424002044200020E06802003EB50446E8
:10E530002088FEF719FB00281AD020880F49097897
:10E54000FEF7B8FB002805D1208800220C49097885
:10E55000FEF7C4FB218868464180052101702088B0
:10E56000FEF70EFB69460871684600F0E3FA04E026
:10E5700020880122034900F007FA3EBD9F200020B9
:10E580009E2000200610000070B506460D46002EA5
:10E5900001D0012070BD2879002804D0012809D0BD
:10E5A000022811D10EE0284605F0CAFF04460220D9
:10E5B00028710BE0284600F0AFFE04460A2C00D17B
:10E5C000044C03E0034C01E00F2400BF00BF2046D1
:10E5D000E0E700001D1D0000F8B5002535E0E8006B
:10E5E0001C490968441821780120884006461A48C9
:10E5F00000683040002826D017480068B04316490C
:10E600000860207802F01EFF07462178012088402C
:10E61000124909680840227839469140884211D150
:10E620006078012800D100E00020784001214840B6
:10E6300000906068002804D0009BD9B220786268FE
:10E64000904700BF00BF681CC5B2054800788542EE
:10E65000C5DBF8BDB8200020C8200020C420002061
:10E66000BC20002070B5044620793D2801D1054822
:10E6700001E011200002054620880022294602F010
:10E68000F1F970BD3D100000014614480078144AAD
:10E69000127890421DD011480078401C0F4A10702B
:10E6A00010460078022801D1002010700B48007835
:10E6B00080000C4A105808600B4A086812688018DD
:10E6C000094A1060104600680002000A106001202C
:10E6D00070470020086000BFFAE70000E420002037
:10E6E000E5200020DC200020D820002030B58FB0AD
:10E6F00004460D461C2108A8FCF77FFD08A80078F9
:10E7000010218843411808A801700078022188432D
:10E71000811C08A80170007808218843411808A8C6
:10E7200001701421684601850E21418542A009909F
:10E7300000200B900C900D900E9000BF01216846B8
:10E740008171F921C943818000BF0020079000BF7B
:10E750006846007F01090901491C68460177007F6E
:10E76000F021884310306946087700BF00BF684633
:10E77000407F01090901491C68464177407FF0212B
:10E78000884310306946487700BF887F0621884358
:10E79000801C694688770020009000BF684600789A
:10E7A00001090901491C684601700078F02188437D
:10E7B00010306946087000BF00BF68464078010904
:10E7C0000901491C684641704078F02188431030A7
:10E7D0006946487000BF6846807806218843011D5D
:10E7E00068468170807808218843014668468170B8
:10E7F00080781021884301466846817080784108FE
:10E800004900491C68468170142102A8FCF7F5FCF8
:10E8100001A80290684603900121018200214182F3
:10E820000121818208480690A08823462E3302AA3F
:10E8300008A9A2DF0FB030BD656C65635F6C6F63C4
:10E840006B5F636D640000004221002030B58FB023
:10E8500004460D461C2108A8FCF7CFFC08A8007848
:10E8600010218843411808A80170007802218843CC
:10E87000811C08A801701421684601851121418579
:10E880003BA0099000200B900C900D900E9000BFC3
:10E89000012168468171F821C943818000BF0020B1
:10E8A000079000BF6846007F01090901491C6846BE
:10E8B0000177007FF021884310306946087700BF58
:10E8C00000BF6846407F01090901491C684641773D
:10E8D000407FF021884310306946487700BF887F29
:10E8E00006218843801C694688770020009000BF7D
:10E8F0006846007801090901491C684601700078E2
:10E90000F021884310306946087000BF684680785F
:10E9100006218843011D684681708078082188435C
:10E920000146684681708078102188430146684618
:10E930008170807841084900491C68468170142123
:10E9400002A8FCF75AFC01A8029068460390012136
:10E95000018200214182012181820A480690A0881B
:10E960002346363302AA08A9A2DF0FB030BD00004B
:10E97000656C65635F6C6F636B5F737461747573F3
:10E980000000000046210020FEB504460D46164654
:10E99000084A07CA6B4607C368464480858086716B
:10E9A0000022054801782046FEF798F9684600F0F5
:10E9B000C1F8FEBD546902009E20002010B5044637
:10E9C000A08928DF10BD00B502781300FCF71AFFFC
:10E9D0000734050811212A31340000220A702CE086
:10E9E00001220A7003898B818388CB81C2688A6087
:10E9F00023E002220A7003898B818388CB81C2685D
:10EA00008A60027C062A01D1012300E000230B74F6
:10EA100013E003220A70C3888B810389CB81C2680B
:10EA20008A600AE004220A70C3888B810023CB81AC
:10EA300003E005220A7000E000BF00BF00BD000037
:10EA400070B5054600240AE0A000064908580028D1
:10EA500004D0A0000A46115828468847641C082C98
:10EA6000F2D370BDE82900203EB505460C46002CC7
:10EA70001BD0112C19D00020009001900290684604
:10EA8000458001940D2C03D10B206946087008E0E5
:10EA9000862C03D10A206946087002E009206946E5
:10EAA0000870684600F056F800BF3EBD70B50546D8
:10EAB000002405E0A000044A115828468847641C39
:10EAC000002CF7D070BD00005420002070B5054622
:10EAD000002405E0A000044A115828468847641C19
:10EAE000002CF7D070BD00006020002070B50546F6
:10EAF000002405E0A000044A115828468847641CF9
:10EB0000022CF7D370BD0000FC68020070B505460A
:10EB1000002405E0A000054A115828468847641CD7
:10EB2000034800788442F5DB70BD00000429002012
:10EB30009A20002070B50546002405E0A000044A94
:10EB4000115828468847641C022CF7D370BD00007A
:10EB50001C69020070B50546002405E0A000044AC7
:10EB6000115828468847641C002CF7D070BD00005F
:10EB700060690200F0B50346002420E0134E3068BF
:10EB800006689E4203D90668F61A06601BE006680E
:10EB90009B1B06683419002606600C4E35680B4F27
:10EBA000C6693E60C668002E08D00E193602360AC5
:10EBB0004660C66886601668C661156000BF034877
:10EBC00000680028DAD100BFF0BD0000D42000208A
:10EBD00030B58FB004460D461C2108A8FCF70DFB8C
:10EBE00008A8007810218843411808A8017000780F
:10EBF00002218843811C08A80170007808218843FD
:10EC0000411808A80170142168460185102141852A
:10EC100042A0099000200B900C900D900E9000BF28
:10EC2000012168468171FB21C943818000BF00201A
:10EC3000079000BF6846007F01090901491C68462A
:10EC40000177007FF021884310306946087700BFC4
:10EC500000BF6846407F01090901491C68464177A9
:10EC6000407FF021884310306946487700BF887F95
:10EC700006218843801C694688770020009000BFE9
:10EC80006846007801090901491C6846017000784E
:10EC9000F021884310306946087000BF00BF684605
:10ECA000407801090901491C684641704078F0210B
:10ECB000884310306946487000BF68468078062156
:10ECC0008843011D68468170807808218843014689
:10ECD00068468170807810218843014668468170BB
:10ECE000807841084900491C68468170142102A8B7
:10ECF000FCF783FA01A80290684603900121018283
:10ED0000002141820121818208480690A088234683
:10ED10001E3302AA08A9A2DF0FB030BD66616E5F84
:10ED20006E67745F696F6E5F636D640041210020E0
:10ED300030B58FB004460D461C2108A8FCF75DFADB
:10ED400008A8007810218843411808A801700078AD
:10ED500002218843811C08A801701421684601859E
:10ED6000132141853BA0099000200B900C900D9041
:10ED70000E9000BF012168468171FA21C94381804C
:10ED800000BF0020079000BF6846007F010909010D
:10ED9000491C68460177007FF0218843103069469E
:10EDA000087700BF00BF6846407F01090901491C80
:10EDB00068464177407FF0218843103069464877A4
:10EDC00000BF887F06218843801C69468877002021
:10EDD000009000BF6846007801090901491C684697
:10EDE00001700078F021884310306946087000BF38
:10EDF0006846807806218843011D684681708078C6
:10EE00000821884301466846817080781021884334
:10EE1000014668468170807841084900491C68466F
:10EE20008170142102A8FCF7E8F901A80290684655
:10EE300003900121018200214182012181820A483F
:10EE40000690A0882346263302AA08A9A2DF0FB0A5
:10EE500030BD000066616E5F6E67745F696F6E5FE4
:10EE60007374617475730000452100201FB504465A
:10EE70006068002801D1012000E000200390207884
:10EE80000300FCF7BFFC068A04053456838A00BFE2
:10EE9000A08900F061FA002804D1E08905F06CFC3B
:10EEA000002823D0A08900F051FA69464880E08903
:10EEB00005F05CFC694608712078012807D160687C
:10EEC000002800D100E003206946087007E0606870
:10EED000002801D1012000E0042069460870606824
:10EEE0000390A0680290684604F0FEF856E0A089FE
:10EEF00000F032FA002804D1E08905F03DFC00283A
:10EF000016D0A08900F022FA69464880E08905F011
:10EF10002DFC694608716068002801D1022000E0DC
:10EF2000052069460870A0680290684604F0DCF885
:10EF300034E0A08900F010FA002826D0E0890028EB
:10EF400023D1A08900F002FA69464880E08905F0E3
:10EF50000DFC014668460171FF21017160680028BF
:10EF600006D1062069460870488804F0DFFA02E0FE
:10EF700007206946087000200E4908700E49087085
:10EF800004F022FA684604F0AFF807E0082069466A
:10EF90000870684604F0A8F800E000BF00BF05480C
:10EFA0000078002804D000200249087004F00CFA10
:10EFB0001FBD0000752000207620002010B588B00D
:10EFC0000446022000F0F0F9002802D1022008B027
:10EFD00010BD0C48844201D10420F8E705216846A1
:10EFE00001710121017201A8C4800022114603F0C1
:10EFF00091FB002803D005F003FA0020E7E7082082
:10F00000E5E70000FFFF000000B587B0022000F038
:10F01000CBF9002802D1022007B000BD06206946C6
:10F02000087000221146684603F074FB00280AD0DD
:10F0300006480078002802D001200449087305F032
:10F04000DFF90020E8E70820E6E70000E82A0020D2
:10F0500010B58CB0142107A8FCF7CFF8022000F0FF
:10F06000A3F9002805D007A8FFF7EAFC00200CB0A0
:10F0700010BD012000F098F9002801D00020F6E72B
:10F08000012000F09DF900F075FA01206946087032
:10F0900003F04AFC04462300FCF7B4FB0C071508F8
:10F0A0001628230A24281A1F1B2800BF0B20DEE77E
:10F0B000022000F085F9012000F05CF907A8FFF7B5
:10F0C000BFFC0020D3E700BF0020694608710EE0B6
:10F0D00000BF03206946087109E0022069460871F3
:10F0E00005E000BF01206946087100E000BF00BFD5
:10F0F00000221146684603F00DFB05F081F900205F
:10F10000B5E7000038B50446002C01D1052038BD14
:10F110006946204605F032FA00281DD0684600886E
:10F1200000010F4940188089002813DDA07A0028CB
:10F1300010D068460088000140188089401E81B2C6
:10F14000684600880001064A801881810020A0726C
:10F15000002502E0062500E00A252846D7E7000042
:10F16000C82A00207FB514461D462B46224601A919
:10F17000684605F09DF904B070BD37B50C461546DC
:10F180002B4622466946002005F092F93EBD37B570
:10F190000C4615462B4622460021684605F088F9A4
:10F1A0003EBD0246002A01D0002901D1052070474A
:10F1B000106808600020FAE738B504460D46002CB8
:10F1C00001D0002D01D1052038BD6946204605F04B
:10F1D000D5F9002816D061686846008800010A4AFF
:10F1E00080188089401C82B2684600880001064B66
:10F1F000C0188281296060680C3068600120A072AC
:10F200000020E1E70A20DFE7C82A002070B50446A5
:10F210000D46002C01D1052070BD03230022294694
:10F22000204607F013FAF7E770B504460D460223AF
:10F2300000222946204607F009FA70BD70B5054640
:10F240000E461446002C01D1052070BD0223224633
:10F250003146284607F0FAF9F7E700000146094A67
:10F260001278082A01D10C200AE0064A127892008E
:10F27000054B9950034A1278521C024B1A70002019
:10F2800070470000FD200020E8290020F8B5044662
:10F290000D46022000F088F8002801D10220F8BDB8
:10F2A000002C01D10520FAE76946284607F0C6FA86
:10F2B0000646002E03D168460088208065803046CF
:10F2C000EDE7000070B50446022000F06DF800285C
:10F2D00001D1022070BD002C01D10520FAE7208861
:10F2E000022801DD0420F5E72088000109494618BD
:10F2F00071896088C01C081A08D42188608807F0CA
:10F300008FFA002020806080002500E00425284638
:10F31000E0E70000C82A00203EB504460A4B6A46D2
:10F320000021A01D05F0C4F80546002D06D1064AAF
:10F330009188019805F094F9054603E00248002100
:10F340000160416028463EBD0C210020014603209B
:10F350008003081A80B2704701460320800381426F
:10F3600004DB0348814201DC012070470020FCE7F8
:10F37000FEFF0000024909788143014A117070477D
:10F38000FC20002010B504462078182802D1FDF793
:10F390006FFC207010BD10B504462078182802D1EB
:10F3A000FDF766FC207010BD014604480078084057
:10F3B000002801D0012070470020FCE7FC2000203D
:10F3C000024909780143014A11707047FC2000206E
:10F3D00030B504461088C01C984201D90C2030BDBD
:10F3E0000220158848551088401C1080012015887F
:10F3F00048551088401C108015884C551088401CBA
:10F4000010800020EBE70000F8B506460C461546D4
:10F41000002700200090862C03D0112C01D0002C56
:10F4200037D1862C03D10020009001270AE0112C4F
:10F4300003D101200090002704E0002C02D100201D
:10F4400000900027002D18D03A4612480178304627
:10F45000FDF744FC104801783046009AFDF73EFC69
:10F4600000220E4801783046FDF738FC00220C4897
:10F4700001783046FDF732FC0BE03A460748017848
:10F480003046FDF72BFC064801783046009AFDF720
:10F4900025FCF8BDB5200020B4200020B1200020BC
:10F4A000B020002008B5684600F0C6F80098002893
:10F4B00001D0012008BD0020FCE70000F8B505469A
:10F4C0000C4616461F461F480078C007C00F00288C
:10F4D00001D10120F8BD2846FEF75EFE002801D1CB
:10F4E0000220F7E7002C01D10320F3E7A005800DEF
:10F4F000002801D00620EDE72868A04204D8B00219
:10F5000000196968884201D90520E3E7002E01D17E
:10F510000420DFE7684604F0B5FE002801D107208B
:10F52000D8E70098476000980560022000990872AB
:10F53000A001000C009988810098068204F06EFFFB
:10F540000020C7E71621002070B505460C4620466E
:10F5500004F0CAFE70BD000005484169481C00283F
:10F5600001D0084670470120000740698002F9E792
:10F5700000100010FEB52D482D49401A04092B48F3
:10F58000401A0509FFF7E8FF02902A480078C007F3
:10F59000C00F002801D00020FEBD00200AE00201BB
:10F5A000234BD1180A68002A03D04A68002A00D0E9
:10F5B0006D1E401CA042F2D300202CE002011C4B27
:10F5C000D11800220192C2B20092002213E016016B
:10F5D000174FF3191E68002E03D05E68002E00D06E
:10F5E00008E05F7B019EB74203DD5E7B0196D6B2E9
:10F5F000009600BF521CA242E9D3009A12010C4BA4
:10F60000D118029A4A600A7B9302029AD21A0A60BF
:10F610000A680292401CA842D0D306480078012113
:10F620000843044908700020B6E700005C21002070
:10F630004C210020162100200146002901D1032081
:10F6400070470248406E08600020F9E7042B002054
:10F65000F8B505460C4616461F4623480078C007F5
:10F66000C00F002801D10120F8BD2846FEF794FD07
:10F67000002801D10220F7E7002E01D0002C01D193
:10F680000320F1E7B007800F002803D1A007800F07
:10F69000002801D00620E7E72868A04204D8B90076
:10F6A00009196868884201D20520DDE7002F01D1E1
:10F6B0000420D9E7684604F0E5FD002801D10720C1
:10F6C000D2E70099069848600098056001200099EB
:10F6D00008720098C660009804610098878204F060
:10F6E0009DFE0020C0E700001621002070B50446F2
:10F6F0001848006E182148431649451816480078E6
:10F700000221084000280DD0022C02D0032C08D181
:10F7100003E0284602F05AFF03E0284602F040FFCB
:10F7200000BF14E00C4800780421084000280ED0E7
:10F73000094800788843084908700648406E002848
:10F7400005D008460078022108430349087004F0F8
:10F750001FFE70BD042B0020162100203EB500BF07
:10F760006846007801090901491C00916846007843
:10F77000F02188431030009000BF0C2214A168468D
:10F780007CDF044600BF2546002D04D000BF28467C
:10F79000FCF716FD00BF00BF002001900290502131
:10F7A00068468180A021C18000210181FF21913123
:10F7B000418101A87ADF044600BF2546002D04D010
:10F7C00000BF2846FCF7FCFC00BF00BF3EBD0000A8
:10F7D000534D4152545F4C4F434B45520000000083
:10F7E00070B50546002D01D0012070BD1848007B82
:10F7F000002803D000201649087301E000F0D8F873
:10F80000134800780300FBF7FDFF081D05090D11E3
:10F810001D15191D00F03CF8044615E000F0B4F881
:10F82000044611E000F090F804460DE000F044F8C2
:10F83000044609E000F020F9044605E000F02CF948
:10F84000044601E00F2400BF00BF2046CDE70000C2
:10F85000E82A00200C480089401C0B490881002040
:10F860004880087300BF0CE00101084A515C002980
:10F8700001D1012200E0002203490A310A54411C4F
:10F8800088B20228F0DB7047E82A0020C82A00204E
:10F8900010B5074800F032F8002806D10449891E47
:10F8A000087048804860034810BD00F06DF8FBE721
:10F8B000EA2A00201D1D000070B50D48458828016A
:10F8C0000C494018808900280DD128010A4680186B
:10F8D0000023012241680848FFF7F0FD0446042098
:10F8E0000349087002E000F08FF80446204670BD1E
:10F8F000E82A0020C82A00204C21002010B501462B
:10F900000022002016E00E4B1B5C002B10D00024C0
:10F910000B4B1C5403010B4C1B199B89002B07D16B
:10F9200003011B199B7B012B02D10880012203E0FC
:10F93000431C98B20228E6DB00BF104610BD000051
:10F94000F22A0020C82A0020F8B50C4844680C4868
:10F9500000680B498988890045186088C01C86B2F8
:10F9600003200649087000200090084633462946C7
:10F9700042680448FFF76CFEF8BD0000E82A00204A
:10F98000042100204C21002010B508494888091D99
:10F9900004F034FE002803D0FFF7D6FF044602E04F
:10F9A000FFF78AFF0446204610BD0000E82A002029
:10F9B00010B5144800780300FBF724FF0805202049
:10F9C0000B1117181C20FFF745FF01200D49087087
:10F9D00015E000F06DF802200A4908700FE000F011
:10F9E00029F806200749087009E000BF07200549EB
:10F9F000087004E001200349087000E000BF00BF68
:10FA000010BD0000E82A002010B505200649087046
:10FA10000220064988800846002301220168044824
:10FA2000FFF74CFD10BD0000E82A00200421002053
:10FA30004C2100200D4908680D49498809010D4AEB
:10FA400089184968094A1160094949880901094A20
:10FA50008918486005498988054A52881201054B72
:10FA6000D21811810221014A91807047042100209F
:10FA7000E82A0020C82A002010B506200449087092
:10FA800049880901034A8918486802F02BFF10BD14
:10FA9000E82A0020C82A002010B507200349087072
:10FAA0000020486002F02EFF10BD0000E82A002070
:10FAB000054A50684288D21C91B2044A9288521872
:10FAC000024B9A8070470000E82A002004210020A1
:10FAD0003EB504462088502821D0522802D0542810
:10FAE00026D103E0A08801F0EFF821E00621684666
:10FAF0000170A08800F00EFC014668464180A18894
:10FB000081806946488800F051F9A08800220C499C
:10FB10000978FDF7E3F86846FEF7C8FF08E0A01D86
:10FB2000FEF7CEFA002802D0A08801F01DF900BF30
:10FB300000BFFCF7BFFC06F0B1F905F0CFF93EBD00
:10FB40005B2000203EB504466088694648802078E6
:10FB5000002804D001280FD0022829D114E0002069
:10FB6000694608706846FEF7A1FF608800F0ECFA6D
:10FB7000054601F0A9F81BE0012168460170A18843
:10FB80008180FEF793FF13E0207900280FD0608872
:10FB900000F0DAFA05460748854207D001220648F8
:10FBA00001782846FDF79AF805F098F900BF00BFE4
:10FBB00000BF3EBDFFFF00005B20002010B50446E3
:10FBC000207801280ED1608801F07EF8608800F06E
:10FBD000DBF9002805D06088012204490978FDF787
:10FBE0007DF800E000BF00BF10BD00005B200020DA
:10FBF00010B500F0B3FCFDF73BF812490870FDF7B3
:10FC000037F811490870FDF733F810490870FDF70F
:10FC10002FF80F4908700B48007818280BD00A48B5
:10FC20000078182807D009480078182803D008461B
:10FC30000078182801D1032010BD01200549087063
:10FC40000020F9E7592000205A2000205B200020E6
:10FC50005C2000205820002010B586B000F0BEF8CF
:10FC600001A8FCF775FF002411E0620002A9885A80
:10FC700000F050FB0949884207D1620002A9885A66
:10FC8000012207490978FDF729F8601C84B2019820
:10FC9000A042EAD805F022F906B010BDFFFF00002F
:10FCA0005B20002010B504462078072803D1608827
:10FCB00001F05AF800E000BF00BF10BD10B50446C7
:10FCC0000B4801782046FCF7F5FF00280DD00021F5
:10FCD00009E00C204843074A80184088A04201D11F
:10FCE000C8B210BD491C0829F3D3FF20F9E7000072
:10FCF0006B2000202425002010B500240DE00C21ED
:10FD00006143084A8918488807490978FCF7D2FFF7
:10FD1000002801D1E0B210BD641C082CEFD3FF20F5
:10FD2000F9E70000242500206B200020F8B50546E7
:10FD30000F460120A840044618480068FCF7E2FA84
:10FD40000646002E00D0F8BD154800682040002867
:10FD50001DD1284601F076FB002805D01148006827
:10FD600020431049086004E00E480068A0430D4994
:10FD700008600B48006820430949086000220A48CF
:10FD8000016806480068FCF793FA064604E0044858
:10FD90000068A0430249086000BFD4E7AC690200D4
:10FDA000C8200020C4200020C02000201CB504462C
:10FDB000044903C90191009000226946204603F0DE
:10FDC00001F81CBDF468020010B500F0CDFB012065
:10FDD00001490870002010BD6420002010B50448BF
:10FDE00002F0CEFE0349088005F0B0F810BD000017
:10FDF000FFFF000066200020F1B584B0049800F0F9
:10FE000089FA054600260027032001900120009072
:10FE10001F4885420DD002AA0821284602F098FF0B
:10FE20000446002C05D10398861D8788016801913E
:10FE300000BF00BF3A463146019B0498A9DF044643
:10FE4000042C01D1112419E0082C01D1002415E063
:10FE50000B2C13D1002000900221019808400028AB
:10FE600002D00120019009E0002E01D1002F04D022
:10FE7000002600270320019000E003240B2CD9D09A
:10FE80000098002800D10B24204605B0F0BD0000EA
:10FE9000FFFF0000F1B584B0049800F03BFA07467C
:10FEA0002248874202D1224805B0F0BD01200190CE
:10FEB0000020009000BF002000900198411C89B2F2
:10FEC000024602AB01910821384602F087FF044642
:10FED000002C22D1039D032028602A1DA91D2B6818
:10FEE0000498AADF0446002C05D10821384603F007
:10FEF00035F8044610E00C2C02D10120009002E0FD
:10FF0000052C00D100240821384603F00BF80646E2
:10FF1000002E00D0032400BF02E0072C00D10C24E7
:10FF200000980028C7D100BF2046BDE7FFFF0000B2
:10FF3000023000007FB504462078012817D12079CF
:10FF4000012814D1608802AA012102F001FF0546B0
:10FF5000002D0BD102216846017061884180039811
:10FF6000017868460171FEF7B1FD00BF00BF04488B
:10FF700000880449884201D004F0E8FF7FBD0000FA
:10FF800066200020FFFF00007CB50446204600F0FC
:10FF9000C1F906466A460121304602F0D9FE0546FF
:10FFA000002D01D000207CBD01980078FBE7000007
:10FFB00070B505460A4E00BF094A0A48018828461E
:10FFC000A7DF04460848844204D106480088401C44
:10FFD0000449088004488442EED0204670BD0000E9
:10FFE000FFFF0000682000200330000001468888E1
:10FFF000044A904204D00888002801D001207047AC
:020000040002F8
:100000000020FCE7FFFF00003EB504460D462078C7
:10001000022801D000203EBD0322611C02A8FBF78C
:10002000D3F80322211D6846FBF7CEF801AA6946E2
:100030002846FBF7F9FF032201A902A8FBF7EFF816
:10004000002801D10120E6E70020E4E770B506466C
:100050000C463046FFF732FE0546FF2D0AD00C2035
:100060006843054A8018011D07222046FBF7ACF8BB
:10007000002070BD0520FCE72425002070B58EB05F
:1000800004462088102801D00EB070BD2C22211DFE
:1000900003A8FBF799F82B4D6846007C032837D05E
:1000A00003F08AF86846007C002804D0012803D0B9
:1000B00002282AD115E000BF0AE00198014611315B
:1000C00004A8FBF71AFE002802D06846058906E05E
:1000D0006A4602A9072003F041F80028EDD100BFCD
:1000E00014E009E00198411C04A8FFF78DFF0028E7
:1000F00002D06846058906E06A4602A9072003F097
:100100002DF80028EED100BF00E000BF00BF00BF07
:100110006946888904A900F0ABFF06460948854274
:100120000DD069468889294600F096F8684681898D
:10013000C1800121017101A8FEF7D8FC00BF00BFFA
:10014000A2E70000FFFF0000024600210BE00C20A8
:100150004843074B185A904204D10C204843C0181A
:1001600040887047491C0829F1D30248F9E700008C
:1001700024250020FFFF000010B500F001FAFCF775
:1001800077FD0A49087008460078182801D1032035
:1001900010BD074871DF0446002C01D00320F7E7AB
:1001A0000120044908700020F2E700006B200020C5
:1001B0006D2000206A200020F8B504460D46601C22
:1001C00000F0AEFA002800D1F8BD1022691C601CB6
:1001D000FBF725F8002801D1012000E000200746A8
:1001E0002946113120461130FBF787FD0646002FC6
:1001F00001D1002E01D00120E6E70020E4E702460D
:100200001088002801D001207047002106E0901CD2
:10021000405C002801D00120F6E7491C0829F6D3EC
:100220000020F1E770B505460C462846FFF7E7FFCA
:10023000002800D170BD28882188884201D0002084
:10024000F8E70822A11CA81CFAF7E9FF002801D151
:100250000120EFE70020EDE770B504460D46294682
:10026000204603F0C7F970BD30B587B0044620784A
:10027000002802D12079072801D007B030BD60885E
:1002800004AA072102F064FD0546002D00D0F4E722
:1002900002F092FF1BE060886946098B884200D11A
:1002A00015E003990598FFF787FF00280ED06088B6
:1002B000FFF74AFF6946488000216846017061885F
:1002C0008180018BC180FEF711FC07E000BF02AA0C
:1002D00006A9072002F042FF0028DCD100BF00BFC2
:1002E000CBE7000070B506463046FFF72DFF044609
:1002F000304602F038FD05460548844205D0002D01
:1003000003D10146204603F075F9284670BD000070
:10031000FFFF000070B505462846FFF7CFFC0446F6
:10032000FF2C04D00C2060430249085A70BD0248DB
:10033000FCE7000024250020FFFF00003EB5044636
:1003400002F03AFF12E00198014646312046FFF7DD
:1003500069FF002807D1019801462A312046FFF79E
:1003600061FF002802D0684600893EBD6A4602A9A6
:10037000072002F0F3FE0028E5D10148F5E7000070
:10038000FFFF0000F8B506460C460F200090002E37
:1003900004D00120FEF7EEFF0120F8BD20790028EF
:1003A00006D001280AD002282DD003285AD138E0DF
:1003B00002F0A8FA00900120207154E000270025E7
:1003C00013E028012D49085C02280CD129012B4A91
:1003D0008918486802F086FA009000202901274A0F
:1003E0005054012703E0681C85B2022DE9DB00BFF1
:1003F000002F07D10220FEF7E3FF0120FEF7BAFF2E
:100400001F48CAE72FE01F480023012201681E4849
:10041000FFF754F8009002201A49888000202071CC
:1004200021E01849086802F05DFA009017484588F5
:1004300014480768280111494018406811490860AC
:1004400028010E49401847600E48808829010B4A50
:100450008918088102200B49888000202901505406
:10046000207100E000BF00BF0098002804D00120E8
:10047000FEF780FF0E2090E700208EE7C82A0020BC
:100480001D1D0000042100204C210020E82A00202E
:10049000F8B52C480078002800D1F8BD00252A487E
:1004A0000068002801D1012000E00020064600BFBE
:1004B000002D1ED125480078002800D0EDE76846C1
:1004C00052DF0446052C01D1012511E0002C04D097
:1004D00000BF2046FBF774FE0AE0009800F0AEFE75
:1004E0001B480068002803D019490098096888470C
:1004F00000BF002E1DD115480078002800D0CCE7A1
:1005000014480088009069461348006861DF04467B
:10051000052C01D101260BE0002C04D000BF2046A1
:10052000FBF74EFE04E00C4800680749096888475D
:1005300000BF002D02D0002E00D000E0B8E700BFC1
:1005400000BFAAE72C210020382100202D21002007
:100550003C210020342100203021002000200149CE
:100560000870704758200020002003490870401E82
:1005700002490880704700006420002066200020A7
:10058000182007490870002007E00022D2430C2100
:100590004143044BC9184A80401C0828F5D37047D2
:1005A0006B2000202425002010B5002406E0142133
:1005B0006143044A881806F01DF8641C082CF6D321
:1005C00010BD0000A425002010B50446402120469F
:1005D000FAF713FE10BD00000020C0430549088053
:1005E0000020054908601820044908700449087073
:1005F0007047000098200020902000209B200020C1
:100600009C20002001464888064A1288904206DB5A
:100610004888044A5288904201DC0120704700203B
:10062000FCE700003C2000200C48008CC0B20128F0
:1006300012D10A48808C0007000F00280CD107480F
:10064000806AF0210840402806D10448C06A08406A
:10065000002801D1012070470020FCE7C00F00F006
:100660001948008CC0B201282CD11748808C000793
:10067000000F002826D11448806AF0210840002885
:1006800006D11148C06A0840002801D101207047F6
:100690000D48806AF0210840102806D10A48C06A37
:1006A0000840002801D10120F1E70748806AF021C5
:1006B0000840302806D10448C06A0840002801D10B
:1006C0000120E4E70020E2E7C00F00F01348008CAF
:1006D000C0B201281FD11148808C0007000F0028EC
:1006E00019D10E48806AF0210840A02806D10B4895
:1006F000C06A0840002801D1012070470748806A7D
:10070000F0210840D02806D10448C06A08400028DB
:1007100001D10120F1E70020EFE70000C00F00F059
:100720000246002105E0505C002801D001207047FE
:10073000491C1029F7D30020F9E701468807800FEC
:10074000002801D1012070470020FCE7014608681D
:10075000002801D002680A607047000010B5044606
:1007600005480078C007C00F002803D00348007870
:10077000FDF7FEF810BD0000F81F0020F01F00205C
:10078000FFB581B007460D461E46002D06D12B4809
:100790000078002802D1052005B0F0BD002D06D05C
:1007A00000213846039A04F093FE044605E02449EC
:1007B0003846039A04F08CFE04460022214638464F
:1007C000FEF722FE002E03D021463846FEF74CF9F4
:1007D000112C0ED006DC002C26D0082C27D00D2C96
:1007E00026D122E0862C12D01648201800281FD1CE
:1007F0001CE02A46144801783846FCF76FFA134883
:1008000001783846039AFCF769FA002412E02A4678
:100810000D4801783846FCF761FA0C4801783846F3
:10082000039AFCF75BFA05E000BF00BF00BF01E0E0
:10083000032400BF00BF2046AEE70000AA2000202E
:10084000A5200020FECFFFFFB3200020B220002013
:10085000F7B582B007460E46002E03D138467EDF3C
:1008600005B0F0BD3078C007C00F002801D00120CE
:1008700000E0022001903846FFF74CFD054619497B
:100880008D4209D001A82B46009031463846049A83
:1008900000F02AF804461BE03078C007C00F00289B
:1008A00005D03146384600F09BF8044610E031464A
:1008B00038467EDF044600200090002C01D1012044
:1008C00000E00020024601232946384604F052FA8F
:1008D000002C04D168460179384604F093FA20468A
:1008E000BEE70000FFFF0000FFB587B00F461E46C1
:1008F00000250020029005AA0721304602F028FAC0
:100900000446002C0ED1069805461835069834305A
:10091000007CC007C00F02900298002802D0069801
:10092000054634350998002816D1002C14D1002D25
:1009300012D00298002805D128461230FFF75FFC3C
:10094000002809D02A4629461231079885DF044637
:100950000021109801702CE0002C01D0052C28D12A
:1009600000243878C007C00F00280DD003AB012247
:100970000721304602F032FA0446002C04D1072148
:10098000304602F073FB0446002C03D13946079829
:100990007EDF0446002C0CD00721304602F0C2FA5C
:1009A00001900198002803D00198052800D0032465
:1009B00000BF0020009010980078002801D001208E
:1009C00000E000200346002C01D1012000E00020BF
:1009D00002463146079804F0CDF920460BB0F0BD31
:1009E000F3B583B0074602F0AFF905461C488542CF
:1009F00020D001AB01220721284602F0EFF904467E
:100A0000002C04D10721284602F030FB0446002CBC
:100A100003D1384604997EDF0446002C0BD0072111
:100A2000284602F07FFA0646002E02D0052E00D09E
:100A3000032400E003240A48854201D0012000E09D
:100A400000200090002C01D1012000E0002002468F
:100A500001232946384604F08DF9204605B0F0BD43
:100A6000FFFF0000F8B507460C461546114801780F
:100A70003846FCF71FF900281AD03846FFF74AFC21
:100A800006460D48864212D00C4801783846FCF7DD
:100A900011F9002806D02B4622463146384601F08F
:100AA000D1FF04E02A4621463846FDF76DFF00BF1E
:100AB000F8BD00009E200020FFFF00009F200020C6
:100AC000F0B589B005462846FCF7E6F80890089886
